{
  "contractName": "Medicine",
  "abi": [
    {
      "constant": true,
      "inputs": [],
      "name": "count",
      "outputs": [
        {
          "name": "",
          "type": "uint256"
        }
      ],
      "payable": false,
      "stateMutability": "view",
      "type": "function"
    },
    {
      "constant": true,
      "inputs": [
        {
          "name": "",
          "type": "uint256"
        }
      ],
      "name": "shipments",
      "outputs": [
        {
          "name": "id",
          "type": "uint256"
        },
        {
          "name": "companyname",
          "type": "string"
        },
        {
          "name": "medicinename",
          "type": "string"
        },
        {
          "name": "temp",
          "type": "string"
        },
        {
          "name": "senddate",
          "type": "string"
        },
        {
          "name": "expecteddeliverydate",
          "type": "string"
        },
        {
          "name": "nos",
          "type": "string"
        }
      ],
      "payable": false,
      "stateMutability": "view",
      "type": "function"
    },
    {
      "constant": true,
      "inputs": [
        {
          "name": "",
          "type": "uint256"
        }
      ],
      "name": "countnos",
      "outputs": [
        {
          "name": "name",
          "type": "string"
        },
        {
          "name": "units_left",
          "type": "string"
        },
        {
          "name": "units_given",
          "type": "string"
        }
      ],
      "payable": false,
      "stateMutability": "view",
      "type": "function"
    },
    {
      "constant": true,
      "inputs": [],
      "name": "countcomp",
      "outputs": [
        {
          "name": "",
          "type": "uint256"
        }
      ],
      "payable": false,
      "stateMutability": "view",
      "type": "function"
    },
    {
      "constant": true,
      "inputs": [],
      "name": "countship",
      "outputs": [
        {
          "name": "",
          "type": "uint256"
        }
      ],
      "payable": false,
      "stateMutability": "view",
      "type": "function"
    },
    {
      "constant": true,
      "inputs": [
        {
          "name": "",
          "type": "uint256"
        }
      ],
      "name": "shipcomps",
      "outputs": [
        {
          "name": "id",
          "type": "uint256"
        },
        {
          "name": "name",
          "type": "string"
        },
        {
          "name": "contact",
          "type": "string"
        },
        {
          "name": "tempcontrol",
          "type": "string"
        },
        {
          "name": "typicaldays",
          "type": "string"
        }
      ],
      "payable": false,
      "stateMutability": "view",
      "type": "function"
    },
    {
      "constant": true,
      "inputs": [
        {
          "name": "",
          "type": "uint256"
        }
      ],
      "name": "medicines",
      "outputs": [
        {
          "name": "id",
          "type": "uint256"
        },
        {
          "name": "mfg",
          "type": "string"
        },
        {
          "name": "name",
          "type": "string"
        },
        {
          "name": "expdate",
          "type": "string"
        },
        {
          "name": "date",
          "type": "string"
        },
        {
          "name": "shipped",
          "type": "string"
        },
        {
          "name": "nos",
          "type": "string"
        }
      ],
      "payable": false,
      "stateMutability": "view",
      "type": "function"
    },
    {
      "inputs": [],
      "payable": false,
      "stateMutability": "nonpayable",
      "type": "constructor"
    },
    {
      "constant": false,
      "inputs": [
        {
          "name": "_mfg",
          "type": "string"
        },
        {
          "name": "_name",
          "type": "string"
        },
        {
          "name": "_expdate",
          "type": "string"
        },
        {
          "name": "_date",
          "type": "string"
        },
        {
          "name": "_nos",
          "type": "string"
        },
        {
          "name": "_nosgiven",
          "type": "string"
        }
      ],
      "name": "addMedicine",
      "outputs": [],
      "payable": false,
      "stateMutability": "nonpayable",
      "type": "function"
    },
    {
      "constant": false,
      "inputs": [
        {
          "name": "_companyname",
          "type": "string"
        },
        {
          "name": "_medicinename",
          "type": "string"
        },
        {
          "name": "_temp",
          "type": "string"
        },
        {
          "name": "_senddate",
          "type": "string"
        },
        {
          "name": "_expecteddeliverydate",
          "type": "string"
        },
        {
          "name": "_nos",
          "type": "string"
        }
      ],
      "name": "addShipment",
      "outputs": [],
      "payable": false,
      "stateMutability": "nonpayable",
      "type": "function"
    },
    {
      "constant": false,
      "inputs": [
        {
          "name": "_name",
          "type": "string"
        },
        {
          "name": "_contact",
          "type": "string"
        },
        {
          "name": "_tempcontrol",
          "type": "string"
        },
        {
          "name": "_typicaldays",
          "type": "string"
        }
      ],
      "name": "addShipcomp",
      "outputs": [],
      "payable": false,
      "stateMutability": "nonpayable",
      "type": "function"
    }
  ],
  "bytecode": "0x60806040526000600760036101000a81548160ff0219169083151502179055503480156200002c57600080fd5b50620001816040518060400160405280600f81526020017f4d616e756661637475726572312d4d00000000000000000000000000000000008152506040518060400160405280600b81526020017f4d65646963696e65312d310000000000000000000000000000000000000000008152506040518060400160405280600a81526020017f323031392d30322d3238000000000000000000000000000000000000000000008152506040518060400160405280600a81526020017f323031372d30332d3230000000000000000000000000000000000000000000008152506040518060400160405280600281526020017f35300000000000000000000000000000000000000000000000000000000000008152506040518060400160405280600281526020017f35300000000000000000000000000000000000000000000000000000000000008152506200059360201b60201c565b620002d56040518060400160405280600f81526020017f4d616e756661637475726572322d4d00000000000000000000000000000000008152506040518060400160405280600b81526020017f4d65646963696e65322d320000000000000000000000000000000000000000008152506040518060400160405280600a81526020017f323032302d30352d3034000000000000000000000000000000000000000000008152506040518060400160405280600a81526020017f323031362d30322d3230000000000000000000000000000000000000000000008152506040518060400160405280600381526020017f31303000000000000000000000000000000000000000000000000000000000008152506040518060400160405280600381526020017f31303000000000000000000000000000000000000000000000000000000000008152506200059360201b60201c565b620003bd6040518060400160405280600881526020017f436f6d70616e79310000000000000000000000000000000000000000000000008152506040518060400160405280600d81526020017f2b393138313430353536363535000000000000000000000000000000000000008152506040518060400160405280600381526020017f59657300000000000000000000000000000000000000000000000000000000008152506040518060400160405280600181526020017f350000000000000000000000000000000000000000000000000000000000000081525062000d0d60201b60201c565b620004a56040518060400160405280600881526020017f436f6d70616e79320000000000000000000000000000000000000000000000008152506040518060400160405280600d81526020017f2b393138313430353536363636000000000000000000000000000000000000008152506040518060400160405280600381526020017f59657300000000000000000000000000000000000000000000000000000000008152506040518060400160405280600181526020017f360000000000000000000000000000000000000000000000000000000000000081525062000d0d60201b60201c565b6200058d6040518060400160405280600881526020017f436f6d70616e79330000000000000000000000000000000000000000000000008152506040518060400160405280600d81526020017f2b393138313432353736353530000000000000000000000000000000000000008152506040518060400160405280600281526020017f4e6f0000000000000000000000000000000000000000000000000000000000008152506040518060400160405280600181526020017f350000000000000000000000000000000000000000000000000000000000000081525062000d0d60201b60201c565b62001109565b60046000815480929190600101919050555060008090505b600454811162000b11576000600760006101000a81548160ff02191690831515021790555060008090505b600454811162000b02576000808281526020019081526020016000206002016040516020018082805460018160011615610100020316600290048015620006575780601f106200063457610100808354040283529182019162000657565b820191906000526020600020905b81548152906001019060200180831162000642575b505091505060405160208183030381529060405280519060200120876040516020018082805190602001908083835b60208310620006ab578051825260208201915060208101905060208303925062000686565b6001836020036101000a03801982511681845116808217855250505050505090500191505060405160208183030381529060405280519060200120141562000af4576040518060e0016040528060045481526020018981526020018881526020016000808481526020019081526020016000206003018054600181600116156101000203166002900480601f016020809104026020016040519081016040528092919081815260200182805460018160011615610100020316600290048015620007b95780601f106200078d57610100808354040283529160200191620007b9565b820191906000526020600020905b8154815290600101906020018083116200079b57829003601f168201915b505050505081526020016000808481526020019081526020016000206004018054600181600116156101000203166002900480601f016020809104026020016040519081016040528092919081815260200182805460018160011615610100020316600290048015620008705780601f10620008445761010080835404028352916020019162000870565b820191906000526020600020905b8154815290600101906020018083116200085257829003601f168201915b505050505081526020016040518060400160405280600281526020017f4e6f0000000000000000000000000000000000000000000000000000000000008152508152602001848152506000806004548152602001908152602001600020600082015181600001556020820151816001019080519060200190620008f59291906200105a565b506040820151816002019080519060200190620009149291906200105a565b506060820151816003019080519060200190620009339291906200105a565b506080820151816004019080519060200190620009529291906200105a565b5060a0820151816005019080519060200190620009719291906200105a565b5060c0820151816006019080519060200190620009909291906200105a565b509050506001600760006101000a81548160ff02191690831515021790555060405180606001604052806000808481526020019081526020016000206002018054600181600116156101000203166002900480601f01602080910402602001604051908101604052809291908181526020018280546001816001161561010002031660029004801562000a675780601f1062000a3b5761010080835404028352916020019162000a67565b820191906000526020600020905b81548152906001019060200180831162000a4957829003601f168201915b505050505081526020018581526020018481525060036000838152602001908152602001600020600082015181600001908051906020019062000aac9291906200105a565b50602082015181600101908051906020019062000acb9291906200105a565b50604082015181600201908051906020019062000aea9291906200105a565b5090505062000b02565b8080600101915050620005d6565b508080600101915050620005ab565b5060001515600760009054906101000a900460ff161515141562000d05576040518060e0016040528060045481526020018781526020018681526020018581526020018481526020016040518060400160405280600281526020017f4e6f000000000000000000000000000000000000000000000000000000000000815250815260200183815250600080600454815260200190815260200160002060008201518160000155602082015181600101908051906020019062000bd59291906200105a565b50604082015181600201908051906020019062000bf49291906200105a565b50606082015181600301908051906020019062000c139291906200105a565b50608082015181600401908051906020019062000c329291906200105a565b5060a082015181600501908051906020019062000c519291906200105a565b5060c082015181600601908051906020019062000c709291906200105a565b50905050604051806060016040528086815260200183815260200183815250600360006004548152602001908152602001600020600082015181600001908051906020019062000cc29291906200105a565b50602082015181600101908051906020019062000ce19291906200105a565b50604082015181600201908051906020019062000d009291906200105a565b509050505b505050505050565b6000600760036101000a81548160ff0219169083151502179055506000600554141562000e13576005600081548092919060010191905055506040518060a0016040528060055481526020018581526020018481526020018381526020018281525060026000600554815260200190815260200160002060008201518160000155602082015181600101908051906020019062000dac9291906200105a565b50604082015181600201908051906020019062000dcb9291906200105a565b50606082015181600301908051906020019062000dea9291906200105a565b50608082015181600401908051906020019062000e099291906200105a565b5090505062001054565b60008090505b600554811162000f5b5760026000828152602001908152602001600020600101604051602001808280546001816001161561010002031660029004801562000e9b5780601f1062000e7857610100808354040283529182019162000e9b565b820191906000526020600020905b81548152906001019060200180831162000e86575b505091505060405160208183030381529060405280519060200120856040516020018082805190602001908083835b6020831062000eef578051825260208201915060208101905060208303925062000eca565b6001836020036101000a03801982511681845116808217855250505050505090500191505060405160208183030381529060405280519060200120141562000f4d576001600760036101000a81548160ff0219169083151502179055505b808060010191505062000e19565b5060001515600760039054906101000a900460ff161515141562001053576005600081548092919060010191905055506040518060a0016040528060055481526020018581526020018481526020018381526020018281525060026000600554815260200190815260200160002060008201518160000155602082015181600101908051906020019062000ff19291906200105a565b506040820151816002019080519060200190620010109291906200105a565b5060608201518160030190805190602001906200102f9291906200105a565b5060808201518160040190805190602001906200104e9291906200105a565b509050505b5b50505050565b828054600181600116156101000203166002900490600052602060002090601f016020900481019282601f106200109d57805160ff1916838001178555620010ce565b82800160010185558215620010ce579182015b82811115620010cd578251825591602001919060010190620010b0565b5b509050620010dd9190620010e1565b5090565b6200110691905b8082111562001102576000816000905550600101620010e8565b5090565b90565b61301480620011196000396000f3fe608060405234801561001057600080fd5b506004361061009e5760003560e01c806360d60d2e1161006657806360d60d2e14610c6657806372f006b314610c845780639f021bec14610f04578063bed58edb14610f22578063c85e766d146111145761009e565b806306661abd146100a35780632ac08a93146100c157806332a486d81461038b57806334218473146107395780635265545014610ae7575b600080fd5b6100ab6113de565b6040518082815260200191505060405180910390f35b6100ed600480360360208110156100d757600080fd5b81019080803590602001909291905050506113e4565b6040518088815260200180602001806020018060200180602001806020018060200187810387528d818151815260200191508051906020019080838360005b8381101561014757808201518184015260208101905061012c565b50505050905090810190601f1680156101745780820380516001836020036101000a031916815260200191505b5087810386528c818151815260200191508051906020019080838360005b838110156101ad578082015181840152602081019050610192565b50505050905090810190601f1680156101da5780820380516001836020036101000a031916815260200191505b5087810385528b818151815260200191508051906020019080838360005b838110156102135780820151818401526020810190506101f8565b50505050905090810190601f1680156102405780820380516001836020036101000a031916815260200191505b5087810384528a818151815260200191508051906020019080838360005b8381101561027957808201518184015260208101905061025e565b50505050905090810190601f1680156102a65780820380516001836020036101000a031916815260200191505b50878103835289818151815260200191508051906020019080838360005b838110156102df5780820151818401526020810190506102c4565b50505050905090810190601f16801561030c5780820380516001836020036101000a031916815260200191505b50878103825288818151815260200191508051906020019080838360005b8381101561034557808201518184015260208101905061032a565b50505050905090810190601f1680156103725780820380516001836020036101000a031916815260200191505b509d505050505050505050505050505060405180910390f35b610737600480360360c08110156103a157600080fd5b81019080803590602001906401000000008111156103be57600080fd5b8201836020820111156103d057600080fd5b803590602001918460018302840111640100000000831117156103f257600080fd5b91908080601f016020809104026020016040519081016040528093929190818152602001838380828437600081840152601f19601f8201169050808301925050505050505091929192908035906020019064010000000081111561045557600080fd5b82018360208201111561046757600080fd5b8035906020019184600183028401116401000000008311171561048957600080fd5b91908080601f016020809104026020016040519081016040528093929190818152602001838380828437600081840152601f19601f820116905080830192505050505050509192919290803590602001906401000000008111156104ec57600080fd5b8201836020820111156104fe57600080fd5b8035906020019184600183028401116401000000008311171561052057600080fd5b91908080601f016020809104026020016040519081016040528093929190818152602001838380828437600081840152601f19601f8201169050808301925050505050505091929192908035906020019064010000000081111561058357600080fd5b82018360208201111561059557600080fd5b803590602001918460018302840111640100000000831117156105b757600080fd5b91908080601f016020809104026020016040519081016040528093929190818152602001838380828437600081840152601f19601f8201169050808301925050505050505091929192908035906020019064010000000081111561061a57600080fd5b82018360208201111561062c57600080fd5b8035906020019184600183028401116401000000008311171561064e57600080fd5b91908080601f016020809104026020016040519081016040528093929190818152602001838380828437600081840152601f19601f820116905080830192505050505050509192919290803590602001906401000000008111156106b157600080fd5b8201836020820111156106c357600080fd5b803590602001918460018302840111640100000000831117156106e557600080fd5b91908080601f016020809104026020016040519081016040528093929190818152602001838380828437600081840152601f19601f8201169050808301925050505050505091929192905050506117b6565b005b610ae5600480360360c081101561074f57600080fd5b810190808035906020019064010000000081111561076c57600080fd5b82018360208201111561077e57600080fd5b803590602001918460018302840111640100000000831117156107a057600080fd5b91908080601f016020809104026020016040519081016040528093929190818152602001838380828437600081840152601f19601f8201169050808301925050505050505091929192908035906020019064010000000081111561080357600080fd5b82018360208201111561081557600080fd5b8035906020019184600183028401116401000000008311171561083757600080fd5b91908080601f016020809104026020016040519081016040528093929190818152602001838380828437600081840152601f19601f8201169050808301925050505050505091929192908035906020019064010000000081111561089a57600080fd5b8201836020820111156108ac57600080fd5b803590602001918460018302840111640100000000831117156108ce57600080fd5b91908080601f016020809104026020016040519081016040528093929190818152602001838380828437600081840152601f19601f8201169050808301925050505050505091929192908035906020019064010000000081111561093157600080fd5b82018360208201111561094357600080fd5b8035906020019184600183028401116401000000008311171561096557600080fd5b91908080601f016020809104026020016040519081016040528093929190818152602001838380828437600081840152601f19601f820116905080830192505050505050509192919290803590602001906401000000008111156109c857600080fd5b8201836020820111156109da57600080fd5b803590602001918460018302840111640100000000831117156109fc57600080fd5b91908080601f016020809104026020016040519081016040528093929190818152602001838380828437600081840152601f19601f82011690508083019250505050505050919291929080359060200190640100000000811115610a5f57600080fd5b820183602082011115610a7157600080fd5b80359060200191846001830284011164010000000083111715610a9357600080fd5b91908080601f016020809104026020016040519081016040528093929190818152602001838380828437600081840152601f19601f820116905080830192505050505050509192919290505050611ef3565b005b610b1360048036036020811015610afd57600080fd5b810190808035906020019092919050505061232c565b60405180806020018060200180602001848103845287818151815260200191508051906020019080838360005b83811015610b5b578082015181840152602081019050610b40565b50505050905090810190601f168015610b885780820380516001836020036101000a031916815260200191505b50848103835286818151815260200191508051906020019080838360005b83811015610bc1578082015181840152602081019050610ba6565b50505050905090810190601f168015610bee5780820380516001836020036101000a031916815260200191505b50848103825285818151815260200191508051906020019080838360005b83811015610c27578082015181840152602081019050610c0c565b50505050905090810190601f168015610c545780820380516001836020036101000a031916815260200191505b50965050505050505060405180910390f35b610c6e61251e565b6040518082815260200191505060405180910390f35b610f0260048036036080811015610c9a57600080fd5b8101908080359060200190640100000000811115610cb757600080fd5b820183602082011115610cc957600080fd5b80359060200191846001830284011164010000000083111715610ceb57600080fd5b91908080601f016020809104026020016040519081016040528093929190818152602001838380828437600081840152601f19601f82011690508083019250505050505050919291929080359060200190640100000000811115610d4e57600080fd5b820183602082011115610d6057600080fd5b80359060200191846001830284011164010000000083111715610d8257600080fd5b91908080601f016020809104026020016040519081016040528093929190818152602001838380828437600081840152601f19601f82011690508083019250505050505050919291929080359060200190640100000000811115610de557600080fd5b820183602082011115610df757600080fd5b80359060200191846001830284011164010000000083111715610e1957600080fd5b91908080601f016020809104026020016040519081016040528093929190818152602001838380828437600081840152601f19601f82011690508083019250505050505050919291929080359060200190640100000000811115610e7c57600080fd5b820183602082011115610e8e57600080fd5b80359060200191846001830284011164010000000083111715610eb057600080fd5b91908080601f016020809104026020016040519081016040528093929190818152602001838380828437600081840152601f19601f820116905080830192505050505050509192919290505050612524565b005b610f0c612855565b6040518082815260200191505060405180910390f35b610f4e60048036036020811015610f3857600080fd5b810190808035906020019092919050505061285b565b6040518086815260200180602001806020018060200180602001858103855289818151815260200191508051906020019080838360005b83811015610fa0578082015181840152602081019050610f85565b50505050905090810190601f168015610fcd5780820380516001836020036101000a031916815260200191505b50858103845288818151815260200191508051906020019080838360005b83811015611006578082015181840152602081019050610feb565b50505050905090810190601f1680156110335780820380516001836020036101000a031916815260200191505b50858103835287818151815260200191508051906020019080838360005b8381101561106c578082015181840152602081019050611051565b50505050905090810190601f1680156110995780820380516001836020036101000a031916815260200191505b50858103825286818151815260200191508051906020019080838360005b838110156110d25780820151818401526020810190506110b7565b50505050905090810190601f1680156110ff5780820380516001836020036101000a031916815260200191505b50995050505050505050505060405180910390f35b6111406004803603602081101561112a57600080fd5b8101908080359060200190929190505050612af1565b6040518088815260200180602001806020018060200180602001806020018060200187810387528d818151815260200191508051906020019080838360005b8381101561119a57808201518184015260208101905061117f565b50505050905090810190601f1680156111c75780820380516001836020036101000a031916815260200191505b5087810386528c818151815260200191508051906020019080838360005b838110156112005780820151818401526020810190506111e5565b50505050905090810190601f16801561122d5780820380516001836020036101000a031916815260200191505b5087810385528b818151815260200191508051906020019080838360005b8381101561126657808201518184015260208101905061124b565b50505050905090810190601f1680156112935780820380516001836020036101000a031916815260200191505b5087810384528a818151815260200191508051906020019080838360005b838110156112cc5780820151818401526020810190506112b1565b50505050905090810190601f1680156112f95780820380516001836020036101000a031916815260200191505b50878103835289818151815260200191508051906020019080838360005b83811015611332578082015181840152602081019050611317565b50505050905090810190601f16801561135f5780820380516001836020036101000a031916815260200191505b50878103825288818151815260200191508051906020019080838360005b8381101561139857808201518184015260208101905061137d565b50505050905090810190601f1680156113c55780820380516001836020036101000a031916815260200191505b509d505050505050505050505050505060405180910390f35b60045481565b6001602052806000526040600020600091509050806000015490806001018054600181600116156101000203166002900480601f0160208091040260200160405190810160405280929190818152602001828054600181600116156101000203166002900480156114965780601f1061146b57610100808354040283529160200191611496565b820191906000526020600020905b81548152906001019060200180831161147957829003601f168201915b505050505090806002018054600181600116156101000203166002900480601f0160208091040260200160405190810160405280929190818152602001828054600181600116156101000203166002900480156115345780601f1061150957610100808354040283529160200191611534565b820191906000526020600020905b81548152906001019060200180831161151757829003601f168201915b505050505090806003018054600181600116156101000203166002900480601f0160208091040260200160405190810160405280929190818152602001828054600181600116156101000203166002900480156115d25780601f106115a7576101008083540402835291602001916115d2565b820191906000526020600020905b8154815290600101906020018083116115b557829003601f168201915b505050505090806004018054600181600116156101000203166002900480601f0160208091040260200160405190810160405280929190818152602001828054600181600116156101000203166002900480156116705780601f1061164557610100808354040283529160200191611670565b820191906000526020600020905b81548152906001019060200180831161165357829003601f168201915b505050505090806005018054600181600116156101000203166002900480601f01602080910402602001604051908101604052809291908181526020018280546001816001161561010002031660029004801561170e5780601f106116e35761010080835404028352916020019161170e565b820191906000526020600020905b8154815290600101906020018083116116f157829003601f168201915b505050505090806006018054600181600116156101000203166002900480601f0160208091040260200160405190810160405280929190818152602001828054600181600116156101000203166002900480156117ac5780601f10611781576101008083540402835291602001916117ac565b820191906000526020600020905b81548152906001019060200180831161178f57829003601f168201915b5050505050905087565b60046000815480929190600101919050555060008090505b6004548111611d0a576000600760006101000a81548160ff02191690831515021790555060008090505b6004548111611cfc5760008082815260200190815260200160002060020160405160200180828054600181600116156101000203166002900480156118745780601f10611852576101008083540402835291820191611874565b820191906000526020600020905b815481529060010190602001808311611860575b505091505060405160208183030381529060405280519060200120876040516020018082805190602001908083835b602083106118c657805182526020820191506020810190506020830392506118a3565b6001836020036101000a038019825116818451168082178552505050505050905001915050604051602081830303815290604052805190602001201415611cef576040518060e0016040528060045481526020018981526020018881526020016000808481526020019081526020016000206003018054600181600116156101000203166002900480601f0160208091040260200160405190810160405280929190818152602001828054600181600116156101000203166002900480156119cf5780601f106119a4576101008083540402835291602001916119cf565b820191906000526020600020905b8154815290600101906020018083116119b257829003601f168201915b505050505081526020016000808481526020019081526020016000206004018054600181600116156101000203166002900480601f016020809104026020016040519081016040528092919081815260200182805460018160011615610100020316600290048015611a825780601f10611a5757610100808354040283529160200191611a82565b820191906000526020600020905b815481529060010190602001808311611a6557829003601f168201915b505050505081526020016040518060400160405280600281526020017f4e6f0000000000000000000000000000000000000000000000000000000000008152508152602001848152506000806004548152602001908152602001600020600082015181600001556020820151816001019080519060200190611b05929190612ec3565b506040820151816002019080519060200190611b22929190612ec3565b506060820151816003019080519060200190611b3f929190612ec3565b506080820151816004019080519060200190611b5c929190612ec3565b5060a0820151816005019080519060200190611b79929190612ec3565b5060c0820151816006019080519060200190611b96929190612ec3565b509050506001600760006101000a81548160ff02191690831515021790555060405180606001604052806000808481526020019081526020016000206002018054600181600116156101000203166002900480601f016020809104026020016040519081016040528092919081815260200182805460018160011615610100020316600290048015611c695780601f10611c3e57610100808354040283529160200191611c69565b820191906000526020600020905b815481529060010190602001808311611c4c57829003601f168201915b5050505050815260200185815260200184815250600360008381526020019081526020016000206000820151816000019080519060200190611cac929190612ec3565b506020820151816001019080519060200190611cc9929190612ec3565b506040820151816002019080519060200190611ce6929190612ec3565b50905050611cfc565b80806001019150506117f8565b5080806001019150506117ce565b5060001515600760009054906101000a900460ff1615151415611eeb576040518060e0016040528060045481526020018781526020018681526020018581526020018481526020016040518060400160405280600281526020017f4e6f0000000000000000000000000000000000000000000000000000000000008152508152602001838152506000806004548152602001908152602001600020600082015181600001556020820151816001019080519060200190611dcb929190612ec3565b506040820151816002019080519060200190611de8929190612ec3565b506060820151816003019080519060200190611e05929190612ec3565b506080820151816004019080519060200190611e22929190612ec3565b5060a0820151816005019080519060200190611e3f929190612ec3565b5060c0820151816006019080519060200190611e5c929190612ec3565b509050506040518060600160405280868152602001838152602001838152506003600060045481526020019081526020016000206000820151816000019080519060200190611eac929190612ec3565b506020820151816001019080519060200190611ec9929190612ec3565b506040820151816002019080519060200190611ee6929190612ec3565b509050505b505050505050565b60008090505b6004548111612090576000808281526020019081526020016000206002016040516020018082805460018160011615610100020316600290048015611f755780601f10611f53576101008083540402835291820191611f75565b820191906000526020600020905b815481529060010190602001808311611f61575b505091505060405160208183030381529060405280519060200120866040516020018082805190602001908083835b60208310611fc75780518252602082019150602081019050602083039250611fa4565b6001836020036101000a038019825116818451168082178552505050505050905001915050604051602081830303815290604052805190602001201415612083576040518060400160405280600381526020017f59657300000000000000000000000000000000000000000000000000000000008152506000808381526020019081526020016000206005019080519060200190612066929190612f43565b506001600760016101000a81548160ff0219169083151502179055505b8080600101915050611ef9565b5060008090505b60055481116121d0576002600082815260200190815260200160002060010160405160200180828054600181600116156101000203166002900480156121145780601f106120f2576101008083540402835291820191612114565b820191906000526020600020905b815481529060010190602001808311612100575b505091505060405160208183030381529060405280519060200120876040516020018082805190602001908083835b602083106121665780518252602082019150602081019050602083039250612143565b6001836020036101000a0380198251168184511680821785525050505050509050019150506040516020818303038152906040528051906020012014156121c3576001600760026101000a81548160ff0219169083151502179055505b8080600101915050612097565b5060011515600760019054906101000a900460ff161515148015612207575060011515600760029054906101000a900460ff161515145b15612324576006600081548092919060010191905055506040518060e0016040528060065481526020018781526020018681526020018581526020018481526020018381526020018281525060016000600654815260200190815260200160002060008201518160000155602082015181600101908051906020019061228e929190612ec3565b5060408201518160020190805190602001906122ab929190612ec3565b5060608201518160030190805190602001906122c8929190612ec3565b5060808201518160040190805190602001906122e5929190612ec3565b5060a0820151816005019080519060200190612302929190612ec3565b5060c082015181600601908051906020019061231f929190612ec3565b509050505b505050505050565b6003602052806000526040600020600091509050806000018054600181600116156101000203166002900480601f0160208091040260200160405190810160405280929190818152602001828054600181600116156101000203166002900480156123d85780601f106123ad576101008083540402835291602001916123d8565b820191906000526020600020905b8154815290600101906020018083116123bb57829003601f168201915b505050505090806001018054600181600116156101000203166002900480601f0160208091040260200160405190810160405280929190818152602001828054600181600116156101000203166002900480156124765780601f1061244b57610100808354040283529160200191612476565b820191906000526020600020905b81548152906001019060200180831161245957829003601f168201915b505050505090806002018054600181600116156101000203166002900480601f0160208091040260200160405190810160405280929190818152602001828054600181600116156101000203166002900480156125145780601f106124e957610100808354040283529160200191612514565b820191906000526020600020905b8154815290600101906020018083116124f757829003601f168201915b5050505050905083565b60055481565b6000600760036101000a81548160ff02191690831515021790555060006005541415612620576005600081548092919060010191905055506040518060a001604052806005548152602001858152602001848152602001838152602001828152506002600060055481526020019081526020016000206000820151816000015560208201518160010190805190602001906125c0929190612ec3565b5060408201518160020190805190602001906125dd929190612ec3565b5060608201518160030190805190602001906125fa929190612ec3565b506080820151816004019080519060200190612617929190612ec3565b5090505061284f565b60008090505b600554811161275f576002600082815260200190815260200160002060010160405160200180828054600181600116156101000203166002900480156126a35780601f106126815761010080835404028352918201916126a3565b820191906000526020600020905b81548152906001019060200180831161268f575b505091505060405160208183030381529060405280519060200120856040516020018082805190602001908083835b602083106126f557805182526020820191506020810190506020830392506126d2565b6001836020036101000a038019825116818451168082178552505050505050905001915050604051602081830303815290604052805190602001201415612752576001600760036101000a81548160ff0219169083151502179055505b8080600101915050612626565b5060001515600760039054906101000a900460ff161515141561284e576005600081548092919060010191905055506040518060a001604052806005548152602001858152602001848152602001838152602001828152506002600060055481526020019081526020016000206000820151816000015560208201518160010190805190602001906127f2929190612ec3565b50604082015181600201908051906020019061280f929190612ec3565b50606082015181600301908051906020019061282c929190612ec3565b506080820151816004019080519060200190612849929190612ec3565b509050505b5b50505050565b60065481565b6002602052806000526040600020600091509050806000015490806001018054600181600116156101000203166002900480601f01602080910402602001604051908101604052809291908181526020018280546001816001161561010002031660029004801561290d5780601f106128e25761010080835404028352916020019161290d565b820191906000526020600020905b8154815290600101906020018083116128f057829003601f168201915b505050505090806002018054600181600116156101000203166002900480601f0160208091040260200160405190810160405280929190818152602001828054600181600116156101000203166002900480156129ab5780601f10612980576101008083540402835291602001916129ab565b820191906000526020600020905b81548152906001019060200180831161298e57829003601f168201915b505050505090806003018054600181600116156101000203166002900480601f016020809104026020016040519081016040528092919081815260200182805460018160011615610100020316600290048015612a495780601f10612a1e57610100808354040283529160200191612a49565b820191906000526020600020905b815481529060010190602001808311612a2c57829003601f168201915b505050505090806004018054600181600116156101000203166002900480601f016020809104026020016040519081016040528092919081815260200182805460018160011615610100020316600290048015612ae75780601f10612abc57610100808354040283529160200191612ae7565b820191906000526020600020905b815481529060010190602001808311612aca57829003601f168201915b5050505050905085565b6000602052806000526040600020600091509050806000015490806001018054600181600116156101000203166002900480601f016020809104026020016040519081016040528092919081815260200182805460018160011615610100020316600290048015612ba35780601f10612b7857610100808354040283529160200191612ba3565b820191906000526020600020905b815481529060010190602001808311612b8657829003601f168201915b505050505090806002018054600181600116156101000203166002900480601f016020809104026020016040519081016040528092919081815260200182805460018160011615610100020316600290048015612c415780601f10612c1657610100808354040283529160200191612c41565b820191906000526020600020905b815481529060010190602001808311612c2457829003601f168201915b505050505090806003018054600181600116156101000203166002900480601f016020809104026020016040519081016040528092919081815260200182805460018160011615610100020316600290048015612cdf5780601f10612cb457610100808354040283529160200191612cdf565b820191906000526020600020905b815481529060010190602001808311612cc257829003601f168201915b505050505090806004018054600181600116156101000203166002900480601f016020809104026020016040519081016040528092919081815260200182805460018160011615610100020316600290048015612d7d5780601f10612d5257610100808354040283529160200191612d7d565b820191906000526020600020905b815481529060010190602001808311612d6057829003601f168201915b505050505090806005018054600181600116156101000203166002900480601f016020809104026020016040519081016040528092919081815260200182805460018160011615610100020316600290048015612e1b5780601f10612df057610100808354040283529160200191612e1b565b820191906000526020600020905b815481529060010190602001808311612dfe57829003601f168201915b505050505090806006018054600181600116156101000203166002900480601f016020809104026020016040519081016040528092919081815260200182805460018160011615610100020316600290048015612eb95780601f10612e8e57610100808354040283529160200191612eb9565b820191906000526020600020905b815481529060010190602001808311612e9c57829003601f168201915b5050505050905087565b828054600181600116156101000203166002900490600052602060002090601f016020900481019282601f10612f0457805160ff1916838001178555612f32565b82800160010185558215612f32579182015b82811115612f31578251825591602001919060010190612f16565b5b509050612f3f9190612fc3565b5090565b828054600181600116156101000203166002900490600052602060002090601f016020900481019282601f10612f8457805160ff1916838001178555612fb2565b82800160010185558215612fb2579182015b82811115612fb1578251825591602001919060010190612f96565b5b509050612fbf9190612fc3565b5090565b612fe591905b80821115612fe1576000816000905550600101612fc9565b5090565b9056fea165627a7a723058206da16b18fb7619904cb7a331df0ba3791010c9ce434f1cc11e85bac866b6dd480029",
  "source": "pragma solidity ^0.5.0;\n\ncontract Medicine {\n  struct Medicines {\n        uint id;\n        string mfg;\n        string name;\n        string expdate;\n        string date;\n        string shipped;\n        string nos;\n  }\n  struct Shipcompany{\n        uint id;\n        string name;\n        string contact;\n        string tempcontrol;\n        string typicaldays;\n  }\n  struct Shipment{\n        uint id;\n        string companyname;\n        string medicinename;\n        string temp;\n        string senddate;\n        string expecteddeliverydate;\n        string nos;\n  }\n  struct Nos{\n    string name;\n    string units_left;\n    string units_given;\n  }\n  mapping(uint => Medicines) public medicines;\n  mapping(uint => Shipment) public shipments;\n  mapping(uint => Shipcompany) public shipcomps;\n  mapping(uint => Nos) public countnos;\n\n  uint public count;\n  uint public countcomp;\n  uint public countship;\n  bool flag; bool flag1; bool flag2; bool flag3=false;\n\n  function addMedicine(string memory _mfg,string memory _name, string memory _expdate,string memory _date,string memory _nos,string memory _nosgiven) public {\n        count ++;\n        for(uint i = 0;i<=count;i++){\n            flag = false;\n            for(uint j = 0;j<=count;j++){\n                if((keccak256(abi.encodePacked((_name))) == keccak256(abi.encodePacked((medicines[j].name))))){\n                medicines[count] = Medicines(count,_mfg, _name, medicines[j].expdate, medicines[j].date,'No',_nosgiven);\n                flag = true;\n                countnos[j] = Nos(medicines[j].name,_nos,_nosgiven);\n                    break;\n                }\n            }\n          }\n          if(flag==false){\n          medicines[count] = Medicines(count,_mfg, _name, _expdate, _date,'No',_nos);\n          countnos[count] = Nos(_name,_nos,_nos);\n          }\n      }\n  function addShipment(string memory _companyname, string memory _medicinename,string memory _temp,string memory _senddate,string memory _expecteddeliverydate,string memory _nos) public {\n    for(uint i = 0;i<=count;i++){\n      if((keccak256(abi.encodePacked((_medicinename))) == keccak256(abi.encodePacked((medicines[i].name))))){\n        medicines[i].shipped = 'Yes';\n        flag1 = true;\n      }\n    }\n    for(uint j = 0;j<=countcomp;j++){\n      if((keccak256(abi.encodePacked((_companyname))) == keccak256(abi.encodePacked((shipcomps[j].name))))){\n        flag2 = true;\n      }\n    }\n    if(flag1 == true && flag2 == true){\n      countship++;\n      shipments[countship] = Shipment(countship,_companyname,_medicinename,_temp,_senddate,_expecteddeliverydate,_nos);\n    }\n  }\n  function addShipcomp(string memory _name,string memory _contact, string memory _tempcontrol, string memory _typicaldays) public{\n    flag3 = false;\n    if(countcomp == 0)\n    {\n      countcomp++;\n      shipcomps[countcomp] = Shipcompany(countcomp,_name,_contact,_tempcontrol,_typicaldays);\n    }\n    else{\n      for(uint i = 0;i<=countcomp;i++)\n      {\n        if(keccak256(abi.encodePacked(_name)) == keccak256(abi.encodePacked(shipcomps[i].name))){\n          flag3 = true;\n        }\n      }\n      if(flag3 == false)\n        {\n          countcomp++;\n          shipcomps[countcomp] = Shipcompany(countcomp,_name,_contact,_tempcontrol,_typicaldays);\n        }\n    }\n  }\n  constructor() public{\n        addMedicine(\"Manufacturer1-M\",\"Medicine1-1\",\"2019-02-28\",\"2017-03-20\",\"50\",'50');\n        addMedicine(\"Manufacturer2-M\",\"Medicine2-2\",\"2020-05-04\",\"2016-02-20\",\"100\",'100');\n//        addMedicine(\"Manufacturer3-M\",\"Medicine1-1\",\"2019-02-25\",\"2017-03-19\",50);\n//        addMedicine(\"Manufacturer4-C\",\"Medicine1-1\",\"2019-02-25\",\"2017-03-19\",50);\n        addShipcomp(\"Company1\",\"+918140556655\",\"Yes\",\"5\");\n        addShipcomp(\"Company2\",\"+918140556666\",\"Yes\",\"6\");\n        addShipcomp(\"Company3\",\"+918142576550\",\"No\",\"5\");\n        //addShipment(\"Company3\",\"Medicine2-2\",\"No\",\"2019-09-16\",\"2019-09-21\",\"20\");\n        //addShipment(\"Company1\",\"Medicine1-1\",\"No\",\"2019-09-16\",\"2019-09-21\",\"20\");\n    }\n}",
  "sourcePath": "/home/vantstein/Documents/Sem 5/medicinetracking/contracts/Medicine.sol",
  "compiler": {
    "name": "solc",
    "version": "0.5.8+commit.23d335f2.Emscripten.clang"
  },
  "schemaVersion": "3.0.11",
  "updatedAt": "2019-10-05T11:49:02.080Z",
  "devdoc": {
    "methods": {}
  },
  "userdoc": {
    "methods": {}
  }
}