{
  "contractName": "Medicine",
  "abi": [
    {
      "constant": true,
      "inputs": [],
      "name": "count",
      "outputs": [
        {
          "name": "",
          "type": "uint256"
        }
      ],
      "payable": false,
      "stateMutability": "view",
      "type": "function"
    },
    {
      "constant": true,
      "inputs": [
        {
          "name": "",
          "type": "uint256"
        }
      ],
      "name": "medicines",
      "outputs": [
        {
          "name": "id",
          "type": "uint256"
        },
        {
          "name": "mfg",
          "type": "string"
        },
        {
          "name": "name",
          "type": "string"
        },
        {
          "name": "expdate",
          "type": "string"
        },
        {
          "name": "date",
          "type": "string"
        }
      ],
      "payable": false,
      "stateMutability": "view",
      "type": "function"
    },
    {
      "inputs": [],
      "payable": false,
      "stateMutability": "nonpayable",
      "type": "constructor"
    },
    {
      "constant": false,
      "inputs": [
        {
          "name": "_mfg",
          "type": "string"
        },
        {
          "name": "_name",
          "type": "string"
        },
        {
          "name": "_expdate",
          "type": "string"
        },
        {
          "name": "_date",
          "type": "string"
        }
      ],
      "name": "addMedicine",
      "outputs": [],
      "payable": false,
      "stateMutability": "nonpayable",
      "type": "function"
    },
    {
      "constant": true,
      "inputs": [
        {
          "name": "i",
          "type": "uint256"
        }
      ],
      "name": "getname",
      "outputs": [
        {
          "name": "",
          "type": "string"
        }
      ],
      "payable": false,
      "stateMutability": "view",
      "type": "function"
    },
    {
      "constant": true,
      "inputs": [
        {
          "name": "i",
          "type": "uint256"
        }
      ],
      "name": "getdate",
      "outputs": [
        {
          "name": "",
          "type": "string"
        }
      ],
      "payable": false,
      "stateMutability": "view",
      "type": "function"
    },
    {
      "constant": true,
      "inputs": [
        {
          "name": "data",
          "type": "bytes32"
        }
      ],
      "name": "bytes32ToString",
      "outputs": [
        {
          "name": "",
          "type": "string"
        }
      ],
      "payable": false,
      "stateMutability": "pure",
      "type": "function"
    },
    {
      "constant": true,
      "inputs": [
        {
          "name": "i",
          "type": "uint256"
        }
      ],
      "name": "getexpdate",
      "outputs": [
        {
          "name": "",
          "type": "string"
        }
      ],
      "payable": false,
      "stateMutability": "view",
      "type": "function"
    },
    {
      "constant": true,
      "inputs": [
        {
          "name": "_name",
          "type": "string"
        }
      ],
      "name": "searchexpdate",
      "outputs": [
        {
          "name": "",
          "type": "string"
        }
      ],
      "payable": false,
      "stateMutability": "view",
      "type": "function"
    },
    {
      "constant": true,
      "inputs": [
        {
          "name": "_name",
          "type": "string"
        }
      ],
      "name": "searchdate",
      "outputs": [
        {
          "name": "",
          "type": "string"
        }
      ],
      "payable": false,
      "stateMutability": "view",
      "type": "function"
    }
  ],
  "bytecode": "0x60806040523480156200001157600080fd5b50620000fa6040518060400160405280600e81526020017f4d616e75666163747572657220310000000000000000000000000000000000008152506040518060400160405280600a81526020017f4d65646963696e652031000000000000000000000000000000000000000000008152506040518060400160405280600a81526020017f323031392d30322d3238000000000000000000000000000000000000000000008152506040518060400160405280600a81526020017f323031372d30332d323000000000000000000000000000000000000000000000815250620001e860201b60201c565b620001e26040518060400160405280600e81526020017f4d616e75666163747572657220320000000000000000000000000000000000008152506040518060400160405280600a81526020017f4d65646963696e652032000000000000000000000000000000000000000000008152506040518060400160405280600a81526020017f30342d30352d32303230000000000000000000000000000000000000000000008152506040518060400160405280600a81526020017f32302d30322d3230313600000000000000000000000000000000000000000000815250620001e860201b60201c565b62000375565b6001600081548092919060010191905055506040518060a0016040528060015481526020018581526020018481526020018381526020018281525060008060015481526020019081526020016000206000820151816000015560208201518160010190805190602001906200025f929190620002c6565b5060408201518160020190805190602001906200027e929190620002c6565b5060608201518160030190805190602001906200029d929190620002c6565b506080820151816004019080519060200190620002bc929190620002c6565b5090505050505050565b828054600181600116156101000203166002900490600052602060002090601f016020900481019282601f106200030957805160ff19168380011785556200033a565b828001600101855582156200033a579182015b82811115620003395782518255916020019190600101906200031c565b5b5090506200034991906200034d565b5090565b6200037291905b808211156200036e57600081600090555060010162000354565b5090565b90565b61153680620003856000396000f3fe608060405234801561001057600080fd5b50600436106100935760003560e01c806321c92bdf1161006657806321c92bdf14610484578063360e2ba31461052b5780639201de551461065f578063c85e766d14610706578063eb946a33146108f857610093565b80630202ace114610098578063020d07a41461013f57806306661abd146103bf578063152604b8146103dd575b600080fd5b6100c4600480360360208110156100ae57600080fd5b8101908080359060200190929190505050610a2c565b6040518080602001828103825283818151815260200191508051906020019080838360005b838110156101045780820151818401526020810190506100e9565b50505050905090810190601f1680156101315780820380516001836020036101000a031916815260200191505b509250505060405180910390f35b6103bd6004803603608081101561015557600080fd5b810190808035906020019064010000000081111561017257600080fd5b82018360208201111561018457600080fd5b803590602001918460018302840111640100000000831117156101a657600080fd5b91908080601f016020809104026020016040519081016040528093929190818152602001838380828437600081840152601f19601f8201169050808301925050505050505091929192908035906020019064010000000081111561020957600080fd5b82018360208201111561021b57600080fd5b8035906020019184600183028401116401000000008311171561023d57600080fd5b91908080601f016020809104026020016040519081016040528093929190818152602001838380828437600081840152601f19601f820116905080830192505050505050509192919290803590602001906401000000008111156102a057600080fd5b8201836020820111156102b257600080fd5b803590602001918460018302840111640100000000831117156102d457600080fd5b91908080601f016020809104026020016040519081016040528093929190818152602001838380828437600081840152601f19601f8201169050808301925050505050505091929192908035906020019064010000000081111561033757600080fd5b82018360208201111561034957600080fd5b8035906020019184600183028401116401000000008311171561036b57600080fd5b91908080601f016020809104026020016040519081016040528093929190818152602001838380828437600081840152601f19601f820116905080830192505050505050509192919290505050610ae3565b005b6103c7610bb9565b6040518082815260200191505060405180910390f35b610409600480360360208110156103f357600080fd5b8101908080359060200190929190505050610bbf565b6040518080602001828103825283818151815260200191508051906020019080838360005b8381101561044957808201518184015260208101905061042e565b50505050905090810190601f1680156104765780820380516001836020036101000a031916815260200191505b509250505060405180910390f35b6104b06004803603602081101561049a57600080fd5b8101908080359060200190929190505050610c76565b6040518080602001828103825283818151815260200191508051906020019080838360005b838110156104f05780820151818401526020810190506104d5565b50505050905090810190601f16801561051d5780820380516001836020036101000a031916815260200191505b509250505060405180910390f35b6105e46004803603602081101561054157600080fd5b810190808035906020019064010000000081111561055e57600080fd5b82018360208201111561057057600080fd5b8035906020019184600183028401116401000000008311171561059257600080fd5b91908080601f016020809104026020016040519081016040528093929190818152602001838380828437600081840152601f19601f820116905080830192505050505050509192919290505050610d2d565b6040518080602001828103825283818151815260200191508051906020019080838360005b83811015610624578082015181840152602081019050610609565b50505050905090810190601f1680156106515780820380516001836020036101000a031916815260200191505b509250505060405180910390f35b61068b6004803603602081101561067557600080fd5b8101908080359060200190929190505050610f0f565b6040518080602001828103825283818151815260200191508051906020019080838360005b838110156106cb5780820151818401526020810190506106b0565b50505050905090810190601f1680156106f85780820380516001836020036101000a031916815260200191505b509250505060405180910390f35b6107326004803603602081101561071c57600080fd5b8101908080359060200190929190505050610fed565b6040518086815260200180602001806020018060200180602001858103855289818151815260200191508051906020019080838360005b83811015610784578082015181840152602081019050610769565b50505050905090810190601f1680156107b15780820380516001836020036101000a031916815260200191505b50858103845288818151815260200191508051906020019080838360005b838110156107ea5780820151818401526020810190506107cf565b50505050905090810190601f1680156108175780820380516001836020036101000a031916815260200191505b50858103835287818151815260200191508051906020019080838360005b83811015610850578082015181840152602081019050610835565b50505050905090810190601f16801561087d5780820380516001836020036101000a031916815260200191505b50858103825286818151815260200191508051906020019080838360005b838110156108b657808201518184015260208101905061089b565b50505050905090810190601f1680156108e35780820380516001836020036101000a031916815260200191505b50995050505050505050505060405180910390f35b6109b16004803603602081101561090e57600080fd5b810190808035906020019064010000000081111561092b57600080fd5b82018360208201111561093d57600080fd5b8035906020019184600183028401116401000000008311171561095f57600080fd5b91908080601f016020809104026020016040519081016040528093929190818152602001838380828437600081840152601f19601f820116905080830192505050505050509192919290505050611283565b6040518080602001828103825283818151815260200191508051906020019080838360005b838110156109f15780820151818401526020810190506109d6565b50505050905090810190601f168015610a1e5780820380516001836020036101000a031916815260200191505b509250505060405180910390f35b60606000808381526020019081526020016000206002018054600181600116156101000203166002900480601f016020809104026020016040519081016040528092919081815260200182805460018160011615610100020316600290048015610ad75780601f10610aac57610100808354040283529160200191610ad7565b820191906000526020600020905b815481529060010190602001808311610aba57829003601f168201915b50505050509050919050565b6001600081548092919060010191905055506040518060a001604052806001548152602001858152602001848152602001838152602001828152506000806001548152602001908152602001600020600082015181600001556020820151816001019080519060200190610b58929190611465565b506040820151816002019080519060200190610b75929190611465565b506060820151816003019080519060200190610b92929190611465565b506080820151816004019080519060200190610baf929190611465565b5090505050505050565b60015481565b60606000808381526020019081526020016000206003018054600181600116156101000203166002900480601f016020809104026020016040519081016040528092919081815260200182805460018160011615610100020316600290048015610c6a5780601f10610c3f57610100808354040283529160200191610c6a565b820191906000526020600020905b815481529060010190602001808311610c4d57829003601f168201915b50505050509050919050565b60606000808381526020019081526020016000206004018054600181600116156101000203166002900480601f016020809104026020016040519081016040528092919081815260200182805460018160011615610100020316600290048015610d215780601f10610cf657610100808354040283529160200191610d21565b820191906000526020600020905b815481529060010190602001808311610d0457829003601f168201915b50505050509050919050565b60606000600190505b6001548111610f0857826040516020018082805190602001908083835b60208310610d765780518252602082019150602081019050602083039250610d53565b6001836020036101000a038019825116818451168082178552505050505050905001915050604051602081830303815290604052805190602001206000808381526020019081526020016000206002016040516020018082805460018160011615610100020316600290048015610e245780601f10610e02576101008083540402835291820191610e24565b820191906000526020600020905b815481529060010190602001808311610e10575b5050915050604051602081830303815290604052805190602001201415610efb576000808281526020019081526020016000206004018054600181600116156101000203166002900480601f016020809104026020016040519081016040528092919081815260200182805460018160011615610100020316600290048015610eee5780601f10610ec357610100808354040283529160200191610eee565b820191906000526020600020905b815481529060010190602001808311610ed157829003601f168201915b5050505050915050610f0a565b8080600101915050610d36565b505b919050565b60608060206040519080825280601f01601f191660200182016040528015610f465781602001600182028038833980820191505090505b50905060008090505b6020811015610fe35760008160080260020a8560001c0260001b9050600060f81b817effffffffffffffffffffffffffffffffffffffffffffffffffffffffffffff191614610fd55780838381518110610fa557fe5b60200101907effffffffffffffffffffffffffffffffffffffffffffffffffffffffffffff1916908160001a9053505b508080600101915050610f4f565b5080915050919050565b6000602052806000526040600020600091509050806000015490806001018054600181600116156101000203166002900480601f01602080910402602001604051908101604052809291908181526020018280546001816001161561010002031660029004801561109f5780601f106110745761010080835404028352916020019161109f565b820191906000526020600020905b81548152906001019060200180831161108257829003601f168201915b505050505090806002018054600181600116156101000203166002900480601f01602080910402602001604051908101604052809291908181526020018280546001816001161561010002031660029004801561113d5780601f106111125761010080835404028352916020019161113d565b820191906000526020600020905b81548152906001019060200180831161112057829003601f168201915b505050505090806003018054600181600116156101000203166002900480601f0160208091040260200160405190810160405280929190818152602001828054600181600116156101000203166002900480156111db5780601f106111b0576101008083540402835291602001916111db565b820191906000526020600020905b8154815290600101906020018083116111be57829003601f168201915b505050505090806004018054600181600116156101000203166002900480601f0160208091040260200160405190810160405280929190818152602001828054600181600116156101000203166002900480156112795780601f1061124e57610100808354040283529160200191611279565b820191906000526020600020905b81548152906001019060200180831161125c57829003601f168201915b5050505050905085565b60606000600190505b600154811161145e57826040516020018082805190602001908083835b602083106112cc57805182526020820191506020810190506020830392506112a9565b6001836020036101000a03801982511681845116808217855250505050505090500191505060405160208183030381529060405280519060200120600080838152602001908152602001600020600201604051602001808280546001816001161561010002031660029004801561137a5780601f1061135857610100808354040283529182019161137a565b820191906000526020600020905b815481529060010190602001808311611366575b5050915050604051602081830303815290604052805190602001201415611451576000808281526020019081526020016000206003018054600181600116156101000203166002900480601f0160208091040260200160405190810160405280929190818152602001828054600181600116156101000203166002900480156114445780601f1061141957610100808354040283529160200191611444565b820191906000526020600020905b81548152906001019060200180831161142757829003601f168201915b5050505050915050611460565b808060010191505061128c565b505b919050565b828054600181600116156101000203166002900490600052602060002090601f016020900481019282601f106114a657805160ff19168380011785556114d4565b828001600101855582156114d4579182015b828111156114d35782518255916020019190600101906114b8565b5b5090506114e191906114e5565b5090565b61150791905b808211156115035760008160009055506001016114eb565b5090565b9056fea165627a7a72305820016cef29472713539fb8c31de9a38e492500505838e30a9bed5f8b8728d128b80029",
  "source": "pragma solidity ^0.5.0;\n\n\ncontract Medicine {\n  //string h; string date; uint count = 0;\n  struct Medicines {\n        uint id;\n        string mfg;\n        string name;\n        string expdate;\n        string date;\n    }\n  mapping(uint => Medicines) public medicines;\n  //mapping(address=>bool) public medicalorg;\n  uint public count;\n  function addMedicine(string memory _mfg,string memory _name, string memory _expdate,string memory _date) public {\n        count ++;\n        medicines[count] = Medicines(count,_mfg, _name, _expdate, _date);\n    }\n    constructor () public {\n        addMedicine(\"Manufacturer 1\",\"Medicine 1\",\"2019-02-28\",\"2017-03-20\");\n        addMedicine(\"Manufacturer 2\",\"Medicine 2\",\"04-05-2020\",\"20-02-2016\");\n    }\n  /*function set(string memory _h,string memory _date) public{\n    h = _h;\n    date = _date;\n  }*/\n  function getname(uint i) public view returns(string memory){\n    return medicines[i].name;\n  }\n  function getdate(uint i) public view returns(string memory){\n    return medicines[i].date;\n  }\n  function bytes32ToString (bytes32 data) public pure returns (string memory) {\n    bytes memory bytesString = new bytes(32);\n    for (uint j = 0;j < 32;j++) {\n        byte char = byte(bytes32(uint(data) * 2 ** (8 * j)));\n        if (char != 0) {\n            bytesString[j] = char;\n        }\n    }\n    return string(bytesString);\n}\n  function getexpdate(uint i) public view returns(string memory){\n    return medicines[i].expdate;\n  }\n  function searchexpdate(string memory _name) public view returns(string memory){\n    for(uint i = 1; i <= count; i++)\n    {\n      if(keccak256(abi.encodePacked((medicines[i].name))) == keccak256(abi.encodePacked((_name)))){\n        return medicines[i].expdate;\n\n      }\n    }\n  }\n  function searchdate(string memory _name) public view returns(string memory){\n    for(uint i = 1; i <= count; i++)\n    {\n      if(keccak256(abi.encodePacked((medicines[i].name))) == keccak256(abi.encodePacked((_name)))){\n        return medicines[i].date;\n      }\n    }\n  }\n}\n",
  "sourcePath": "/home/vantstein/Documents/Sem 5/medicinetracking/contracts/Medicine.sol",
  "compiler": {
    "name": "solc",
    "version": "0.5.8+commit.23d335f2.Emscripten.clang"
  },
  "schemaVersion": "3.0.11",
  "updatedAt": "2019-09-15T06:05:59.631Z",
  "devdoc": {
    "methods": {}
  },
  "userdoc": {
    "methods": {}
  }
}