{
  "contractName": "Medicine",
  "abi": [
    {
      "constant": true,
      "inputs": [],
      "name": "count",
      "outputs": [
        {
          "name": "",
          "type": "uint256"
        }
      ],
      "payable": false,
      "stateMutability": "view",
      "type": "function"
    },
    {
      "constant": true,
      "inputs": [
        {
          "name": "",
          "type": "uint256"
        }
      ],
      "name": "shipments",
      "outputs": [
        {
          "name": "id",
          "type": "uint256"
        },
        {
          "name": "companyname",
          "type": "string"
        },
        {
          "name": "medicinename",
          "type": "string"
        },
        {
          "name": "temp",
          "type": "string"
        },
        {
          "name": "senddate",
          "type": "string"
        },
        {
          "name": "expecteddeliverydate",
          "type": "string"
        },
        {
          "name": "nos",
          "type": "string"
        }
      ],
      "payable": false,
      "stateMutability": "view",
      "type": "function"
    },
    {
      "constant": true,
      "inputs": [
        {
          "name": "",
          "type": "uint256"
        }
      ],
      "name": "countnos",
      "outputs": [
        {
          "name": "name",
          "type": "string"
        },
        {
          "name": "units_left",
          "type": "string"
        },
        {
          "name": "units_given",
          "type": "string"
        }
      ],
      "payable": false,
      "stateMutability": "view",
      "type": "function"
    },
    {
      "constant": true,
      "inputs": [],
      "name": "countcomp",
      "outputs": [
        {
          "name": "",
          "type": "uint256"
        }
      ],
      "payable": false,
      "stateMutability": "view",
      "type": "function"
    },
    {
      "constant": true,
      "inputs": [],
      "name": "countship",
      "outputs": [
        {
          "name": "",
          "type": "uint256"
        }
      ],
      "payable": false,
      "stateMutability": "view",
      "type": "function"
    },
    {
      "constant": true,
      "inputs": [
        {
          "name": "",
          "type": "uint256"
        }
      ],
      "name": "shipcomps",
      "outputs": [
        {
          "name": "id",
          "type": "uint256"
        },
        {
          "name": "name",
          "type": "string"
        },
        {
          "name": "contact",
          "type": "string"
        },
        {
          "name": "tempcontrol",
          "type": "string"
        },
        {
          "name": "typicaldays",
          "type": "string"
        }
      ],
      "payable": false,
      "stateMutability": "view",
      "type": "function"
    },
    {
      "constant": true,
      "inputs": [
        {
          "name": "",
          "type": "uint256"
        }
      ],
      "name": "medicines",
      "outputs": [
        {
          "name": "id",
          "type": "uint256"
        },
        {
          "name": "mfg",
          "type": "string"
        },
        {
          "name": "name",
          "type": "string"
        },
        {
          "name": "expdate",
          "type": "string"
        },
        {
          "name": "date",
          "type": "string"
        },
        {
          "name": "shipped",
          "type": "string"
        },
        {
          "name": "nos",
          "type": "string"
        }
      ],
      "payable": false,
      "stateMutability": "view",
      "type": "function"
    },
    {
      "inputs": [],
      "payable": false,
      "stateMutability": "nonpayable",
      "type": "constructor"
    },
    {
      "constant": false,
      "inputs": [
        {
          "name": "_mfg",
          "type": "string"
        },
        {
          "name": "_name",
          "type": "string"
        },
        {
          "name": "_expdate",
          "type": "string"
        },
        {
          "name": "_date",
          "type": "string"
        },
        {
          "name": "_nos",
          "type": "string"
        },
        {
          "name": "_nosgiven",
          "type": "string"
        }
      ],
      "name": "addMedicine",
      "outputs": [],
      "payable": true,
      "stateMutability": "payable",
      "type": "function"
    },
    {
      "constant": false,
      "inputs": [
        {
          "name": "_companyname",
          "type": "string"
        },
        {
          "name": "_medicinename",
          "type": "string"
        },
        {
          "name": "_temp",
          "type": "string"
        },
        {
          "name": "_senddate",
          "type": "string"
        },
        {
          "name": "_expecteddeliverydate",
          "type": "string"
        },
        {
          "name": "_nos",
          "type": "string"
        }
      ],
      "name": "addShipment",
      "outputs": [],
      "payable": true,
      "stateMutability": "payable",
      "type": "function"
    },
    {
      "constant": false,
      "inputs": [
        {
          "name": "_name",
          "type": "string"
        },
        {
          "name": "_contact",
          "type": "string"
        },
        {
          "name": "_tempcontrol",
          "type": "string"
        },
        {
          "name": "_typicaldays",
          "type": "string"
        }
      ],
      "name": "addShipcomp",
      "outputs": [],
      "payable": true,
      "stateMutability": "payable",
      "type": "function"
    }
  ],
  "bytecode": "0x60806040526000600760036101000a81548160ff0219169083151502179055503480156200002c57600080fd5b50620001816040518060400160405280600f81526020017f4d616e756661637475726572312d4d00000000000000000000000000000000008152506040518060400160405280600b81526020017f4d65646963696e65312d310000000000000000000000000000000000000000008152506040518060400160405280600a81526020017f323031392d30322d3238000000000000000000000000000000000000000000008152506040518060400160405280600a81526020017f323031372d30332d3230000000000000000000000000000000000000000000008152506040518060400160405280600281526020017f35300000000000000000000000000000000000000000000000000000000000008152506040518060400160405280600281526020017f35300000000000000000000000000000000000000000000000000000000000008152506200059360201b60201c565b620002d56040518060400160405280600f81526020017f4d616e756661637475726572322d4d00000000000000000000000000000000008152506040518060400160405280600b81526020017f4d65646963696e65322d320000000000000000000000000000000000000000008152506040518060400160405280600a81526020017f323032302d30352d3034000000000000000000000000000000000000000000008152506040518060400160405280600a81526020017f323031362d30322d3230000000000000000000000000000000000000000000008152506040518060400160405280600381526020017f31303000000000000000000000000000000000000000000000000000000000008152506040518060400160405280600381526020017f31303000000000000000000000000000000000000000000000000000000000008152506200059360201b60201c565b620003bd6040518060400160405280600881526020017f436f6d70616e79310000000000000000000000000000000000000000000000008152506040518060400160405280600d81526020017f2b393138313430353536363535000000000000000000000000000000000000008152506040518060400160405280600381526020017f59657300000000000000000000000000000000000000000000000000000000008152506040518060400160405280600181526020017f350000000000000000000000000000000000000000000000000000000000000081525062000d0d60201b60201c565b620004a56040518060400160405280600881526020017f436f6d70616e79320000000000000000000000000000000000000000000000008152506040518060400160405280600d81526020017f2b393138313430353536363636000000000000000000000000000000000000008152506040518060400160405280600381526020017f59657300000000000000000000000000000000000000000000000000000000008152506040518060400160405280600181526020017f360000000000000000000000000000000000000000000000000000000000000081525062000d0d60201b60201c565b6200058d6040518060400160405280600881526020017f436f6d70616e79330000000000000000000000000000000000000000000000008152506040518060400160405280600d81526020017f2b393138313432353736353530000000000000000000000000000000000000008152506040518060400160405280600281526020017f4e6f0000000000000000000000000000000000000000000000000000000000008152506040518060400160405280600181526020017f350000000000000000000000000000000000000000000000000000000000000081525062000d0d60201b60201c565b62001109565b60046000815480929190600101919050555060008090505b600454811162000b11576000600760006101000a81548160ff02191690831515021790555060008090505b600454811162000b02576000808281526020019081526020016000206002016040516020018082805460018160011615610100020316600290048015620006575780601f106200063457610100808354040283529182019162000657565b820191906000526020600020905b81548152906001019060200180831162000642575b505091505060405160208183030381529060405280519060200120876040516020018082805190602001908083835b60208310620006ab578051825260208201915060208101905060208303925062000686565b6001836020036101000a03801982511681845116808217855250505050505090500191505060405160208183030381529060405280519060200120141562000af4576040518060e0016040528060045481526020018981526020018881526020016000808481526020019081526020016000206003018054600181600116156101000203166002900480601f016020809104026020016040519081016040528092919081815260200182805460018160011615610100020316600290048015620007b95780601f106200078d57610100808354040283529160200191620007b9565b820191906000526020600020905b8154815290600101906020018083116200079b57829003601f168201915b505050505081526020016000808481526020019081526020016000206004018054600181600116156101000203166002900480601f016020809104026020016040519081016040528092919081815260200182805460018160011615610100020316600290048015620008705780601f10620008445761010080835404028352916020019162000870565b820191906000526020600020905b8154815290600101906020018083116200085257829003601f168201915b505050505081526020016040518060400160405280600281526020017f4e6f0000000000000000000000000000000000000000000000000000000000008152508152602001848152506000806004548152602001908152602001600020600082015181600001556020820151816001019080519060200190620008f59291906200105a565b506040820151816002019080519060200190620009149291906200105a565b506060820151816003019080519060200190620009339291906200105a565b506080820151816004019080519060200190620009529291906200105a565b5060a0820151816005019080519060200190620009719291906200105a565b5060c0820151816006019080519060200190620009909291906200105a565b509050506001600760006101000a81548160ff02191690831515021790555060405180606001604052806000808481526020019081526020016000206002018054600181600116156101000203166002900480601f01602080910402602001604051908101604052809291908181526020018280546001816001161561010002031660029004801562000a675780601f1062000a3b5761010080835404028352916020019162000a67565b820191906000526020600020905b81548152906001019060200180831162000a4957829003601f168201915b505050505081526020018581526020018481525060036000838152602001908152602001600020600082015181600001908051906020019062000aac9291906200105a565b50602082015181600101908051906020019062000acb9291906200105a565b50604082015181600201908051906020019062000aea9291906200105a565b5090505062000b02565b8080600101915050620005d6565b508080600101915050620005ab565b5060001515600760009054906101000a900460ff161515141562000d05576040518060e0016040528060045481526020018781526020018681526020018581526020018481526020016040518060400160405280600281526020017f4e6f000000000000000000000000000000000000000000000000000000000000815250815260200183815250600080600454815260200190815260200160002060008201518160000155602082015181600101908051906020019062000bd59291906200105a565b50604082015181600201908051906020019062000bf49291906200105a565b50606082015181600301908051906020019062000c139291906200105a565b50608082015181600401908051906020019062000c329291906200105a565b5060a082015181600501908051906020019062000c519291906200105a565b5060c082015181600601908051906020019062000c709291906200105a565b50905050604051806060016040528086815260200183815260200183815250600360006004548152602001908152602001600020600082015181600001908051906020019062000cc29291906200105a565b50602082015181600101908051906020019062000ce19291906200105a565b50604082015181600201908051906020019062000d009291906200105a565b509050505b505050505050565b6000600760036101000a81548160ff0219169083151502179055506000600554141562000e13576005600081548092919060010191905055506040518060a0016040528060055481526020018581526020018481526020018381526020018281525060026000600554815260200190815260200160002060008201518160000155602082015181600101908051906020019062000dac9291906200105a565b50604082015181600201908051906020019062000dcb9291906200105a565b50606082015181600301908051906020019062000dea9291906200105a565b50608082015181600401908051906020019062000e099291906200105a565b5090505062001054565b60008090505b600554811162000f5b5760026000828152602001908152602001600020600101604051602001808280546001816001161561010002031660029004801562000e9b5780601f1062000e7857610100808354040283529182019162000e9b565b820191906000526020600020905b81548152906001019060200180831162000e86575b505091505060405160208183030381529060405280519060200120856040516020018082805190602001908083835b6020831062000eef578051825260208201915060208101905060208303925062000eca565b6001836020036101000a03801982511681845116808217855250505050505090500191505060405160208183030381529060405280519060200120141562000f4d576001600760036101000a81548160ff0219169083151502179055505b808060010191505062000e19565b5060001515600760039054906101000a900460ff161515141562001053576005600081548092919060010191905055506040518060a0016040528060055481526020018581526020018481526020018381526020018281525060026000600554815260200190815260200160002060008201518160000155602082015181600101908051906020019062000ff19291906200105a565b506040820151816002019080519060200190620010109291906200105a565b5060608201518160030190805190602001906200102f9291906200105a565b5060808201518160040190805190602001906200104e9291906200105a565b509050505b5b50505050565b828054600181600116156101000203166002900490600052602060002090601f016020900481019282601f106200109d57805160ff1916838001178555620010ce565b82800160010185558215620010ce579182015b82811115620010cd578251825591602001919060010190620010b0565b5b509050620010dd9190620010e1565b5090565b6200110691905b8082111562001102576000816000905550600101620010e8565b5090565b90565b61306280620011196000396000f3fe6080604052600436106100915760003560e01c806360d60d2e1161005957806360d60d2e14610c8057806372f006b314610cab5780639f021bec14610f2b578063bed58edb14610f56578063c85e766d1461115557610091565b806306661abd146100965780632ac08a93146100c157806332a486d81461039857806334218473146107465780635265545014610af4575b600080fd5b3480156100a257600080fd5b506100ab61142c565b6040518082815260200191505060405180910390f35b3480156100cd57600080fd5b506100fa600480360360208110156100e457600080fd5b8101908080359060200190929190505050611432565b6040518088815260200180602001806020018060200180602001806020018060200187810387528d818151815260200191508051906020019080838360005b83811015610154578082015181840152602081019050610139565b50505050905090810190601f1680156101815780820380516001836020036101000a031916815260200191505b5087810386528c818151815260200191508051906020019080838360005b838110156101ba57808201518184015260208101905061019f565b50505050905090810190601f1680156101e75780820380516001836020036101000a031916815260200191505b5087810385528b818151815260200191508051906020019080838360005b83811015610220578082015181840152602081019050610205565b50505050905090810190601f16801561024d5780820380516001836020036101000a031916815260200191505b5087810384528a818151815260200191508051906020019080838360005b8381101561028657808201518184015260208101905061026b565b50505050905090810190601f1680156102b35780820380516001836020036101000a031916815260200191505b50878103835289818151815260200191508051906020019080838360005b838110156102ec5780820151818401526020810190506102d1565b50505050905090810190601f1680156103195780820380516001836020036101000a031916815260200191505b50878103825288818151815260200191508051906020019080838360005b83811015610352578082015181840152602081019050610337565b50505050905090810190601f16801561037f5780820380516001836020036101000a031916815260200191505b509d505050505050505050505050505060405180910390f35b610744600480360360c08110156103ae57600080fd5b81019080803590602001906401000000008111156103cb57600080fd5b8201836020820111156103dd57600080fd5b803590602001918460018302840111640100000000831117156103ff57600080fd5b91908080601f016020809104026020016040519081016040528093929190818152602001838380828437600081840152601f19601f8201169050808301925050505050505091929192908035906020019064010000000081111561046257600080fd5b82018360208201111561047457600080fd5b8035906020019184600183028401116401000000008311171561049657600080fd5b91908080601f016020809104026020016040519081016040528093929190818152602001838380828437600081840152601f19601f820116905080830192505050505050509192919290803590602001906401000000008111156104f957600080fd5b82018360208201111561050b57600080fd5b8035906020019184600183028401116401000000008311171561052d57600080fd5b91908080601f016020809104026020016040519081016040528093929190818152602001838380828437600081840152601f19601f8201169050808301925050505050505091929192908035906020019064010000000081111561059057600080fd5b8201836020820111156105a257600080fd5b803590602001918460018302840111640100000000831117156105c457600080fd5b91908080601f016020809104026020016040519081016040528093929190818152602001838380828437600081840152601f19601f8201169050808301925050505050505091929192908035906020019064010000000081111561062757600080fd5b82018360208201111561063957600080fd5b8035906020019184600183028401116401000000008311171561065b57600080fd5b91908080601f016020809104026020016040519081016040528093929190818152602001838380828437600081840152601f19601f820116905080830192505050505050509192919290803590602001906401000000008111156106be57600080fd5b8201836020820111156106d057600080fd5b803590602001918460018302840111640100000000831117156106f257600080fd5b91908080601f016020809104026020016040519081016040528093929190818152602001838380828437600081840152601f19601f820116905080830192505050505050509192919290505050611804565b005b610af2600480360360c081101561075c57600080fd5b810190808035906020019064010000000081111561077957600080fd5b82018360208201111561078b57600080fd5b803590602001918460018302840111640100000000831117156107ad57600080fd5b91908080601f016020809104026020016040519081016040528093929190818152602001838380828437600081840152601f19601f8201169050808301925050505050505091929192908035906020019064010000000081111561081057600080fd5b82018360208201111561082257600080fd5b8035906020019184600183028401116401000000008311171561084457600080fd5b91908080601f016020809104026020016040519081016040528093929190818152602001838380828437600081840152601f19601f820116905080830192505050505050509192919290803590602001906401000000008111156108a757600080fd5b8201836020820111156108b957600080fd5b803590602001918460018302840111640100000000831117156108db57600080fd5b91908080601f016020809104026020016040519081016040528093929190818152602001838380828437600081840152601f19601f8201169050808301925050505050505091929192908035906020019064010000000081111561093e57600080fd5b82018360208201111561095057600080fd5b8035906020019184600183028401116401000000008311171561097257600080fd5b91908080601f016020809104026020016040519081016040528093929190818152602001838380828437600081840152601f19601f820116905080830192505050505050509192919290803590602001906401000000008111156109d557600080fd5b8201836020820111156109e757600080fd5b80359060200191846001830284011164010000000083111715610a0957600080fd5b91908080601f016020809104026020016040519081016040528093929190818152602001838380828437600081840152601f19601f82011690508083019250505050505050919291929080359060200190640100000000811115610a6c57600080fd5b820183602082011115610a7e57600080fd5b80359060200191846001830284011164010000000083111715610aa057600080fd5b91908080601f016020809104026020016040519081016040528093929190818152602001838380828437600081840152601f19601f820116905080830192505050505050509192919290505050611f41565b005b348015610b0057600080fd5b50610b2d60048036036020811015610b1757600080fd5b810190808035906020019092919050505061237a565b60405180806020018060200180602001848103845287818151815260200191508051906020019080838360005b83811015610b75578082015181840152602081019050610b5a565b50505050905090810190601f168015610ba25780820380516001836020036101000a031916815260200191505b50848103835286818151815260200191508051906020019080838360005b83811015610bdb578082015181840152602081019050610bc0565b50505050905090810190601f168015610c085780820380516001836020036101000a031916815260200191505b50848103825285818151815260200191508051906020019080838360005b83811015610c41578082015181840152602081019050610c26565b50505050905090810190601f168015610c6e5780820380516001836020036101000a031916815260200191505b50965050505050505060405180910390f35b348015610c8c57600080fd5b50610c9561256c565b6040518082815260200191505060405180910390f35b610f2960048036036080811015610cc157600080fd5b8101908080359060200190640100000000811115610cde57600080fd5b820183602082011115610cf057600080fd5b80359060200191846001830284011164010000000083111715610d1257600080fd5b91908080601f016020809104026020016040519081016040528093929190818152602001838380828437600081840152601f19601f82011690508083019250505050505050919291929080359060200190640100000000811115610d7557600080fd5b820183602082011115610d8757600080fd5b80359060200191846001830284011164010000000083111715610da957600080fd5b91908080601f016020809104026020016040519081016040528093929190818152602001838380828437600081840152601f19601f82011690508083019250505050505050919291929080359060200190640100000000811115610e0c57600080fd5b820183602082011115610e1e57600080fd5b80359060200191846001830284011164010000000083111715610e4057600080fd5b91908080601f016020809104026020016040519081016040528093929190818152602001838380828437600081840152601f19601f82011690508083019250505050505050919291929080359060200190640100000000811115610ea357600080fd5b820183602082011115610eb557600080fd5b80359060200191846001830284011164010000000083111715610ed757600080fd5b91908080601f016020809104026020016040519081016040528093929190818152602001838380828437600081840152601f19601f820116905080830192505050505050509192919290505050612572565b005b348015610f3757600080fd5b50610f406128a3565b6040518082815260200191505060405180910390f35b348015610f6257600080fd5b50610f8f60048036036020811015610f7957600080fd5b81019080803590602001909291905050506128a9565b6040518086815260200180602001806020018060200180602001858103855289818151815260200191508051906020019080838360005b83811015610fe1578082015181840152602081019050610fc6565b50505050905090810190601f16801561100e5780820380516001836020036101000a031916815260200191505b50858103845288818151815260200191508051906020019080838360005b8381101561104757808201518184015260208101905061102c565b50505050905090810190601f1680156110745780820380516001836020036101000a031916815260200191505b50858103835287818151815260200191508051906020019080838360005b838110156110ad578082015181840152602081019050611092565b50505050905090810190601f1680156110da5780820380516001836020036101000a031916815260200191505b50858103825286818151815260200191508051906020019080838360005b838110156111135780820151818401526020810190506110f8565b50505050905090810190601f1680156111405780820380516001836020036101000a031916815260200191505b50995050505050505050505060405180910390f35b34801561116157600080fd5b5061118e6004803603602081101561117857600080fd5b8101908080359060200190929190505050612b3f565b6040518088815260200180602001806020018060200180602001806020018060200187810387528d818151815260200191508051906020019080838360005b838110156111e85780820151818401526020810190506111cd565b50505050905090810190601f1680156112155780820380516001836020036101000a031916815260200191505b5087810386528c818151815260200191508051906020019080838360005b8381101561124e578082015181840152602081019050611233565b50505050905090810190601f16801561127b5780820380516001836020036101000a031916815260200191505b5087810385528b818151815260200191508051906020019080838360005b838110156112b4578082015181840152602081019050611299565b50505050905090810190601f1680156112e15780820380516001836020036101000a031916815260200191505b5087810384528a818151815260200191508051906020019080838360005b8381101561131a5780820151818401526020810190506112ff565b50505050905090810190601f1680156113475780820380516001836020036101000a031916815260200191505b50878103835289818151815260200191508051906020019080838360005b83811015611380578082015181840152602081019050611365565b50505050905090810190601f1680156113ad5780820380516001836020036101000a031916815260200191505b50878103825288818151815260200191508051906020019080838360005b838110156113e65780820151818401526020810190506113cb565b50505050905090810190601f1680156114135780820380516001836020036101000a031916815260200191505b509d505050505050505050505050505060405180910390f35b60045481565b6001602052806000526040600020600091509050806000015490806001018054600181600116156101000203166002900480601f0160208091040260200160405190810160405280929190818152602001828054600181600116156101000203166002900480156114e45780601f106114b9576101008083540402835291602001916114e4565b820191906000526020600020905b8154815290600101906020018083116114c757829003601f168201915b505050505090806002018054600181600116156101000203166002900480601f0160208091040260200160405190810160405280929190818152602001828054600181600116156101000203166002900480156115825780601f1061155757610100808354040283529160200191611582565b820191906000526020600020905b81548152906001019060200180831161156557829003601f168201915b505050505090806003018054600181600116156101000203166002900480601f0160208091040260200160405190810160405280929190818152602001828054600181600116156101000203166002900480156116205780601f106115f557610100808354040283529160200191611620565b820191906000526020600020905b81548152906001019060200180831161160357829003601f168201915b505050505090806004018054600181600116156101000203166002900480601f0160208091040260200160405190810160405280929190818152602001828054600181600116156101000203166002900480156116be5780601f10611693576101008083540402835291602001916116be565b820191906000526020600020905b8154815290600101906020018083116116a157829003601f168201915b505050505090806005018054600181600116156101000203166002900480601f01602080910402602001604051908101604052809291908181526020018280546001816001161561010002031660029004801561175c5780601f106117315761010080835404028352916020019161175c565b820191906000526020600020905b81548152906001019060200180831161173f57829003601f168201915b505050505090806006018054600181600116156101000203166002900480601f0160208091040260200160405190810160405280929190818152602001828054600181600116156101000203166002900480156117fa5780601f106117cf576101008083540402835291602001916117fa565b820191906000526020600020905b8154815290600101906020018083116117dd57829003601f168201915b5050505050905087565b60046000815480929190600101919050555060008090505b6004548111611d58576000600760006101000a81548160ff02191690831515021790555060008090505b6004548111611d4a5760008082815260200190815260200160002060020160405160200180828054600181600116156101000203166002900480156118c25780601f106118a05761010080835404028352918201916118c2565b820191906000526020600020905b8154815290600101906020018083116118ae575b505091505060405160208183030381529060405280519060200120876040516020018082805190602001908083835b6020831061191457805182526020820191506020810190506020830392506118f1565b6001836020036101000a038019825116818451168082178552505050505050905001915050604051602081830303815290604052805190602001201415611d3d576040518060e0016040528060045481526020018981526020018881526020016000808481526020019081526020016000206003018054600181600116156101000203166002900480601f016020809104026020016040519081016040528092919081815260200182805460018160011615610100020316600290048015611a1d5780601f106119f257610100808354040283529160200191611a1d565b820191906000526020600020905b815481529060010190602001808311611a0057829003601f168201915b505050505081526020016000808481526020019081526020016000206004018054600181600116156101000203166002900480601f016020809104026020016040519081016040528092919081815260200182805460018160011615610100020316600290048015611ad05780601f10611aa557610100808354040283529160200191611ad0565b820191906000526020600020905b815481529060010190602001808311611ab357829003601f168201915b505050505081526020016040518060400160405280600281526020017f4e6f0000000000000000000000000000000000000000000000000000000000008152508152602001848152506000806004548152602001908152602001600020600082015181600001556020820151816001019080519060200190611b53929190612f11565b506040820151816002019080519060200190611b70929190612f11565b506060820151816003019080519060200190611b8d929190612f11565b506080820151816004019080519060200190611baa929190612f11565b5060a0820151816005019080519060200190611bc7929190612f11565b5060c0820151816006019080519060200190611be4929190612f11565b509050506001600760006101000a81548160ff02191690831515021790555060405180606001604052806000808481526020019081526020016000206002018054600181600116156101000203166002900480601f016020809104026020016040519081016040528092919081815260200182805460018160011615610100020316600290048015611cb75780601f10611c8c57610100808354040283529160200191611cb7565b820191906000526020600020905b815481529060010190602001808311611c9a57829003601f168201915b5050505050815260200185815260200184815250600360008381526020019081526020016000206000820151816000019080519060200190611cfa929190612f11565b506020820151816001019080519060200190611d17929190612f11565b506040820151816002019080519060200190611d34929190612f11565b50905050611d4a565b8080600101915050611846565b50808060010191505061181c565b5060001515600760009054906101000a900460ff1615151415611f39576040518060e0016040528060045481526020018781526020018681526020018581526020018481526020016040518060400160405280600281526020017f4e6f0000000000000000000000000000000000000000000000000000000000008152508152602001838152506000806004548152602001908152602001600020600082015181600001556020820151816001019080519060200190611e19929190612f11565b506040820151816002019080519060200190611e36929190612f11565b506060820151816003019080519060200190611e53929190612f11565b506080820151816004019080519060200190611e70929190612f11565b5060a0820151816005019080519060200190611e8d929190612f11565b5060c0820151816006019080519060200190611eaa929190612f11565b509050506040518060600160405280868152602001838152602001838152506003600060045481526020019081526020016000206000820151816000019080519060200190611efa929190612f11565b506020820151816001019080519060200190611f17929190612f11565b506040820151816002019080519060200190611f34929190612f11565b509050505b505050505050565b60008090505b60045481116120de576000808281526020019081526020016000206002016040516020018082805460018160011615610100020316600290048015611fc35780601f10611fa1576101008083540402835291820191611fc3565b820191906000526020600020905b815481529060010190602001808311611faf575b505091505060405160208183030381529060405280519060200120866040516020018082805190602001908083835b602083106120155780518252602082019150602081019050602083039250611ff2565b6001836020036101000a0380198251168184511680821785525050505050509050019150506040516020818303038152906040528051906020012014156120d1576040518060400160405280600381526020017f596573000000000000000000000000000000000000000000000000000000000081525060008083815260200190815260200160002060050190805190602001906120b4929190612f91565b506001600760016101000a81548160ff0219169083151502179055505b8080600101915050611f47565b5060008090505b600554811161221e576002600082815260200190815260200160002060010160405160200180828054600181600116156101000203166002900480156121625780601f10612140576101008083540402835291820191612162565b820191906000526020600020905b81548152906001019060200180831161214e575b505091505060405160208183030381529060405280519060200120876040516020018082805190602001908083835b602083106121b45780518252602082019150602081019050602083039250612191565b6001836020036101000a038019825116818451168082178552505050505050905001915050604051602081830303815290604052805190602001201415612211576001600760026101000a81548160ff0219169083151502179055505b80806001019150506120e5565b5060011515600760019054906101000a900460ff161515148015612255575060011515600760029054906101000a900460ff161515145b15612372576006600081548092919060010191905055506040518060e001604052806006548152602001878152602001868152602001858152602001848152602001838152602001828152506001600060065481526020019081526020016000206000820151816000015560208201518160010190805190602001906122dc929190612f11565b5060408201518160020190805190602001906122f9929190612f11565b506060820151816003019080519060200190612316929190612f11565b506080820151816004019080519060200190612333929190612f11565b5060a0820151816005019080519060200190612350929190612f11565b5060c082015181600601908051906020019061236d929190612f11565b509050505b505050505050565b6003602052806000526040600020600091509050806000018054600181600116156101000203166002900480601f0160208091040260200160405190810160405280929190818152602001828054600181600116156101000203166002900480156124265780601f106123fb57610100808354040283529160200191612426565b820191906000526020600020905b81548152906001019060200180831161240957829003601f168201915b505050505090806001018054600181600116156101000203166002900480601f0160208091040260200160405190810160405280929190818152602001828054600181600116156101000203166002900480156124c45780601f10612499576101008083540402835291602001916124c4565b820191906000526020600020905b8154815290600101906020018083116124a757829003601f168201915b505050505090806002018054600181600116156101000203166002900480601f0160208091040260200160405190810160405280929190818152602001828054600181600116156101000203166002900480156125625780601f1061253757610100808354040283529160200191612562565b820191906000526020600020905b81548152906001019060200180831161254557829003601f168201915b5050505050905083565b60055481565b6000600760036101000a81548160ff0219169083151502179055506000600554141561266e576005600081548092919060010191905055506040518060a0016040528060055481526020018581526020018481526020018381526020018281525060026000600554815260200190815260200160002060008201518160000155602082015181600101908051906020019061260e929190612f11565b50604082015181600201908051906020019061262b929190612f11565b506060820151816003019080519060200190612648929190612f11565b506080820151816004019080519060200190612665929190612f11565b5090505061289d565b60008090505b60055481116127ad576002600082815260200190815260200160002060010160405160200180828054600181600116156101000203166002900480156126f15780601f106126cf5761010080835404028352918201916126f1565b820191906000526020600020905b8154815290600101906020018083116126dd575b505091505060405160208183030381529060405280519060200120856040516020018082805190602001908083835b602083106127435780518252602082019150602081019050602083039250612720565b6001836020036101000a0380198251168184511680821785525050505050509050019150506040516020818303038152906040528051906020012014156127a0576001600760036101000a81548160ff0219169083151502179055505b8080600101915050612674565b5060001515600760039054906101000a900460ff161515141561289c576005600081548092919060010191905055506040518060a00160405280600554815260200185815260200184815260200183815260200182815250600260006005548152602001908152602001600020600082015181600001556020820151816001019080519060200190612840929190612f11565b50604082015181600201908051906020019061285d929190612f11565b50606082015181600301908051906020019061287a929190612f11565b506080820151816004019080519060200190612897929190612f11565b509050505b5b50505050565b60065481565b6002602052806000526040600020600091509050806000015490806001018054600181600116156101000203166002900480601f01602080910402602001604051908101604052809291908181526020018280546001816001161561010002031660029004801561295b5780601f106129305761010080835404028352916020019161295b565b820191906000526020600020905b81548152906001019060200180831161293e57829003601f168201915b505050505090806002018054600181600116156101000203166002900480601f0160208091040260200160405190810160405280929190818152602001828054600181600116156101000203166002900480156129f95780601f106129ce576101008083540402835291602001916129f9565b820191906000526020600020905b8154815290600101906020018083116129dc57829003601f168201915b505050505090806003018054600181600116156101000203166002900480601f016020809104026020016040519081016040528092919081815260200182805460018160011615610100020316600290048015612a975780601f10612a6c57610100808354040283529160200191612a97565b820191906000526020600020905b815481529060010190602001808311612a7a57829003601f168201915b505050505090806004018054600181600116156101000203166002900480601f016020809104026020016040519081016040528092919081815260200182805460018160011615610100020316600290048015612b355780601f10612b0a57610100808354040283529160200191612b35565b820191906000526020600020905b815481529060010190602001808311612b1857829003601f168201915b5050505050905085565b6000602052806000526040600020600091509050806000015490806001018054600181600116156101000203166002900480601f016020809104026020016040519081016040528092919081815260200182805460018160011615610100020316600290048015612bf15780601f10612bc657610100808354040283529160200191612bf1565b820191906000526020600020905b815481529060010190602001808311612bd457829003601f168201915b505050505090806002018054600181600116156101000203166002900480601f016020809104026020016040519081016040528092919081815260200182805460018160011615610100020316600290048015612c8f5780601f10612c6457610100808354040283529160200191612c8f565b820191906000526020600020905b815481529060010190602001808311612c7257829003601f168201915b505050505090806003018054600181600116156101000203166002900480601f016020809104026020016040519081016040528092919081815260200182805460018160011615610100020316600290048015612d2d5780601f10612d0257610100808354040283529160200191612d2d565b820191906000526020600020905b815481529060010190602001808311612d1057829003601f168201915b505050505090806004018054600181600116156101000203166002900480601f016020809104026020016040519081016040528092919081815260200182805460018160011615610100020316600290048015612dcb5780601f10612da057610100808354040283529160200191612dcb565b820191906000526020600020905b815481529060010190602001808311612dae57829003601f168201915b505050505090806005018054600181600116156101000203166002900480601f016020809104026020016040519081016040528092919081815260200182805460018160011615610100020316600290048015612e695780601f10612e3e57610100808354040283529160200191612e69565b820191906000526020600020905b815481529060010190602001808311612e4c57829003601f168201915b505050505090806006018054600181600116156101000203166002900480601f016020809104026020016040519081016040528092919081815260200182805460018160011615610100020316600290048015612f075780601f10612edc57610100808354040283529160200191612f07565b820191906000526020600020905b815481529060010190602001808311612eea57829003601f168201915b5050505050905087565b828054600181600116156101000203166002900490600052602060002090601f016020900481019282601f10612f5257805160ff1916838001178555612f80565b82800160010185558215612f80579182015b82811115612f7f578251825591602001919060010190612f64565b5b509050612f8d9190613011565b5090565b828054600181600116156101000203166002900490600052602060002090601f016020900481019282601f10612fd257805160ff1916838001178555613000565b82800160010185558215613000579182015b82811115612fff578251825591602001919060010190612fe4565b5b50905061300d9190613011565b5090565b61303391905b8082111561302f576000816000905550600101613017565b5090565b9056fea165627a7a723058207045bd97b27e68af41d8bb35749f9387e12d9dec2203017f0cc3db45ba1b593f0029",
  "source": "pragma solidity ^0.5.0;\n\ncontract Medicine {\n  struct Medicines {\n        uint id;\n        string mfg;\n        string name;\n        string expdate;\n        string date;\n        string shipped;\n        string nos;\n  }\n  struct Shipcompany{\n        uint id;\n        string name;\n        string contact;\n        string tempcontrol;\n        string typicaldays;\n  }\n  struct Shipment{\n        uint id;\n        string companyname;\n        string medicinename;\n        string temp;\n        string senddate;\n        string expecteddeliverydate;\n        string nos;\n  }\n  struct Nos{\n    string name;\n    string units_left;\n    string units_given;\n  }\n  mapping(uint => Medicines) public medicines;\n  mapping(uint => Shipment) public shipments;\n  mapping(uint => Shipcompany) public shipcomps;\n  mapping(uint => Nos) public countnos;\n\n  uint public count;\n  uint public countcomp;\n  uint public countship;\n  bool flag; bool flag1; bool flag2; bool flag3=false;\n\n  function addMedicine(string memory _mfg,string memory _name, string memory _expdate,string memory _date,string memory _nos,string memory _nosgiven) public payable{\n        count ++;\n        for(uint i = 0;i<=count;i++){\n            flag = false;\n            for(uint j = 0;j<=count;j++){\n                if((keccak256(abi.encodePacked((_name))) == keccak256(abi.encodePacked((medicines[j].name))))){\n                medicines[count] = Medicines(count,_mfg, _name, medicines[j].expdate, medicines[j].date,'No',_nosgiven);\n                flag = true;\n                countnos[j] = Nos(medicines[j].name,_nos,_nosgiven);\n                    break;\n                }\n            }\n          }\n          if(flag==false){\n          medicines[count] = Medicines(count,_mfg, _name, _expdate, _date,'No',_nos);\n          countnos[count] = Nos(_name,_nos,_nos);\n          }\n      }\n  function addShipment(string memory _companyname, string memory _medicinename,string memory _temp,string memory _senddate,string memory _expecteddeliverydate,string memory _nos) public payable{\n    for(uint i = 0;i<=count;i++){\n      if((keccak256(abi.encodePacked((_medicinename))) == keccak256(abi.encodePacked((medicines[i].name))))){\n        medicines[i].shipped = 'Yes';\n        flag1 = true;\n      }\n    }\n    for(uint j = 0;j<=countcomp;j++){\n      if((keccak256(abi.encodePacked((_companyname))) == keccak256(abi.encodePacked((shipcomps[j].name))))){\n        flag2 = true;\n      }\n    }\n    if(flag1 == true && flag2 == true){\n      countship++;\n      shipments[countship] = Shipment(countship,_companyname,_medicinename,_temp,_senddate,_expecteddeliverydate,_nos);\n    }\n  }\n  function addShipcomp(string memory _name,string memory _contact, string memory _tempcontrol, string memory _typicaldays) public payable{\n    flag3 = false;\n    if(countcomp == 0)\n    {\n      countcomp++;\n      shipcomps[countcomp] = Shipcompany(countcomp,_name,_contact,_tempcontrol,_typicaldays);\n    }\n    else{\n      for(uint i = 0;i<=countcomp;i++)\n      {\n        if(keccak256(abi.encodePacked(_name)) == keccak256(abi.encodePacked(shipcomps[i].name))){\n          flag3 = true;\n        }\n      }\n      if(flag3 == false)\n        {\n          countcomp++;\n          shipcomps[countcomp] = Shipcompany(countcomp,_name,_contact,_tempcontrol,_typicaldays);\n        }\n    }\n  }\n  constructor() public{\n        addMedicine(\"Manufacturer1-M\",\"Medicine1-1\",\"2019-02-28\",\"2017-03-20\",\"50\",'50');\n        addMedicine(\"Manufacturer2-M\",\"Medicine2-2\",\"2020-05-04\",\"2016-02-20\",\"100\",'100');\n//        addMedicine(\"Manufacturer3-M\",\"Medicine1-1\",\"2019-02-25\",\"2017-03-19\",50);\n//        addMedicine(\"Manufacturer4-C\",\"Medicine1-1\",\"2019-02-25\",\"2017-03-19\",50);\n        addShipcomp(\"Company1\",\"+918140556655\",\"Yes\",\"5\");\n        addShipcomp(\"Company2\",\"+918140556666\",\"Yes\",\"6\");\n        addShipcomp(\"Company3\",\"+918142576550\",\"No\",\"5\");\n        //addShipment(\"Company3\",\"Medicine2-2\",\"No\",\"2019-09-16\",\"2019-09-21\",\"20\");\n        //addShipment(\"Company1\",\"Medicine1-1\",\"No\",\"2019-09-16\",\"2019-09-21\",\"20\");\n    }\n}",
  "sourcePath": "/home/vantstein/Documents/Sem 5/medicinetracking/contracts/Medicine.sol",
  "compiler": {
    "name": "solc",
    "version": "0.5.8+commit.23d335f2.Emscripten.clang"
  },
  "schemaVersion": "3.0.11",
  "updatedAt": "2019-11-21T10:59:30.080Z",
  "devdoc": {
    "methods": {}
  },
  "userdoc": {
    "methods": {}
  }
}