{
  "contractName": "Medicine",
  "abi": [
    {
      "constant": true,
      "inputs": [],
      "name": "count",
      "outputs": [
        {
          "name": "",
          "type": "uint256"
        }
      ],
      "payable": false,
      "stateMutability": "view",
      "type": "function"
    },
    {
      "constant": true,
      "inputs": [
        {
          "name": "",
          "type": "uint256"
        }
      ],
      "name": "medicines",
      "outputs": [
        {
          "name": "id",
          "type": "uint256"
        },
        {
          "name": "mfg",
          "type": "string"
        },
        {
          "name": "name",
          "type": "string"
        },
        {
          "name": "expdate",
          "type": "string"
        },
        {
          "name": "date",
          "type": "string"
        }
      ],
      "payable": false,
      "stateMutability": "view",
      "type": "function"
    },
    {
      "inputs": [],
      "payable": false,
      "stateMutability": "nonpayable",
      "type": "constructor"
    },
    {
      "constant": false,
      "inputs": [
        {
          "name": "_mfg",
          "type": "string"
        },
        {
          "name": "_name",
          "type": "string"
        },
        {
          "name": "_expdate",
          "type": "string"
        },
        {
          "name": "_date",
          "type": "string"
        }
      ],
      "name": "addMedicine",
      "outputs": [],
      "payable": false,
      "stateMutability": "nonpayable",
      "type": "function"
    }
  ],
  "bytecode": "0x60806040523480156200001157600080fd5b50620000fa6040518060400160405280601081526020017f4d616e75666163747572657220312d4d000000000000000000000000000000008152506040518060400160405280600c81526020017f4d65646963696e6520312d3100000000000000000000000000000000000000008152506040518060400160405280600a81526020017f323031392d30322d3238000000000000000000000000000000000000000000008152506040518060400160405280600a81526020017f323031372d30332d323000000000000000000000000000000000000000000000815250620003b860201b60201c565b620001e26040518060400160405280601081526020017f4d616e75666163747572657220322d4d000000000000000000000000000000008152506040518060400160405280600c81526020017f4d65646963696e6520322d3200000000000000000000000000000000000000008152506040518060400160405280600a81526020017f323032302d30352d3034000000000000000000000000000000000000000000008152506040518060400160405280600a81526020017f323031362d30322d323000000000000000000000000000000000000000000000815250620003b860201b60201c565b620002ca6040518060400160405280601081526020017f4d616e75666163747572657220332d4d000000000000000000000000000000008152506040518060400160405280600c81526020017f4d65646963696e6520312d3100000000000000000000000000000000000000008152506040518060400160405280600a81526020017f323031392d30322d3235000000000000000000000000000000000000000000008152506040518060400160405280600a81526020017f323031372d30332d313900000000000000000000000000000000000000000000815250620003b860201b60201c565b620003b26040518060400160405280601081526020017f4d616e75666163747572657220342d43000000000000000000000000000000008152506040518060400160405280600c81526020017f4d65646963696e6520312d3100000000000000000000000000000000000000008152506040518060400160405280600a81526020017f323031392d30322d3235000000000000000000000000000000000000000000008152506040518060400160405280600a81526020017f323031372d30332d313900000000000000000000000000000000000000000000815250620003b860201b60201c565b62000912565b60016000815480929190600101919050555060008090505b600154811162000778576000600260006101000a81548160ff02191690831515021790555060008090505b6001548111620007695760008082815260200190815260200160002060020160405160200180828054600181600116156101000203166002900480156200047c5780601f10620004595761010080835404028352918201916200047c565b820191906000526020600020905b81548152906001019060200180831162000467575b505091505060405160208183030381529060405280519060200120856040516020018082805190602001908083835b60208310620004d05780518252602082019150602081019050602083039250620004ab565b6001836020036101000a0380198251168184511680821785525050505050509050019150506040516020818303038152906040528051906020012014156200075b576040518060a0016040528060015481526020018781526020018681526020016000808481526020019081526020016000206003018054600181600116156101000203166002900480601f016020809104026020016040519081016040528092919081815260200182805460018160011615610100020316600290048015620005de5780601f10620005b257610100808354040283529160200191620005de565b820191906000526020600020905b815481529060010190602001808311620005c057829003601f168201915b505050505081526020016000808481526020019081526020016000206004018054600181600116156101000203166002900480601f016020809104026020016040519081016040528092919081815260200182805460018160011615610100020316600290048015620006955780601f10620006695761010080835404028352916020019162000695565b820191906000526020600020905b8154815290600101906020018083116200067757829003601f168201915b50505050508152506000806001548152602001908152602001600020600082015181600001556020820151816001019080519060200190620006d992919062000863565b506040820151816002019080519060200190620006f892919062000863565b5060608201518160030190805190602001906200071792919062000863565b5060808201518160040190805190602001906200073692919062000863565b509050506001600260006101000a81548160ff02191690831515021790555062000769565b8080600101915050620003fb565b508080600101915050620003d0565b5060001515600260009054906101000a900460ff16151514156200085d576040518060a001604052806001548152602001858152602001848152602001838152602001828152506000806001548152602001908152602001600020600082015181600001556020820151816001019080519060200190620007fb92919062000863565b5060408201518160020190805190602001906200081a92919062000863565b5060608201518160030190805190602001906200083992919062000863565b5060808201518160040190805190602001906200085892919062000863565b509050505b50505050565b828054600181600116156101000203166002900490600052602060002090601f016020900481019282601f10620008a657805160ff1916838001178555620008d7565b82800160010185558215620008d7579182015b82811115620008d6578251825591602001919060010190620008b9565b5b509050620008e69190620008ea565b5090565b6200090f91905b808211156200090b576000816000905550600101620008f1565b5090565b90565b610cc980620009226000396000f3fe608060405234801561001057600080fd5b50600436106100415760003560e01c8063020d07a41461004657806306661abd146102c6578063c85e766d146102e4575b600080fd5b6102c46004803603608081101561005c57600080fd5b810190808035906020019064010000000081111561007957600080fd5b82018360208201111561008b57600080fd5b803590602001918460018302840111640100000000831117156100ad57600080fd5b91908080601f016020809104026020016040519081016040528093929190818152602001838380828437600081840152601f19601f8201169050808301925050505050505091929192908035906020019064010000000081111561011057600080fd5b82018360208201111561012257600080fd5b8035906020019184600183028401116401000000008311171561014457600080fd5b91908080601f016020809104026020016040519081016040528093929190818152602001838380828437600081840152601f19601f820116905080830192505050505050509192919290803590602001906401000000008111156101a757600080fd5b8201836020820111156101b957600080fd5b803590602001918460018302840111640100000000831117156101db57600080fd5b91908080601f016020809104026020016040519081016040528093929190818152602001838380828437600081840152601f19601f8201169050808301925050505050505091929192908035906020019064010000000081111561023e57600080fd5b82018360208201111561025057600080fd5b8035906020019184600183028401116401000000008311171561027257600080fd5b91908080601f016020809104026020016040519081016040528093929190818152602001838380828437600081840152601f19601f8201169050808301925050505050505091929192905050506104d6565b005b6102ce61095c565b6040518082815260200191505060405180910390f35b610310600480360360208110156102fa57600080fd5b8101908080359060200190929190505050610962565b6040518086815260200180602001806020018060200180602001858103855289818151815260200191508051906020019080838360005b83811015610362578082015181840152602081019050610347565b50505050905090810190601f16801561038f5780820380516001836020036101000a031916815260200191505b50858103845288818151815260200191508051906020019080838360005b838110156103c85780820151818401526020810190506103ad565b50505050905090810190601f1680156103f55780820380516001836020036101000a031916815260200191505b50858103835287818151815260200191508051906020019080838360005b8381101561042e578082015181840152602081019050610413565b50505050905090810190601f16801561045b5780820380516001836020036101000a031916815260200191505b50858103825286818151815260200191508051906020019080838360005b83811015610494578082015181840152602081019050610479565b50505050905090810190601f1680156104c15780820380516001836020036101000a031916815260200191505b50995050505050505050505060405180910390f35b60016000815480929190600101919050555060008090505b600154811161087a576000600260006101000a81548160ff02191690831515021790555060008090505b600154811161086c5760008082815260200190815260200160002060020160405160200180828054600181600116156101000203166002900480156105945780601f10610572576101008083540402835291820191610594565b820191906000526020600020905b815481529060010190602001808311610580575b505091505060405160208183030381529060405280519060200120856040516020018082805190602001908083835b602083106105e657805182526020820191506020810190506020830392506105c3565b6001836020036101000a03801982511681845116808217855250505050505090500191505060405160208183030381529060405280519060200120141561085f576040518060a0016040528060015481526020018781526020018681526020016000808481526020019081526020016000206003018054600181600116156101000203166002900480601f0160208091040260200160405190810160405280929190818152602001828054600181600116156101000203166002900480156106ef5780601f106106c4576101008083540402835291602001916106ef565b820191906000526020600020905b8154815290600101906020018083116106d257829003601f168201915b505050505081526020016000808481526020019081526020016000206004018054600181600116156101000203166002900480601f0160208091040260200160405190810160405280929190818152602001828054600181600116156101000203166002900480156107a25780601f10610777576101008083540402835291602001916107a2565b820191906000526020600020905b81548152906001019060200180831161078557829003601f168201915b505050505081525060008060015481526020019081526020016000206000820151816000015560208201518160010190805190602001906107e4929190610bf8565b506040820151816002019080519060200190610801929190610bf8565b50606082015181600301908051906020019061081e929190610bf8565b50608082015181600401908051906020019061083b929190610bf8565b509050506001600260006101000a81548160ff02191690831515021790555061086c565b8080600101915050610518565b5080806001019150506104ee565b5060001515600260009054906101000a900460ff1615151415610956576040518060a0016040528060015481526020018581526020018481526020018381526020018281525060008060015481526020019081526020016000206000820151816000015560208201518160010190805190602001906108fa929190610bf8565b506040820151816002019080519060200190610917929190610bf8565b506060820151816003019080519060200190610934929190610bf8565b506080820151816004019080519060200190610951929190610bf8565b509050505b50505050565b60015481565b6000602052806000526040600020600091509050806000015490806001018054600181600116156101000203166002900480601f016020809104026020016040519081016040528092919081815260200182805460018160011615610100020316600290048015610a145780601f106109e957610100808354040283529160200191610a14565b820191906000526020600020905b8154815290600101906020018083116109f757829003601f168201915b505050505090806002018054600181600116156101000203166002900480601f016020809104026020016040519081016040528092919081815260200182805460018160011615610100020316600290048015610ab25780601f10610a8757610100808354040283529160200191610ab2565b820191906000526020600020905b815481529060010190602001808311610a9557829003601f168201915b505050505090806003018054600181600116156101000203166002900480601f016020809104026020016040519081016040528092919081815260200182805460018160011615610100020316600290048015610b505780601f10610b2557610100808354040283529160200191610b50565b820191906000526020600020905b815481529060010190602001808311610b3357829003601f168201915b505050505090806004018054600181600116156101000203166002900480601f016020809104026020016040519081016040528092919081815260200182805460018160011615610100020316600290048015610bee5780601f10610bc357610100808354040283529160200191610bee565b820191906000526020600020905b815481529060010190602001808311610bd157829003601f168201915b5050505050905085565b828054600181600116156101000203166002900490600052602060002090601f016020900481019282601f10610c3957805160ff1916838001178555610c67565b82800160010185558215610c67579182015b82811115610c66578251825591602001919060010190610c4b565b5b509050610c749190610c78565b5090565b610c9a91905b80821115610c96576000816000905550600101610c7e565b5090565b9056fea165627a7a72305820aa4ea721502266085eff05407f757f0f6b91cb855f65ea93ba74ff322aa8d9220029",
  "source": "pragma solidity ^0.5.0;\n\n\ncontract Medicine {\n  //string h; string date; uint count = 0;\n  struct Medicines {\n        uint id;\n        string mfg;\n        string name;\n        string expdate;\n        string date;\n  }\n  mapping(uint => Medicines) public medicines;\n  uint public count;\n  bool flag;\n  function addMedicine(string memory _mfg,string memory _name, string memory _expdate,string memory _date) public {\n        count ++;\n        for(uint i = 0;i<=count;i++){\n            flag = false;\n            for(uint j = 0;j<=count;j++){\n                if((keccak256(abi.encodePacked((_name))) == keccak256(abi.encodePacked((medicines[j].name))))){\n                medicines[count] = Medicines(count,_mfg, _name, medicines[j].expdate, medicines[j].date);\n                flag = true;\n                    break;\n                }\n            }\n          }\n          if(flag==false)\n          medicines[count] = Medicines(count,_mfg, _name, _expdate, _date);\n      }\n  constructor () public {\n        addMedicine(\"Manufacturer 1-M\",\"Medicine 1-1\",\"2019-02-28\",\"2017-03-20\");\n        addMedicine(\"Manufacturer 2-M\",\"Medicine 2-2\",\"2020-05-04\",\"2016-02-20\");\n        addMedicine(\"Manufacturer 3-M\",\"Medicine 1-1\",\"2019-02-25\",\"2017-03-19\");\n        addMedicine(\"Manufacturer 4-C\",\"Medicine 1-1\",\"2019-02-25\",\"2017-03-19\");\n\n\n    }\n  //function getname(uint i) public view returns(string memory){\n  //  return medicines[i].name;\n  //}\n  //function getdate(uint i) public view returns(string memory){\n  //  return medicines[i].date;\n  //}\n  //function getexpdate(uint i) public view returns(string memory){\n  //  return medicines[i].expdate;\n  //}\n  //function search(string memory _name) public view returns(bool){\n  //  for(uint i = 0; i <= count; i++)\n  //  {\n  //    if((keccak256(abi.encodePacked((medicines[i].name))) == keccak256(abi.encodePacked((_name))))){\n  //          return true;\n  //    }\n  // }\n  //}\n}\n",
  "sourcePath": "/home/vantstein/Documents/Sem 5/medicinetracking/contracts/Medicine.sol",
  "compiler": {
    "name": "solc",
    "version": "0.5.8+commit.23d335f2.Emscripten.clang"
  },
  "schemaVersion": "3.0.11",
  "updatedAt": "2019-09-15T09:52:14.102Z",
  "devdoc": {
    "methods": {}
  },
  "userdoc": {
    "methods": {}
  }
}