{
  "contractName": "Medicine",
  "abi": [
    {
      "constant": true,
      "inputs": [],
      "name": "count",
      "outputs": [
        {
          "name": "",
          "type": "uint256"
        }
      ],
      "payable": false,
      "stateMutability": "view",
      "type": "function"
    },
    {
      "constant": true,
      "inputs": [
        {
          "name": "",
          "type": "uint256"
        }
      ],
      "name": "shipments",
      "outputs": [
        {
          "name": "id",
          "type": "uint256"
        },
        {
          "name": "companyname",
          "type": "string"
        },
        {
          "name": "medicinename",
          "type": "string"
        },
        {
          "name": "temp",
          "type": "string"
        },
        {
          "name": "senddate",
          "type": "string"
        },
        {
          "name": "expecteddeliverydate",
          "type": "string"
        },
        {
          "name": "nos",
          "type": "string"
        }
      ],
      "payable": false,
      "stateMutability": "view",
      "type": "function"
    },
    {
      "constant": true,
      "inputs": [
        {
          "name": "",
          "type": "uint256"
        }
      ],
      "name": "countnos",
      "outputs": [
        {
          "name": "name",
          "type": "string"
        },
        {
          "name": "units_left",
          "type": "string"
        },
        {
          "name": "units_given",
          "type": "string"
        }
      ],
      "payable": false,
      "stateMutability": "view",
      "type": "function"
    },
    {
      "constant": true,
      "inputs": [],
      "name": "countcomp",
      "outputs": [
        {
          "name": "",
          "type": "uint256"
        }
      ],
      "payable": false,
      "stateMutability": "view",
      "type": "function"
    },
    {
      "constant": true,
      "inputs": [],
      "name": "countship",
      "outputs": [
        {
          "name": "",
          "type": "uint256"
        }
      ],
      "payable": false,
      "stateMutability": "view",
      "type": "function"
    },
    {
      "constant": true,
      "inputs": [
        {
          "name": "",
          "type": "uint256"
        }
      ],
      "name": "shipcomps",
      "outputs": [
        {
          "name": "id",
          "type": "uint256"
        },
        {
          "name": "name",
          "type": "string"
        },
        {
          "name": "contact",
          "type": "string"
        },
        {
          "name": "tempcontrol",
          "type": "string"
        },
        {
          "name": "typicaldays",
          "type": "string"
        }
      ],
      "payable": false,
      "stateMutability": "view",
      "type": "function"
    },
    {
      "constant": true,
      "inputs": [
        {
          "name": "",
          "type": "uint256"
        }
      ],
      "name": "medicines",
      "outputs": [
        {
          "name": "id",
          "type": "uint256"
        },
        {
          "name": "mfg",
          "type": "string"
        },
        {
          "name": "name",
          "type": "string"
        },
        {
          "name": "expdate",
          "type": "string"
        },
        {
          "name": "date",
          "type": "string"
        },
        {
          "name": "shipped",
          "type": "string"
        },
        {
          "name": "nos",
          "type": "string"
        },
        {
          "name": "description",
          "type": "string"
        }
      ],
      "payable": false,
      "stateMutability": "view",
      "type": "function"
    },
    {
      "inputs": [],
      "payable": false,
      "stateMutability": "nonpayable",
      "type": "constructor"
    },
    {
      "constant": false,
      "inputs": [
        {
          "name": "_mfg",
          "type": "string"
        },
        {
          "name": "_name",
          "type": "string"
        },
        {
          "name": "_expdate",
          "type": "string"
        },
        {
          "name": "_date",
          "type": "string"
        },
        {
          "name": "_nos",
          "type": "string"
        },
        {
          "name": "_nosgiven",
          "type": "string"
        },
        {
          "name": "_description",
          "type": "string"
        }
      ],
      "name": "addMedicine",
      "outputs": [],
      "payable": false,
      "stateMutability": "nonpayable",
      "type": "function"
    },
    {
      "constant": false,
      "inputs": [
        {
          "name": "_companyname",
          "type": "string"
        },
        {
          "name": "_medicinename",
          "type": "string"
        },
        {
          "name": "_temp",
          "type": "string"
        },
        {
          "name": "_senddate",
          "type": "string"
        },
        {
          "name": "_expecteddeliverydate",
          "type": "string"
        },
        {
          "name": "_nos",
          "type": "string"
        }
      ],
      "name": "addShipment",
      "outputs": [],
      "payable": false,
      "stateMutability": "nonpayable",
      "type": "function"
    },
    {
      "constant": false,
      "inputs": [
        {
          "name": "_name",
          "type": "string"
        },
        {
          "name": "_contact",
          "type": "string"
        },
        {
          "name": "_tempcontrol",
          "type": "string"
        },
        {
          "name": "_typicaldays",
          "type": "string"
        }
      ],
      "name": "addShipcomp",
      "outputs": [],
      "payable": false,
      "stateMutability": "nonpayable",
      "type": "function"
    }
  ],
  "bytecode": "0x60806040526000600760036101000a81548160ff0219169083151502179055503480156200002c57600080fd5b506200019b6040518060400160405280600f81526020017f4d616e756661637475726572312d4d00000000000000000000000000000000008152506040518060400160405280600b81526020017f4d65646963696e65312d310000000000000000000000000000000000000000008152506040518060400160405280600a81526020017f323031392d30322d3238000000000000000000000000000000000000000000008152506040518060400160405280600a81526020017f323031372d30332d3230000000000000000000000000000000000000000000008152506040518060400160405280600281526020017f35300000000000000000000000000000000000000000000000000000000000008152506040518060400160405280600281526020017f35300000000000000000000000000000000000000000000000000000000000008152506040518060600160405280602b815260200162004b22602b91396200086f60201b60201c565b620003096040518060400160405280600f81526020017f4d616e756661637475726572322d4d00000000000000000000000000000000008152506040518060400160405280600b81526020017f4d65646963696e65322d320000000000000000000000000000000000000000008152506040518060400160405280600a81526020017f323032302d30352d3034000000000000000000000000000000000000000000008152506040518060400160405280600a81526020017f323031362d30322d3230000000000000000000000000000000000000000000008152506040518060400160405280600381526020017f31303000000000000000000000000000000000000000000000000000000000008152506040518060400160405280600381526020017f31303000000000000000000000000000000000000000000000000000000000008152506040518060600160405280602b815260200162004b4d602b91396200086f60201b60201c565b620003f16040518060400160405280600881526020017f436f6d70616e79310000000000000000000000000000000000000000000000008152506040518060400160405280600d81526020017f2b393138313430353536363535000000000000000000000000000000000000008152506040518060400160405280600381526020017f59657300000000000000000000000000000000000000000000000000000000008152506040518060400160405280600181526020017f35000000000000000000000000000000000000000000000000000000000000008152506200103660201b60201c565b620004d96040518060400160405280600881526020017f436f6d70616e79320000000000000000000000000000000000000000000000008152506040518060400160405280600d81526020017f2b393138313430353536363636000000000000000000000000000000000000008152506040518060400160405280600381526020017f59657300000000000000000000000000000000000000000000000000000000008152506040518060400160405280600181526020017f36000000000000000000000000000000000000000000000000000000000000008152506200103660201b60201c565b620005c16040518060400160405280600881526020017f436f6d70616e79330000000000000000000000000000000000000000000000008152506040518060400160405280600d81526020017f2b393138313432353736353530000000000000000000000000000000000000008152506040518060400160405280600281526020017f4e6f0000000000000000000000000000000000000000000000000000000000008152506040518060400160405280600181526020017f35000000000000000000000000000000000000000000000000000000000000008152506200103660201b60201c565b620007156040518060400160405280600881526020017f436f6d70616e79330000000000000000000000000000000000000000000000008152506040518060400160405280600b81526020017f4d65646963696e65322d320000000000000000000000000000000000000000008152506040518060400160405280600281526020017f4e6f0000000000000000000000000000000000000000000000000000000000008152506040518060400160405280600a81526020017f323031392d30392d3136000000000000000000000000000000000000000000008152506040518060400160405280600a81526020017f323031392d30392d3231000000000000000000000000000000000000000000008152506040518060400160405280600281526020017f32300000000000000000000000000000000000000000000000000000000000008152506200138360201b60201c565b620008696040518060400160405280600881526020017f436f6d70616e79310000000000000000000000000000000000000000000000008152506040518060400160405280600b81526020017f4d65646963696e65312d310000000000000000000000000000000000000000008152506040518060400160405280600281526020017f4e6f0000000000000000000000000000000000000000000000000000000000008152506040518060400160405280600a81526020017f323031392d30392d3136000000000000000000000000000000000000000000008152506040518060400160405280600a81526020017f323031392d30392d3231000000000000000000000000000000000000000000008152506040518060400160405280600281526020017f32300000000000000000000000000000000000000000000000000000000000008152506200138360201b60201c565b62001914565b60046000815480929190600101919050555060008090505b600454811162000e13576000600760006101000a81548160ff02191690831515021790555060008090505b600454811162000e04576000808281526020019081526020016000206002016040516020018082805460018160011615610100020316600290048015620009335780601f106200091057610100808354040283529182019162000933565b820191906000526020600020905b8154815290600101906020018083116200091e575b505091505060405160208183030381529060405280519060200120886040516020018082805190602001908083835b6020831062000987578051825260208201915060208101905060208303925062000962565b6001836020036101000a03801982511681845116808217855250505050505090500191505060405160208183030381529060405280519060200120141562000df65760405180610100016040528060045481526020018a81526020018981526020016000808481526020019081526020016000206003018054600181600116156101000203166002900480601f01602080910402602001604051908101604052809291908181526020018280546001816001161561010002031660029004801562000a965780601f1062000a6a5761010080835404028352916020019162000a96565b820191906000526020600020905b81548152906001019060200180831162000a7857829003601f168201915b505050505081526020016000808481526020019081526020016000206004018054600181600116156101000203166002900480601f01602080910402602001604051908101604052809291908181526020018280546001816001161561010002031660029004801562000b4d5780601f1062000b215761010080835404028352916020019162000b4d565b820191906000526020600020905b81548152906001019060200180831162000b2f57829003601f168201915b505050505081526020016040518060400160405280600281526020017f4e6f000000000000000000000000000000000000000000000000000000000000815250815260200185815260200184815250600080600454815260200190815260200160002060008201518160000155602082015181600101908051906020019062000bd8929190620017de565b50604082015181600201908051906020019062000bf7929190620017de565b50606082015181600301908051906020019062000c16929190620017de565b50608082015181600401908051906020019062000c35929190620017de565b5060a082015181600501908051906020019062000c54929190620017de565b5060c082015181600601908051906020019062000c73929190620017de565b5060e082015181600701908051906020019062000c92929190620017de565b509050506001600760006101000a81548160ff02191690831515021790555060405180606001604052806000808481526020019081526020016000206002018054600181600116156101000203166002900480601f01602080910402602001604051908101604052809291908181526020018280546001816001161561010002031660029004801562000d695780601f1062000d3d5761010080835404028352916020019162000d69565b820191906000526020600020905b81548152906001019060200180831162000d4b57829003601f168201915b505050505081526020018681526020018581525060036000838152602001908152602001600020600082015181600001908051906020019062000dae929190620017de565b50602082015181600101908051906020019062000dcd929190620017de565b50604082015181600201908051906020019062000dec929190620017de565b5090505062000e04565b8080600101915050620008b2565b50808060010191505062000887565b5060001515600760009054906101000a900460ff16151514156200102d5760405180610100016040528060045481526020018881526020018781526020018681526020018581526020016040518060400160405280600281526020017f4e6f000000000000000000000000000000000000000000000000000000000000815250815260200184815260200182815250600080600454815260200190815260200160002060008201518160000155602082015181600101908051906020019062000ede929190620017de565b50604082015181600201908051906020019062000efd929190620017de565b50606082015181600301908051906020019062000f1c929190620017de565b50608082015181600401908051906020019062000f3b929190620017de565b5060a082015181600501908051906020019062000f5a929190620017de565b5060c082015181600601908051906020019062000f79929190620017de565b5060e082015181600701908051906020019062000f98929190620017de565b50905050604051806060016040528087815260200184815260200184815250600360006004548152602001908152602001600020600082015181600001908051906020019062000fea929190620017de565b50602082015181600101908051906020019062001009929190620017de565b50604082015181600201908051906020019062001028929190620017de565b509050505b50505050505050565b6000600760036101000a81548160ff021916908315150217905550600060055414156200113c576005600081548092919060010191905055506040518060a00160405280600554815260200185815260200184815260200183815260200182815250600260006005548152602001908152602001600020600082015181600001556020820151816001019080519060200190620010d5929190620017de565b506040820151816002019080519060200190620010f4929190620017de565b50606082015181600301908051906020019062001113929190620017de565b50608082015181600401908051906020019062001132929190620017de565b509050506200137d565b60008090505b60055481116200128457600260008281526020019081526020016000206001016040516020018082805460018160011615610100020316600290048015620011c45780601f10620011a1576101008083540402835291820191620011c4565b820191906000526020600020905b815481529060010190602001808311620011af575b505091505060405160208183030381529060405280519060200120856040516020018082805190602001908083835b60208310620012185780518252602082019150602081019050602083039250620011f3565b6001836020036101000a03801982511681845116808217855250505050505090500191505060405160208183030381529060405280519060200120141562001276576001600760036101000a81548160ff0219169083151502179055505b808060010191505062001142565b5060001515600760039054906101000a900460ff16151514156200137c576005600081548092919060010191905055506040518060a001604052806005548152602001858152602001848152602001838152602001828152506002600060055481526020019081526020016000206000820151816000015560208201518160010190805190602001906200131a929190620017de565b50604082015181600201908051906020019062001339929190620017de565b50606082015181600301908051906020019062001358929190620017de565b50608082015181600401908051906020019062001377929190620017de565b509050505b5b50505050565b60008090505b60045481116200152b5760008082815260200190815260200160002060020160405160200180828054600181600116156101000203166002900480156200140a5780601f10620013e75761010080835404028352918201916200140a565b820191906000526020600020905b815481529060010190602001808311620013f5575b505091505060405160208183030381529060405280519060200120866040516020018082805190602001908083835b602083106200145e578051825260208201915060208101905060208303925062001439565b6001836020036101000a0380198251168184511680821785525050505050509050019150506040516020818303038152906040528051906020012014156200151d576040518060400160405280600381526020017f596573000000000000000000000000000000000000000000000000000000000081525060008083815260200190815260200160002060050190805190602001906200150092919062001865565b506001600760016101000a81548160ff0219169083151502179055505b808060010191505062001389565b5060008090505b60055481116200167457600260008281526020019081526020016000206001016040516020018082805460018160011615610100020316600290048015620015b45780601f1062001591576101008083540402835291820191620015b4565b820191906000526020600020905b8154815290600101906020018083116200159f575b505091505060405160208183030381529060405280519060200120876040516020018082805190602001908083835b60208310620016085780518252602082019150602081019050602083039250620015e3565b6001836020036101000a03801982511681845116808217855250505050505090500191505060405160208183030381529060405280519060200120141562001666576001600760026101000a81548160ff0219169083151502179055505b808060010191505062001532565b5060011515600760019054906101000a900460ff161515148015620016ac575060011515600760029054906101000a900460ff161515145b15620017d6576006600081548092919060010191905055506040518060e0016040528060065481526020018781526020018681526020018581526020018481526020018381526020018281525060016000600654815260200190815260200160002060008201518160000155602082015181600101908051906020019062001736929190620017de565b50604082015181600201908051906020019062001755929190620017de565b50606082015181600301908051906020019062001774929190620017de565b50608082015181600401908051906020019062001793929190620017de565b5060a0820151816005019080519060200190620017b2929190620017de565b5060c0820151816006019080519060200190620017d1929190620017de565b509050505b505050505050565b828054600181600116156101000203166002900490600052602060002090601f016020900481019282601f106200182157805160ff191683800117855562001852565b8280016001018555821562001852579182015b828111156200185157825182559160200191906001019062001834565b5b509050620018619190620018ec565b5090565b828054600181600116156101000203166002900490600052602060002090601f016020900481019282601f10620018a857805160ff1916838001178555620018d9565b82800160010185558215620018d9579182015b82811115620018d8578251825591602001919060010190620018bb565b5b509050620018e89190620018ec565b5090565b6200191191905b808211156200190d576000816000905550600101620018f3565b5090565b90565b6131fe80620019246000396000f3fe608060405234801561001057600080fd5b506004361061009e5760003560e01c806372f006b31161006657806372f006b3146108d65780639f021bec14610b56578063a820aafd14610b74578063bed58edb14610fb9578063c85e766d146111ab5761009e565b806306661abd146100a35780632ac08a93146100c1578063342184731461038b578063526554501461073957806360d60d2e146108b8575b600080fd5b6100ab6114e1565b6040518082815260200191505060405180910390f35b6100ed600480360360208110156100d757600080fd5b81019080803590602001909291905050506114e7565b6040518088815260200180602001806020018060200180602001806020018060200187810387528d818151815260200191508051906020019080838360005b8381101561014757808201518184015260208101905061012c565b50505050905090810190601f1680156101745780820380516001836020036101000a031916815260200191505b5087810386528c818151815260200191508051906020019080838360005b838110156101ad578082015181840152602081019050610192565b50505050905090810190601f1680156101da5780820380516001836020036101000a031916815260200191505b5087810385528b818151815260200191508051906020019080838360005b838110156102135780820151818401526020810190506101f8565b50505050905090810190601f1680156102405780820380516001836020036101000a031916815260200191505b5087810384528a818151815260200191508051906020019080838360005b8381101561027957808201518184015260208101905061025e565b50505050905090810190601f1680156102a65780820380516001836020036101000a031916815260200191505b50878103835289818151815260200191508051906020019080838360005b838110156102df5780820151818401526020810190506102c4565b50505050905090810190601f16801561030c5780820380516001836020036101000a031916815260200191505b50878103825288818151815260200191508051906020019080838360005b8381101561034557808201518184015260208101905061032a565b50505050905090810190601f1680156103725780820380516001836020036101000a031916815260200191505b509d505050505050505050505050505060405180910390f35b610737600480360360c08110156103a157600080fd5b81019080803590602001906401000000008111156103be57600080fd5b8201836020820111156103d057600080fd5b803590602001918460018302840111640100000000831117156103f257600080fd5b91908080601f016020809104026020016040519081016040528093929190818152602001838380828437600081840152601f19601f8201169050808301925050505050505091929192908035906020019064010000000081111561045557600080fd5b82018360208201111561046757600080fd5b8035906020019184600183028401116401000000008311171561048957600080fd5b91908080601f016020809104026020016040519081016040528093929190818152602001838380828437600081840152601f19601f820116905080830192505050505050509192919290803590602001906401000000008111156104ec57600080fd5b8201836020820111156104fe57600080fd5b8035906020019184600183028401116401000000008311171561052057600080fd5b91908080601f016020809104026020016040519081016040528093929190818152602001838380828437600081840152601f19601f8201169050808301925050505050505091929192908035906020019064010000000081111561058357600080fd5b82018360208201111561059557600080fd5b803590602001918460018302840111640100000000831117156105b757600080fd5b91908080601f016020809104026020016040519081016040528093929190818152602001838380828437600081840152601f19601f8201169050808301925050505050505091929192908035906020019064010000000081111561061a57600080fd5b82018360208201111561062c57600080fd5b8035906020019184600183028401116401000000008311171561064e57600080fd5b91908080601f016020809104026020016040519081016040528093929190818152602001838380828437600081840152601f19601f820116905080830192505050505050509192919290803590602001906401000000008111156106b157600080fd5b8201836020820111156106c357600080fd5b803590602001918460018302840111640100000000831117156106e557600080fd5b91908080601f016020809104026020016040519081016040528093929190818152602001838380828437600081840152601f19601f8201169050808301925050505050505091929192905050506118b9565b005b6107656004803603602081101561074f57600080fd5b8101908080359060200190929190505050611cf2565b60405180806020018060200180602001848103845287818151815260200191508051906020019080838360005b838110156107ad578082015181840152602081019050610792565b50505050905090810190601f1680156107da5780820380516001836020036101000a031916815260200191505b50848103835286818151815260200191508051906020019080838360005b838110156108135780820151818401526020810190506107f8565b50505050905090810190601f1680156108405780820380516001836020036101000a031916815260200191505b50848103825285818151815260200191508051906020019080838360005b8381101561087957808201518184015260208101905061085e565b50505050905090810190601f1680156108a65780820380516001836020036101000a031916815260200191505b50965050505050505060405180910390f35b6108c0611ee4565b6040518082815260200191505060405180910390f35b610b54600480360360808110156108ec57600080fd5b810190808035906020019064010000000081111561090957600080fd5b82018360208201111561091b57600080fd5b8035906020019184600183028401116401000000008311171561093d57600080fd5b91908080601f016020809104026020016040519081016040528093929190818152602001838380828437600081840152601f19601f820116905080830192505050505050509192919290803590602001906401000000008111156109a057600080fd5b8201836020820111156109b257600080fd5b803590602001918460018302840111640100000000831117156109d457600080fd5b91908080601f016020809104026020016040519081016040528093929190818152602001838380828437600081840152601f19601f82011690508083019250505050505050919291929080359060200190640100000000811115610a3757600080fd5b820183602082011115610a4957600080fd5b80359060200191846001830284011164010000000083111715610a6b57600080fd5b91908080601f016020809104026020016040519081016040528093929190818152602001838380828437600081840152601f19601f82011690508083019250505050505050919291929080359060200190640100000000811115610ace57600080fd5b820183602082011115610ae057600080fd5b80359060200191846001830284011164010000000083111715610b0257600080fd5b91908080601f016020809104026020016040519081016040528093929190818152602001838380828437600081840152601f19601f820116905080830192505050505050509192919290505050611eea565b005b610b5e61221b565b6040518082815260200191505060405180910390f35b610fb7600480360360e0811015610b8a57600080fd5b8101908080359060200190640100000000811115610ba757600080fd5b820183602082011115610bb957600080fd5b80359060200191846001830284011164010000000083111715610bdb57600080fd5b91908080601f016020809104026020016040519081016040528093929190818152602001838380828437600081840152601f19601f82011690508083019250505050505050919291929080359060200190640100000000811115610c3e57600080fd5b820183602082011115610c5057600080fd5b80359060200191846001830284011164010000000083111715610c7257600080fd5b91908080601f016020809104026020016040519081016040528093929190818152602001838380828437600081840152601f19601f82011690508083019250505050505050919291929080359060200190640100000000811115610cd557600080fd5b820183602082011115610ce757600080fd5b80359060200191846001830284011164010000000083111715610d0957600080fd5b91908080601f016020809104026020016040519081016040528093929190818152602001838380828437600081840152601f19601f82011690508083019250505050505050919291929080359060200190640100000000811115610d6c57600080fd5b820183602082011115610d7e57600080fd5b80359060200191846001830284011164010000000083111715610da057600080fd5b91908080601f016020809104026020016040519081016040528093929190818152602001838380828437600081840152601f19601f82011690508083019250505050505050919291929080359060200190640100000000811115610e0357600080fd5b820183602082011115610e1557600080fd5b80359060200191846001830284011164010000000083111715610e3757600080fd5b91908080601f016020809104026020016040519081016040528093929190818152602001838380828437600081840152601f19601f82011690508083019250505050505050919291929080359060200190640100000000811115610e9a57600080fd5b820183602082011115610eac57600080fd5b80359060200191846001830284011164010000000083111715610ece57600080fd5b91908080601f016020809104026020016040519081016040528093929190818152602001838380828437600081840152601f19601f82011690508083019250505050505050919291929080359060200190640100000000811115610f3157600080fd5b820183602082011115610f4357600080fd5b80359060200191846001830284011164010000000083111715610f6557600080fd5b91908080601f016020809104026020016040519081016040528093929190818152602001838380828437600081840152601f19601f820116905080830192505050505050509192919290505050612221565b005b610fe560048036036020811015610fcf57600080fd5b81019080803590602001909291905050506129a7565b6040518086815260200180602001806020018060200180602001858103855289818151815260200191508051906020019080838360005b8381101561103757808201518184015260208101905061101c565b50505050905090810190601f1680156110645780820380516001836020036101000a031916815260200191505b50858103845288818151815260200191508051906020019080838360005b8381101561109d578082015181840152602081019050611082565b50505050905090810190601f1680156110ca5780820380516001836020036101000a031916815260200191505b50858103835287818151815260200191508051906020019080838360005b838110156111035780820151818401526020810190506110e8565b50505050905090810190601f1680156111305780820380516001836020036101000a031916815260200191505b50858103825286818151815260200191508051906020019080838360005b8381101561116957808201518184015260208101905061114e565b50505050905090810190601f1680156111965780820380516001836020036101000a031916815260200191505b50995050505050505050505060405180910390f35b6111d7600480360360208110156111c157600080fd5b8101908080359060200190929190505050612c3d565b604051808981526020018060200180602001806020018060200180602001806020018060200188810388528f818151815260200191508051906020019080838360005b8381101561123557808201518184015260208101905061121a565b50505050905090810190601f1680156112625780820380516001836020036101000a031916815260200191505b5088810387528e818151815260200191508051906020019080838360005b8381101561129b578082015181840152602081019050611280565b50505050905090810190601f1680156112c85780820380516001836020036101000a031916815260200191505b5088810386528d818151815260200191508051906020019080838360005b838110156113015780820151818401526020810190506112e6565b50505050905090810190601f16801561132e5780820380516001836020036101000a031916815260200191505b5088810385528c818151815260200191508051906020019080838360005b8381101561136757808201518184015260208101905061134c565b50505050905090810190601f1680156113945780820380516001836020036101000a031916815260200191505b5088810384528b818151815260200191508051906020019080838360005b838110156113cd5780820151818401526020810190506113b2565b50505050905090810190601f1680156113fa5780820380516001836020036101000a031916815260200191505b5088810383528a818151815260200191508051906020019080838360005b83811015611433578082015181840152602081019050611418565b50505050905090810190601f1680156114605780820380516001836020036101000a031916815260200191505b50888103825289818151815260200191508051906020019080838360005b8381101561149957808201518184015260208101905061147e565b50505050905090810190601f1680156114c65780820380516001836020036101000a031916815260200191505b509f5050505050505050505050505050505060405180910390f35b60045481565b6001602052806000526040600020600091509050806000015490806001018054600181600116156101000203166002900480601f0160208091040260200160405190810160405280929190818152602001828054600181600116156101000203166002900480156115995780601f1061156e57610100808354040283529160200191611599565b820191906000526020600020905b81548152906001019060200180831161157c57829003601f168201915b505050505090806002018054600181600116156101000203166002900480601f0160208091040260200160405190810160405280929190818152602001828054600181600116156101000203166002900480156116375780601f1061160c57610100808354040283529160200191611637565b820191906000526020600020905b81548152906001019060200180831161161a57829003601f168201915b505050505090806003018054600181600116156101000203166002900480601f0160208091040260200160405190810160405280929190818152602001828054600181600116156101000203166002900480156116d55780601f106116aa576101008083540402835291602001916116d5565b820191906000526020600020905b8154815290600101906020018083116116b857829003601f168201915b505050505090806004018054600181600116156101000203166002900480601f0160208091040260200160405190810160405280929190818152602001828054600181600116156101000203166002900480156117735780601f1061174857610100808354040283529160200191611773565b820191906000526020600020905b81548152906001019060200180831161175657829003601f168201915b505050505090806005018054600181600116156101000203166002900480601f0160208091040260200160405190810160405280929190818152602001828054600181600116156101000203166002900480156118115780601f106117e657610100808354040283529160200191611811565b820191906000526020600020905b8154815290600101906020018083116117f457829003601f168201915b505050505090806006018054600181600116156101000203166002900480601f0160208091040260200160405190810160405280929190818152602001828054600181600116156101000203166002900480156118af5780601f10611884576101008083540402835291602001916118af565b820191906000526020600020905b81548152906001019060200180831161189257829003601f168201915b5050505050905087565b60008090505b6004548111611a5657600080828152602001908152602001600020600201604051602001808280546001816001161561010002031660029004801561193b5780601f1061191957610100808354040283529182019161193b565b820191906000526020600020905b815481529060010190602001808311611927575b505091505060405160208183030381529060405280519060200120866040516020018082805190602001908083835b6020831061198d578051825260208201915060208101905060208303925061196a565b6001836020036101000a038019825116818451168082178552505050505050905001915050604051602081830303815290604052805190602001201415611a49576040518060400160405280600381526020017f59657300000000000000000000000000000000000000000000000000000000008152506000808381526020019081526020016000206005019080519060200190611a2c9291906130ad565b506001600760016101000a81548160ff0219169083151502179055505b80806001019150506118bf565b5060008090505b6005548111611b9657600260008281526020019081526020016000206001016040516020018082805460018160011615610100020316600290048015611ada5780601f10611ab8576101008083540402835291820191611ada565b820191906000526020600020905b815481529060010190602001808311611ac6575b505091505060405160208183030381529060405280519060200120876040516020018082805190602001908083835b60208310611b2c5780518252602082019150602081019050602083039250611b09565b6001836020036101000a038019825116818451168082178552505050505050905001915050604051602081830303815290604052805190602001201415611b89576001600760026101000a81548160ff0219169083151502179055505b8080600101915050611a5d565b5060011515600760019054906101000a900460ff161515148015611bcd575060011515600760029054906101000a900460ff161515145b15611cea576006600081548092919060010191905055506040518060e00160405280600654815260200187815260200186815260200185815260200184815260200183815260200182815250600160006006548152602001908152602001600020600082015181600001556020820151816001019080519060200190611c5492919061312d565b506040820151816002019080519060200190611c7192919061312d565b506060820151816003019080519060200190611c8e92919061312d565b506080820151816004019080519060200190611cab92919061312d565b5060a0820151816005019080519060200190611cc892919061312d565b5060c0820151816006019080519060200190611ce592919061312d565b509050505b505050505050565b6003602052806000526040600020600091509050806000018054600181600116156101000203166002900480601f016020809104026020016040519081016040528092919081815260200182805460018160011615610100020316600290048015611d9e5780601f10611d7357610100808354040283529160200191611d9e565b820191906000526020600020905b815481529060010190602001808311611d8157829003601f168201915b505050505090806001018054600181600116156101000203166002900480601f016020809104026020016040519081016040528092919081815260200182805460018160011615610100020316600290048015611e3c5780601f10611e1157610100808354040283529160200191611e3c565b820191906000526020600020905b815481529060010190602001808311611e1f57829003601f168201915b505050505090806002018054600181600116156101000203166002900480601f016020809104026020016040519081016040528092919081815260200182805460018160011615610100020316600290048015611eda5780601f10611eaf57610100808354040283529160200191611eda565b820191906000526020600020905b815481529060010190602001808311611ebd57829003601f168201915b5050505050905083565b60055481565b6000600760036101000a81548160ff02191690831515021790555060006005541415611fe6576005600081548092919060010191905055506040518060a00160405280600554815260200185815260200184815260200183815260200182815250600260006005548152602001908152602001600020600082015181600001556020820151816001019080519060200190611f8692919061312d565b506040820151816002019080519060200190611fa392919061312d565b506060820151816003019080519060200190611fc092919061312d565b506080820151816004019080519060200190611fdd92919061312d565b50905050612215565b60008090505b6005548111612125576002600082815260200190815260200160002060010160405160200180828054600181600116156101000203166002900480156120695780601f10612047576101008083540402835291820191612069565b820191906000526020600020905b815481529060010190602001808311612055575b505091505060405160208183030381529060405280519060200120856040516020018082805190602001908083835b602083106120bb5780518252602082019150602081019050602083039250612098565b6001836020036101000a038019825116818451168082178552505050505050905001915050604051602081830303815290604052805190602001201415612118576001600760036101000a81548160ff0219169083151502179055505b8080600101915050611fec565b5060001515600760039054906101000a900460ff1615151415612214576005600081548092919060010191905055506040518060a001604052806005548152602001858152602001848152602001838152602001828152506002600060055481526020019081526020016000206000820151816000015560208201518160010190805190602001906121b892919061312d565b5060408201518160020190805190602001906121d592919061312d565b5060608201518160030190805190602001906121f292919061312d565b50608082015181600401908051906020019061220f92919061312d565b509050505b5b50505050565b60065481565b60046000815480929190600101919050555060008090505b6004548111612799576000600760006101000a81548160ff02191690831515021790555060008090505b600454811161278b5760008082815260200190815260200160002060020160405160200180828054600181600116156101000203166002900480156122df5780601f106122bd5761010080835404028352918201916122df565b820191906000526020600020905b8154815290600101906020018083116122cb575b505091505060405160208183030381529060405280519060200120886040516020018082805190602001908083835b60208310612331578051825260208201915060208101905060208303925061230e565b6001836020036101000a03801982511681845116808217855250505050505090500191505060405160208183030381529060405280519060200120141561277e5760405180610100016040528060045481526020018a81526020018981526020016000808481526020019081526020016000206003018054600181600116156101000203166002900480601f01602080910402602001604051908101604052809291908181526020018280546001816001161561010002031660029004801561243b5780601f106124105761010080835404028352916020019161243b565b820191906000526020600020905b81548152906001019060200180831161241e57829003601f168201915b505050505081526020016000808481526020019081526020016000206004018054600181600116156101000203166002900480601f0160208091040260200160405190810160405280929190818152602001828054600181600116156101000203166002900480156124ee5780601f106124c3576101008083540402835291602001916124ee565b820191906000526020600020905b8154815290600101906020018083116124d157829003601f168201915b505050505081526020016040518060400160405280600281526020017f4e6f000000000000000000000000000000000000000000000000000000000000815250815260200185815260200184815250600080600454815260200190815260200160002060008201518160000155602082015181600101908051906020019061257792919061312d565b50604082015181600201908051906020019061259492919061312d565b5060608201518160030190805190602001906125b192919061312d565b5060808201518160040190805190602001906125ce92919061312d565b5060a08201518160050190805190602001906125eb92919061312d565b5060c082015181600601908051906020019061260892919061312d565b5060e082015181600701908051906020019061262592919061312d565b509050506001600760006101000a81548160ff02191690831515021790555060405180606001604052806000808481526020019081526020016000206002018054600181600116156101000203166002900480601f0160208091040260200160405190810160405280929190818152602001828054600181600116156101000203166002900480156126f85780601f106126cd576101008083540402835291602001916126f8565b820191906000526020600020905b8154815290600101906020018083116126db57829003601f168201915b505050505081526020018681526020018581525060036000838152602001908152602001600020600082015181600001908051906020019061273b92919061312d565b50602082015181600101908051906020019061275892919061312d565b50604082015181600201908051906020019061277592919061312d565b5090505061278b565b8080600101915050612263565b508080600101915050612239565b5060001515600760009054906101000a900460ff161515141561299e5760405180610100016040528060045481526020018881526020018781526020018681526020018581526020016040518060400160405280600281526020017f4e6f000000000000000000000000000000000000000000000000000000000000815250815260200184815260200182815250600080600454815260200190815260200160002060008201518160000155602082015181600101908051906020019061286192919061312d565b50604082015181600201908051906020019061287e92919061312d565b50606082015181600301908051906020019061289b92919061312d565b5060808201518160040190805190602001906128b892919061312d565b5060a08201518160050190805190602001906128d592919061312d565b5060c08201518160060190805190602001906128f292919061312d565b5060e082015181600701908051906020019061290f92919061312d565b50905050604051806060016040528087815260200184815260200184815250600360006004548152602001908152602001600020600082015181600001908051906020019061295f92919061312d565b50602082015181600101908051906020019061297c92919061312d565b50604082015181600201908051906020019061299992919061312d565b509050505b50505050505050565b6002602052806000526040600020600091509050806000015490806001018054600181600116156101000203166002900480601f016020809104026020016040519081016040528092919081815260200182805460018160011615610100020316600290048015612a595780601f10612a2e57610100808354040283529160200191612a59565b820191906000526020600020905b815481529060010190602001808311612a3c57829003601f168201915b505050505090806002018054600181600116156101000203166002900480601f016020809104026020016040519081016040528092919081815260200182805460018160011615610100020316600290048015612af75780601f10612acc57610100808354040283529160200191612af7565b820191906000526020600020905b815481529060010190602001808311612ada57829003601f168201915b505050505090806003018054600181600116156101000203166002900480601f016020809104026020016040519081016040528092919081815260200182805460018160011615610100020316600290048015612b955780601f10612b6a57610100808354040283529160200191612b95565b820191906000526020600020905b815481529060010190602001808311612b7857829003601f168201915b505050505090806004018054600181600116156101000203166002900480601f016020809104026020016040519081016040528092919081815260200182805460018160011615610100020316600290048015612c335780601f10612c0857610100808354040283529160200191612c33565b820191906000526020600020905b815481529060010190602001808311612c1657829003601f168201915b5050505050905085565b6000602052806000526040600020600091509050806000015490806001018054600181600116156101000203166002900480601f016020809104026020016040519081016040528092919081815260200182805460018160011615610100020316600290048015612cef5780601f10612cc457610100808354040283529160200191612cef565b820191906000526020600020905b815481529060010190602001808311612cd257829003601f168201915b505050505090806002018054600181600116156101000203166002900480601f016020809104026020016040519081016040528092919081815260200182805460018160011615610100020316600290048015612d8d5780601f10612d6257610100808354040283529160200191612d8d565b820191906000526020600020905b815481529060010190602001808311612d7057829003601f168201915b505050505090806003018054600181600116156101000203166002900480601f016020809104026020016040519081016040528092919081815260200182805460018160011615610100020316600290048015612e2b5780601f10612e0057610100808354040283529160200191612e2b565b820191906000526020600020905b815481529060010190602001808311612e0e57829003601f168201915b505050505090806004018054600181600116156101000203166002900480601f016020809104026020016040519081016040528092919081815260200182805460018160011615610100020316600290048015612ec95780601f10612e9e57610100808354040283529160200191612ec9565b820191906000526020600020905b815481529060010190602001808311612eac57829003601f168201915b505050505090806005018054600181600116156101000203166002900480601f016020809104026020016040519081016040528092919081815260200182805460018160011615610100020316600290048015612f675780601f10612f3c57610100808354040283529160200191612f67565b820191906000526020600020905b815481529060010190602001808311612f4a57829003601f168201915b505050505090806006018054600181600116156101000203166002900480601f0160208091040260200160405190810160405280929190818152602001828054600181600116156101000203166002900480156130055780601f10612fda57610100808354040283529160200191613005565b820191906000526020600020905b815481529060010190602001808311612fe857829003601f168201915b505050505090806007018054600181600116156101000203166002900480601f0160208091040260200160405190810160405280929190818152602001828054600181600116156101000203166002900480156130a35780601f10613078576101008083540402835291602001916130a3565b820191906000526020600020905b81548152906001019060200180831161308657829003601f168201915b5050505050905088565b828054600181600116156101000203166002900490600052602060002090601f016020900481019282601f106130ee57805160ff191683800117855561311c565b8280016001018555821561311c579182015b8281111561311b578251825591602001919060010190613100565b5b50905061312991906131ad565b5090565b828054600181600116156101000203166002900490600052602060002090601f016020900481019282601f1061316e57805160ff191683800117855561319c565b8280016001018555821561319c579182015b8281111561319b578251825591602001919060010190613180565b5b5090506131a991906131ad565b5090565b6131cf91905b808211156131cb5760008160009055506001016131b3565b5090565b9056fea165627a7a723058200d69c284e485dc9d50dd97367ba5317c3246df926e0b72ad865477d1a0b2f4d500295468697320697320612074657374206465736372697074696f6e206f6620746865206d65646963696e65315468697320697320612074657374206465736372697074696f6e206f6620746865206d65646963696e6532",
  "source": "pragma solidity ^0.5.0;\n\ncontract Medicine {\n  struct Medicines {\n        uint id;\n        string mfg;\n        string name;\n        string expdate;\n        string date;\n        string shipped;\n        string nos;\n        string description;\n  }\n  struct Shipcompany{\n        uint id;\n        string name;\n        string contact;\n        string tempcontrol;\n        string typicaldays;\n  }\n  struct Shipment{\n        uint id;\n        string companyname;\n        string medicinename;\n        string temp;\n        string senddate;\n        string expecteddeliverydate;\n        string nos;\n  }\n  struct Nos{\n    string name;\n    string units_left;\n    string units_given;\n  }\n  mapping(uint => Medicines) public medicines;\n  mapping(uint => Shipment) public shipments;\n  mapping(uint => Shipcompany) public shipcomps;\n  mapping(uint => Nos) public countnos;\n\n  uint public count;\n  uint public countcomp;\n  uint public countship;\n  bool flag; bool flag1; bool flag2; bool flag3=false;\n\n  function addMedicine(string memory _mfg,string memory _name, string memory _expdate,string memory _date,string memory _nos,string memory _nosgiven,string memory _description) public {\n        count ++;\n        for(uint i = 0;i<=count;i++){\n            flag = false;\n            for(uint j = 0;j<=count;j++){\n                if((keccak256(abi.encodePacked((_name))) == keccak256(abi.encodePacked((medicines[j].name))))){\n                medicines[count] = Medicines(count,_mfg, _name, medicines[j].expdate, medicines[j].date,'No',_nosgiven,_description);\n                flag = true;\n                countnos[j] = Nos(medicines[j].name,_nos,_nosgiven);\n                    break;\n                }\n            }\n          }\n          if(flag==false){\n          medicines[count] = Medicines(count,_mfg, _name, _expdate, _date,'No',_nos,_description);\n          countnos[count] = Nos(_name,_nos,_nos);\n          }\n      }\n  function addShipment(string memory _companyname, string memory _medicinename,string memory _temp,string memory _senddate,string memory _expecteddeliverydate,string memory _nos) public {\n    for(uint i = 0;i<=count;i++){\n      if((keccak256(abi.encodePacked((_medicinename))) == keccak256(abi.encodePacked((medicines[i].name))))){\n        medicines[i].shipped = 'Yes';\n        flag1 = true;\n      }\n    }\n    for(uint j = 0;j<=countcomp;j++){\n      if((keccak256(abi.encodePacked((_companyname))) == keccak256(abi.encodePacked((shipcomps[j].name))))){\n        flag2 = true;\n      }\n    }\n    if(flag1 == true && flag2 == true){\n      countship++;\n      shipments[countship] = Shipment(countship,_companyname,_medicinename,_temp,_senddate,_expecteddeliverydate,_nos);\n    }\n  }\n  function addShipcomp(string memory _name,string memory _contact, string memory _tempcontrol, string memory _typicaldays) public{\n    flag3 = false;\n    if(countcomp == 0)\n    {\n      countcomp++;\n      shipcomps[countcomp] = Shipcompany(countcomp,_name,_contact,_tempcontrol,_typicaldays);\n    }\n    else{\n      for(uint i = 0;i<=countcomp;i++)\n      {\n        if(keccak256(abi.encodePacked(_name)) == keccak256(abi.encodePacked(shipcomps[i].name))){\n          flag3 = true;\n        }\n      }\n      if(flag3 == false)\n        {\n          countcomp++;\n          shipcomps[countcomp] = Shipcompany(countcomp,_name,_contact,_tempcontrol,_typicaldays);\n        }\n    }\n  }\n  constructor() public{\n        addMedicine(\"Manufacturer1-M\",\"Medicine1-1\",\"2019-02-28\",\"2017-03-20\",\"50\",'50','This is a test description of the medicine1');\n        addMedicine(\"Manufacturer2-M\",\"Medicine2-2\",\"2020-05-04\",\"2016-02-20\",\"100\",'100','This is a test description of the medicine2');\n  //addMedicine(\"Manufacturer3-M\",\"Medicine1-1\",\"2019-02-25\",\"2017-03-19\",50);\n    //    addMedicine(\"Manufacturer4-C\",\"Medicine1-1\",\"2019-02-25\",\"2017-03-19\",50);\n        addShipcomp(\"Company1\",\"+918140556655\",\"Yes\",\"5\");\n        addShipcomp(\"Company2\",\"+918140556666\",\"Yes\",\"6\");\n        addShipcomp(\"Company3\",\"+918142576550\",\"No\",\"5\");\n        addShipment(\"Company3\",\"Medicine2-2\",\"No\",\"2019-09-16\",\"2019-09-21\",\"20\");\n        addShipment(\"Company1\",\"Medicine1-1\",\"No\",\"2019-09-16\",\"2019-09-21\",\"20\");\n    }\n}",
  "sourcePath": "C:/Users/Vansh/Documents/Project/medicinetracking/contracts/Medicine.sol",
  "compiler": {
    "name": "solc",
    "version": "0.5.8+commit.23d335f2.Emscripten.clang"
  },
  "schemaVersion": "3.0.11",
  "updatedAt": "2020-03-11T07:21:30.084Z",
  "devdoc": {
    "methods": {}
  },
  "userdoc": {
    "methods": {}
  }
}