{
  "contractName": "Medicine",
  "abi": [
    {
      "constant": false,
      "inputs": [
        {
          "name": "_h",
          "type": "string"
        },
        {
          "name": "_date",
          "type": "string"
        }
      ],
      "name": "set",
      "outputs": [],
      "payable": false,
      "stateMutability": "nonpayable",
      "type": "function"
    },
    {
      "constant": true,
      "inputs": [],
      "name": "getname",
      "outputs": [
        {
          "name": "",
          "type": "string"
        }
      ],
      "payable": false,
      "stateMutability": "view",
      "type": "function"
    },
    {
      "constant": true,
      "inputs": [],
      "name": "getdate",
      "outputs": [
        {
          "name": "",
          "type": "string"
        }
      ],
      "payable": false,
      "stateMutability": "view",
      "type": "function"
    }
  ],
  "bytecode": "0x608060405234801561001057600080fd5b506104e5806100206000396000f3fe608060405234801561001057600080fd5b50600436106100415760003560e01c806331608dc314610046578063c6ea59b9146100c9578063e942b5161461014c575b600080fd5b61004e61029e565b6040518080602001828103825283818151815260200191508051906020019080838360005b8381101561008e578082015181840152602081019050610073565b50505050905090810190601f1680156100bb5780820380516001836020036101000a031916815260200191505b509250505060405180910390f35b6100d1610340565b6040518080602001828103825283818151815260200191508051906020019080838360005b838110156101115780820151818401526020810190506100f6565b50505050905090810190601f16801561013e5780820380516001836020036101000a031916815260200191505b509250505060405180910390f35b61029c6004803603604081101561016257600080fd5b810190808035906020019064010000000081111561017f57600080fd5b82018360208201111561019157600080fd5b803590602001918460018302840111640100000000831117156101b357600080fd5b91908080601f016020809104026020016040519081016040528093929190818152602001838380828437600081840152601f19601f8201169050808301925050505050505091929192908035906020019064010000000081111561021657600080fd5b82018360208201111561022857600080fd5b8035906020019184600183028401116401000000008311171561024a57600080fd5b91908080601f016020809104026020016040519081016040528093929190818152602001838380828437600081840152601f19601f8201169050808301925050505050505091929192905050506103e2565b005b606060018054600181600116156101000203166002900480601f0160208091040260200160405190810160405280929190818152602001828054600181600116156101000203166002900480156103365780601f1061030b57610100808354040283529160200191610336565b820191906000526020600020905b81548152906001019060200180831161031957829003601f168201915b5050505050905090565b606060008054600181600116156101000203166002900480601f0160208091040260200160405190810160405280929190818152602001828054600181600116156101000203166002900480156103d85780601f106103ad576101008083540402835291602001916103d8565b820191906000526020600020905b8154815290600101906020018083116103bb57829003601f168201915b5050505050905090565b81600090805190602001906103f8929190610414565b50806001908051906020019061040f929190610414565b505050565b828054600181600116156101000203166002900490600052602060002090601f016020900481019282601f1061045557805160ff1916838001178555610483565b82800160010185558215610483579182015b82811115610482578251825591602001919060010190610467565b5b5090506104909190610494565b5090565b6104b691905b808211156104b257600081600090555060010161049a565b5090565b9056fea165627a7a72305820b7e278af4cbabce3b26c4bfaa0f8a55d079332d6712a37537ee7b53dad5eb27a0029",
  "source": "pragma solidity ^0.5.0;\n\n\ncontract Medicine {\n  string h; string date;\n  function set(string memory _h,string memory _date) public{\n    h = _h;\n    date = _date;\n  }\n  function getname() public view returns(string memory){\n    return h;\n  }\n  function getdate() public view returns(string memory){\n    return date;\n  }\n}\n",
  "sourcePath": "/home/vantstein/Documents/Sem 5/Medicine/contracts/Medicine.sol",
  "compiler": {
    "name": "solc",
    "version": "0.5.8+commit.23d335f2.Emscripten.clang"
  },
  "schemaVersion": "3.0.11",
  "updatedAt": "2019-09-08T17:50:40.026Z",
  "devdoc": {
    "methods": {}
  },
  "userdoc": {
    "methods": {}
  }
}