{
  "contractName": "Medicine",
  "abi": [
    {
      "constant": true,
      "inputs": [],
      "name": "count",
      "outputs": [
        {
          "name": "",
          "type": "uint256"
        }
      ],
      "payable": false,
      "stateMutability": "view",
      "type": "function"
    },
    {
      "constant": true,
      "inputs": [
        {
          "name": "",
          "type": "uint256"
        }
      ],
      "name": "shipments",
      "outputs": [
        {
          "name": "id",
          "type": "uint256"
        },
        {
          "name": "companyname",
          "type": "string"
        },
        {
          "name": "medicinename",
          "type": "string"
        },
        {
          "name": "temp",
          "type": "string"
        },
        {
          "name": "senddate",
          "type": "string"
        },
        {
          "name": "expecteddeliverydate",
          "type": "string"
        }
      ],
      "payable": false,
      "stateMutability": "view",
      "type": "function"
    },
    {
      "constant": true,
      "inputs": [],
      "name": "countcomp",
      "outputs": [
        {
          "name": "",
          "type": "uint256"
        }
      ],
      "payable": false,
      "stateMutability": "view",
      "type": "function"
    },
    {
      "constant": true,
      "inputs": [],
      "name": "countship",
      "outputs": [
        {
          "name": "",
          "type": "uint256"
        }
      ],
      "payable": false,
      "stateMutability": "view",
      "type": "function"
    },
    {
      "constant": true,
      "inputs": [
        {
          "name": "",
          "type": "uint256"
        }
      ],
      "name": "shipcomps",
      "outputs": [
        {
          "name": "id",
          "type": "uint256"
        },
        {
          "name": "name",
          "type": "string"
        },
        {
          "name": "contact",
          "type": "string"
        },
        {
          "name": "tempcontrol",
          "type": "string"
        },
        {
          "name": "typicaldays",
          "type": "string"
        }
      ],
      "payable": false,
      "stateMutability": "view",
      "type": "function"
    },
    {
      "constant": true,
      "inputs": [
        {
          "name": "",
          "type": "uint256"
        }
      ],
      "name": "medicines",
      "outputs": [
        {
          "name": "id",
          "type": "uint256"
        },
        {
          "name": "mfg",
          "type": "string"
        },
        {
          "name": "name",
          "type": "string"
        },
        {
          "name": "expdate",
          "type": "string"
        },
        {
          "name": "date",
          "type": "string"
        },
        {
          "name": "shipped",
          "type": "string"
        }
      ],
      "payable": false,
      "stateMutability": "view",
      "type": "function"
    },
    {
      "inputs": [],
      "payable": false,
      "stateMutability": "nonpayable",
      "type": "constructor"
    },
    {
      "constant": false,
      "inputs": [
        {
          "name": "_mfg",
          "type": "string"
        },
        {
          "name": "_name",
          "type": "string"
        },
        {
          "name": "_expdate",
          "type": "string"
        },
        {
          "name": "_date",
          "type": "string"
        }
      ],
      "name": "addMedicine",
      "outputs": [],
      "payable": false,
      "stateMutability": "nonpayable",
      "type": "function"
    },
    {
      "constant": false,
      "inputs": [
        {
          "name": "_companyname",
          "type": "string"
        },
        {
          "name": "_medicinename",
          "type": "string"
        },
        {
          "name": "_temp",
          "type": "string"
        },
        {
          "name": "_senddate",
          "type": "string"
        },
        {
          "name": "_expecteddeliverydate",
          "type": "string"
        }
      ],
      "name": "addShipment",
      "outputs": [],
      "payable": false,
      "stateMutability": "nonpayable",
      "type": "function"
    },
    {
      "constant": false,
      "inputs": [
        {
          "name": "_name",
          "type": "string"
        },
        {
          "name": "_contact",
          "type": "string"
        },
        {
          "name": "_tempcontrol",
          "type": "string"
        },
        {
          "name": "_typicaldays",
          "type": "string"
        }
      ],
      "name": "addShipcomp",
      "outputs": [],
      "payable": false,
      "stateMutability": "nonpayable",
      "type": "function"
    }
  ],
  "bytecode": "0x60806040526000600660036101000a81548160ff0219169083151502179055503480156200002c57600080fd5b50620001156040518060400160405280600f81526020017f4d616e756661637475726572312d4d00000000000000000000000000000000008152506040518060400160405280600b81526020017f4d65646963696e65312d310000000000000000000000000000000000000000008152506040518060400160405280600a81526020017f323031392d30322d3238000000000000000000000000000000000000000000008152506040518060400160405280600a81526020017f323031372d30332d323000000000000000000000000000000000000000000000815250620008c760201b60201c565b620001fd6040518060400160405280600f81526020017f4d616e756661637475726572322d4d00000000000000000000000000000000008152506040518060400160405280600b81526020017f4d65646963696e65322d320000000000000000000000000000000000000000008152506040518060400160405280600a81526020017f323032302d30352d3034000000000000000000000000000000000000000000008152506040518060400160405280600a81526020017f323031362d30322d323000000000000000000000000000000000000000000000815250620008c760201b60201c565b620002e56040518060400160405280600f81526020017f4d616e756661637475726572332d4d00000000000000000000000000000000008152506040518060400160405280600b81526020017f4d65646963696e65312d310000000000000000000000000000000000000000008152506040518060400160405280600a81526020017f323031392d30322d3235000000000000000000000000000000000000000000008152506040518060400160405280600a81526020017f323031372d30332d313900000000000000000000000000000000000000000000815250620008c760201b60201c565b620003cd6040518060400160405280600f81526020017f4d616e756661637475726572342d4300000000000000000000000000000000008152506040518060400160405280600b81526020017f4d65646963696e65312d310000000000000000000000000000000000000000008152506040518060400160405280600a81526020017f323031392d30322d3235000000000000000000000000000000000000000000008152506040518060400160405280600a81526020017f323031372d30332d313900000000000000000000000000000000000000000000815250620008c760201b60201c565b620004b56040518060400160405280600881526020017f436f6d70616e79310000000000000000000000000000000000000000000000008152506040518060400160405280600d81526020017f2b393138313430353536363535000000000000000000000000000000000000008152506040518060400160405280600381526020017f59657300000000000000000000000000000000000000000000000000000000008152506040518060400160405280600181526020017f350000000000000000000000000000000000000000000000000000000000000081525062000e2660201b60201c565b6200059d6040518060400160405280600881526020017f436f6d70616e79320000000000000000000000000000000000000000000000008152506040518060400160405280600d81526020017f2b393138313430353536363636000000000000000000000000000000000000008152506040518060400160405280600381526020017f59657300000000000000000000000000000000000000000000000000000000008152506040518060400160405280600181526020017f360000000000000000000000000000000000000000000000000000000000000081525062000e2660201b60201c565b620006856040518060400160405280600881526020017f436f6d70616e79330000000000000000000000000000000000000000000000008152506040518060400160405280600d81526020017f2b393138313432353736353530000000000000000000000000000000000000008152506040518060400160405280600281526020017f4e6f0000000000000000000000000000000000000000000000000000000000008152506040518060400160405280600181526020017f350000000000000000000000000000000000000000000000000000000000000081525062000e2660201b60201c565b620007a36040518060400160405280600881526020017f436f6d70616e79330000000000000000000000000000000000000000000000008152506040518060400160405280600b81526020017f4d65646963696e65322d320000000000000000000000000000000000000000008152506040518060400160405280600281526020017f4e6f0000000000000000000000000000000000000000000000000000000000008152506040518060400160405280600a81526020017f323031392d30392d3136000000000000000000000000000000000000000000008152506040518060400160405280600a81526020017f323031392d30392d3231000000000000000000000000000000000000000000008152506200117360201b60201c565b620008c16040518060400160405280600881526020017f436f6d70616e79310000000000000000000000000000000000000000000000008152506040518060400160405280600b81526020017f4d65646963696e65312d310000000000000000000000000000000000000000008152506040518060400160405280600281526020017f4e6f0000000000000000000000000000000000000000000000000000000000008152506040518060400160405280600a81526020017f323031392d30392d3136000000000000000000000000000000000000000000008152506040518060400160405280600a81526020017f323031392d30392d3231000000000000000000000000000000000000000000008152506200117360201b60201c565b620016de565b60036000815480929190600101919050555060008090505b600354811162000ce1576000600660006101000a81548160ff02191690831515021790555060008090505b600354811162000cd25760008082815260200190815260200160002060020160405160200180828054600181600116156101000203166002900480156200098b5780601f10620009685761010080835404028352918201916200098b565b820191906000526020600020905b81548152906001019060200180831162000976575b505091505060405160208183030381529060405280519060200120856040516020018082805190602001908083835b60208310620009df5780518252602082019150602081019050602083039250620009ba565b6001836020036101000a03801982511681845116808217855250505050505090500191505060405160208183030381529060405280519060200120141562000cc4576040518060c0016040528060035481526020018781526020018681526020016000808481526020019081526020016000206003018054600181600116156101000203166002900480601f01602080910402602001604051908101604052809291908181526020018280546001816001161561010002031660029004801562000aed5780601f1062000ac15761010080835404028352916020019162000aed565b820191906000526020600020905b81548152906001019060200180831162000acf57829003601f168201915b505050505081526020016000808481526020019081526020016000206004018054600181600116156101000203166002900480601f01602080910402602001604051908101604052809291908181526020018280546001816001161561010002031660029004801562000ba45780601f1062000b785761010080835404028352916020019162000ba4565b820191906000526020600020905b81548152906001019060200180831162000b8657829003601f168201915b505050505081526020016040518060400160405280600281526020017f4e6f000000000000000000000000000000000000000000000000000000000000815250815250600080600354815260200190815260200160002060008201518160000155602082015181600101908051906020019062000c23929190620015a8565b50604082015181600201908051906020019062000c42929190620015a8565b50606082015181600301908051906020019062000c61929190620015a8565b50608082015181600401908051906020019062000c80929190620015a8565b5060a082015181600501908051906020019062000c9f929190620015a8565b509050506001600660006101000a81548160ff02191690831515021790555062000cd2565b80806001019150506200090a565b508080600101915050620008df565b5060001515600660009054906101000a900460ff161515141562000e20576040518060c0016040528060035481526020018581526020018481526020018381526020018281526020016040518060400160405280600281526020017f4e6f000000000000000000000000000000000000000000000000000000000000815250815250600080600354815260200190815260200160002060008201518160000155602082015181600101908051906020019062000d9f929190620015a8565b50604082015181600201908051906020019062000dbe929190620015a8565b50606082015181600301908051906020019062000ddd929190620015a8565b50608082015181600401908051906020019062000dfc929190620015a8565b5060a082015181600501908051906020019062000e1b929190620015a8565b509050505b50505050565b6000600660036101000a81548160ff0219169083151502179055506000600454141562000f2c576004600081548092919060010191905055506040518060a0016040528060045481526020018581526020018481526020018381526020018281525060026000600454815260200190815260200160002060008201518160000155602082015181600101908051906020019062000ec5929190620015a8565b50604082015181600201908051906020019062000ee4929190620015a8565b50606082015181600301908051906020019062000f03929190620015a8565b50608082015181600401908051906020019062000f22929190620015a8565b509050506200116d565b60008090505b6004548111620010745760026000828152602001908152602001600020600101604051602001808280546001816001161561010002031660029004801562000fb45780601f1062000f9157610100808354040283529182019162000fb4565b820191906000526020600020905b81548152906001019060200180831162000f9f575b505091505060405160208183030381529060405280519060200120856040516020018082805190602001908083835b6020831062001008578051825260208201915060208101905060208303925062000fe3565b6001836020036101000a03801982511681845116808217855250505050505090500191505060405160208183030381529060405280519060200120141562001066576001600660036101000a81548160ff0219169083151502179055505b808060010191505062000f32565b5060001515600660039054906101000a900460ff16151514156200116c576004600081548092919060010191905055506040518060a001604052806004548152602001858152602001848152602001838152602001828152506002600060045481526020019081526020016000206000820151816000015560208201518160010190805190602001906200110a929190620015a8565b50604082015181600201908051906020019062001129929190620015a8565b50606082015181600301908051906020019062001148929190620015a8565b50608082015181600401908051906020019062001167929190620015a8565b509050505b5b50505050565b60008090505b60035481116200131b576000808281526020019081526020016000206002016040516020018082805460018160011615610100020316600290048015620011fa5780601f10620011d7576101008083540402835291820191620011fa565b820191906000526020600020905b815481529060010190602001808311620011e5575b505091505060405160208183030381529060405280519060200120856040516020018082805190602001908083835b602083106200124e578051825260208201915060208101905060208303925062001229565b6001836020036101000a0380198251168184511680821785525050505050509050019150506040516020818303038152906040528051906020012014156200130d576040518060400160405280600381526020017f59657300000000000000000000000000000000000000000000000000000000008152506000808381526020019081526020016000206005019080519060200190620012f09291906200162f565b506001600660016101000a81548160ff0219169083151502179055505b808060010191505062001179565b5060008090505b60045481116200146457600260008281526020019081526020016000206001016040516020018082805460018160011615610100020316600290048015620013a45780601f1062001381576101008083540402835291820191620013a4565b820191906000526020600020905b8154815290600101906020018083116200138f575b505091505060405160208183030381529060405280519060200120866040516020018082805190602001908083835b60208310620013f85780518252602082019150602081019050602083039250620013d3565b6001836020036101000a03801982511681845116808217855250505050505090500191505060405160208183030381529060405280519060200120141562001456576001600660026101000a81548160ff0219169083151502179055505b808060010191505062001322565b5060011515600660019054906101000a900460ff1615151480156200149c575060011515600660029054906101000a900460ff161515145b15620015a1576005600081548092919060010191905055506040518060c0016040528060055481526020018681526020018581526020018481526020018381526020018281525060016000600554815260200190815260200160002060008201518160000155602082015181600101908051906020019062001520929190620015a8565b5060408201518160020190805190602001906200153f929190620015a8565b5060608201518160030190805190602001906200155e929190620015a8565b5060808201518160040190805190602001906200157d929190620015a8565b5060a08201518160050190805190602001906200159c929190620015a8565b509050505b5050505050565b828054600181600116156101000203166002900490600052602060002090601f016020900481019282601f10620015eb57805160ff19168380011785556200161c565b828001600101855582156200161c579182015b828111156200161b578251825591602001919060010190620015fe565b5b5090506200162b9190620016b6565b5090565b828054600181600116156101000203166002900490600052602060002090601f016020900481019282601f106200167257805160ff1916838001178555620016a3565b82800160010185558215620016a3579182015b82811115620016a257825182559160200191906001019062001685565b5b509050620016b29190620016b6565b5090565b620016db91905b80821115620016d7576000816000905550600101620016bd565b5090565b90565b61269480620016ee6000396000f3fe608060405234801561001057600080fd5b50600436106100935760003560e01c806360d60d2e1161006657806360d60d2e146108ab57806372f006b3146108c95780639f021bec14610b49578063bed58edb14610b67578063c85e766d14610d5957610093565b8063020d07a41461009857806306661abd146103185780632ac08a931461033657806350b09f3314610594575b600080fd5b610316600480360360808110156100ae57600080fd5b81019080803590602001906401000000008111156100cb57600080fd5b8201836020820111156100dd57600080fd5b803590602001918460018302840111640100000000831117156100ff57600080fd5b91908080601f016020809104026020016040519081016040528093929190818152602001838380828437600081840152601f19601f8201169050808301925050505050505091929192908035906020019064010000000081111561016257600080fd5b82018360208201111561017457600080fd5b8035906020019184600183028401116401000000008311171561019657600080fd5b91908080601f016020809104026020016040519081016040528093929190818152602001838380828437600081840152601f19601f820116905080830192505050505050509192919290803590602001906401000000008111156101f957600080fd5b82018360208201111561020b57600080fd5b8035906020019184600183028401116401000000008311171561022d57600080fd5b91908080601f016020809104026020016040519081016040528093929190818152602001838380828437600081840152601f19601f8201169050808301925050505050505091929192908035906020019064010000000081111561029057600080fd5b8201836020820111156102a257600080fd5b803590602001918460018302840111640100000000831117156102c457600080fd5b91908080601f016020809104026020016040519081016040528093929190818152602001838380828437600081840152601f19601f820116905080830192505050505050509192919290505050610fb7565b005b6103206114ed565b6040518082815260200191505060405180910390f35b6103626004803603602081101561034c57600080fd5b81019080803590602001909291905050506114f3565b60405180878152602001806020018060200180602001806020018060200186810386528b818151815260200191508051906020019080838360005b838110156103b857808201518184015260208101905061039d565b50505050905090810190601f1680156103e55780820380516001836020036101000a031916815260200191505b5086810385528a818151815260200191508051906020019080838360005b8381101561041e578082015181840152602081019050610403565b50505050905090810190601f16801561044b5780820380516001836020036101000a031916815260200191505b50868103845289818151815260200191508051906020019080838360005b83811015610484578082015181840152602081019050610469565b50505050905090810190601f1680156104b15780820380516001836020036101000a031916815260200191505b50868103835288818151815260200191508051906020019080838360005b838110156104ea5780820151818401526020810190506104cf565b50505050905090810190601f1680156105175780820380516001836020036101000a031916815260200191505b50868103825287818151815260200191508051906020019080838360005b83811015610550578082015181840152602081019050610535565b50505050905090810190601f16801561057d5780820380516001836020036101000a031916815260200191505b509b50505050505050505050505060405180910390f35b6108a9600480360360a08110156105aa57600080fd5b81019080803590602001906401000000008111156105c757600080fd5b8201836020820111156105d957600080fd5b803590602001918460018302840111640100000000831117156105fb57600080fd5b91908080601f016020809104026020016040519081016040528093929190818152602001838380828437600081840152601f19601f8201169050808301925050505050505091929192908035906020019064010000000081111561065e57600080fd5b82018360208201111561067057600080fd5b8035906020019184600183028401116401000000008311171561069257600080fd5b91908080601f016020809104026020016040519081016040528093929190818152602001838380828437600081840152601f19601f820116905080830192505050505050509192919290803590602001906401000000008111156106f557600080fd5b82018360208201111561070757600080fd5b8035906020019184600183028401116401000000008311171561072957600080fd5b91908080601f016020809104026020016040519081016040528093929190818152602001838380828437600081840152601f19601f8201169050808301925050505050505091929192908035906020019064010000000081111561078c57600080fd5b82018360208201111561079e57600080fd5b803590602001918460018302840111640100000000831117156107c057600080fd5b91908080601f016020809104026020016040519081016040528093929190818152602001838380828437600081840152601f19601f8201169050808301925050505050505091929192908035906020019064010000000081111561082357600080fd5b82018360208201111561083557600080fd5b8035906020019184600183028401116401000000008311171561085757600080fd5b91908080601f016020809104026020016040519081016040528093929190818152602001838380828437600081840152601f19601f820116905080830192505050505050509192919290505050611827565b005b6108b3611c3c565b6040518082815260200191505060405180910390f35b610b47600480360360808110156108df57600080fd5b81019080803590602001906401000000008111156108fc57600080fd5b82018360208201111561090e57600080fd5b8035906020019184600183028401116401000000008311171561093057600080fd5b91908080601f016020809104026020016040519081016040528093929190818152602001838380828437600081840152601f19601f8201169050808301925050505050505091929192908035906020019064010000000081111561099357600080fd5b8201836020820111156109a557600080fd5b803590602001918460018302840111640100000000831117156109c757600080fd5b91908080601f016020809104026020016040519081016040528093929190818152602001838380828437600081840152601f19601f82011690508083019250505050505050919291929080359060200190640100000000811115610a2a57600080fd5b820183602082011115610a3c57600080fd5b80359060200191846001830284011164010000000083111715610a5e57600080fd5b91908080601f016020809104026020016040519081016040528093929190818152602001838380828437600081840152601f19601f82011690508083019250505050505050919291929080359060200190640100000000811115610ac157600080fd5b820183602082011115610ad357600080fd5b80359060200191846001830284011164010000000083111715610af557600080fd5b91908080601f016020809104026020016040519081016040528093929190818152602001838380828437600081840152601f19601f820116905080830192505050505050509192919290505050611c42565b005b610b51611f73565b6040518082815260200191505060405180910390f35b610b9360048036036020811015610b7d57600080fd5b8101908080359060200190929190505050611f79565b6040518086815260200180602001806020018060200180602001858103855289818151815260200191508051906020019080838360005b83811015610be5578082015181840152602081019050610bca565b50505050905090810190601f168015610c125780820380516001836020036101000a031916815260200191505b50858103845288818151815260200191508051906020019080838360005b83811015610c4b578082015181840152602081019050610c30565b50505050905090810190601f168015610c785780820380516001836020036101000a031916815260200191505b50858103835287818151815260200191508051906020019080838360005b83811015610cb1578082015181840152602081019050610c96565b50505050905090810190601f168015610cde5780820380516001836020036101000a031916815260200191505b50858103825286818151815260200191508051906020019080838360005b83811015610d17578082015181840152602081019050610cfc565b50505050905090810190601f168015610d445780820380516001836020036101000a031916815260200191505b50995050505050505050505060405180910390f35b610d8560048036036020811015610d6f57600080fd5b810190808035906020019092919050505061220f565b60405180878152602001806020018060200180602001806020018060200186810386528b818151815260200191508051906020019080838360005b83811015610ddb578082015181840152602081019050610dc0565b50505050905090810190601f168015610e085780820380516001836020036101000a031916815260200191505b5086810385528a818151815260200191508051906020019080838360005b83811015610e41578082015181840152602081019050610e26565b50505050905090810190601f168015610e6e5780820380516001836020036101000a031916815260200191505b50868103845289818151815260200191508051906020019080838360005b83811015610ea7578082015181840152602081019050610e8c565b50505050905090810190601f168015610ed45780820380516001836020036101000a031916815260200191505b50868103835288818151815260200191508051906020019080838360005b83811015610f0d578082015181840152602081019050610ef2565b50505050905090810190601f168015610f3a5780820380516001836020036101000a031916815260200191505b50868103825287818151815260200191508051906020019080838360005b83811015610f73578082015181840152602081019050610f58565b50505050905090810190601f168015610fa05780820380516001836020036101000a031916815260200191505b509b50505050505050505050505060405180910390f35b60036000815480929190600101919050555060008090505b60035481116113b3576000600660006101000a81548160ff02191690831515021790555060008090505b60035481116113a55760008082815260200190815260200160002060020160405160200180828054600181600116156101000203166002900480156110755780601f10611053576101008083540402835291820191611075565b820191906000526020600020905b815481529060010190602001808311611061575b505091505060405160208183030381529060405280519060200120856040516020018082805190602001908083835b602083106110c757805182526020820191506020810190506020830392506110a4565b6001836020036101000a038019825116818451168082178552505050505050905001915050604051602081830303815290604052805190602001201415611398576040518060c0016040528060035481526020018781526020018681526020016000808481526020019081526020016000206003018054600181600116156101000203166002900480601f0160208091040260200160405190810160405280929190818152602001828054600181600116156101000203166002900480156111d05780601f106111a5576101008083540402835291602001916111d0565b820191906000526020600020905b8154815290600101906020018083116111b357829003601f168201915b505050505081526020016000808481526020019081526020016000206004018054600181600116156101000203166002900480601f0160208091040260200160405190810160405280929190818152602001828054600181600116156101000203166002900480156112835780601f1061125857610100808354040283529160200191611283565b820191906000526020600020905b81548152906001019060200180831161126657829003601f168201915b505050505081526020016040518060400160405280600281526020017f4e6f0000000000000000000000000000000000000000000000000000000000008152508152506000806003548152602001908152602001600020600082015181600001556020820151816001019080519060200190611300929190612543565b50604082015181600201908051906020019061131d929190612543565b50606082015181600301908051906020019061133a929190612543565b506080820151816004019080519060200190611357929190612543565b5060a0820151816005019080519060200190611374929190612543565b509050506001600660006101000a81548160ff0219169083151502179055506113a5565b8080600101915050610ff9565b508080600101915050610fcf565b5060001515600660009054906101000a900460ff16151514156114e7576040518060c0016040528060035481526020018581526020018481526020018381526020018281526020016040518060400160405280600281526020017f4e6f000000000000000000000000000000000000000000000000000000000000815250815250600080600354815260200190815260200160002060008201518160000155602082015181600101908051906020019061146e929190612543565b50604082015181600201908051906020019061148b929190612543565b5060608201518160030190805190602001906114a8929190612543565b5060808201518160040190805190602001906114c5929190612543565b5060a08201518160050190805190602001906114e2929190612543565b509050505b50505050565b60035481565b6001602052806000526040600020600091509050806000015490806001018054600181600116156101000203166002900480601f0160208091040260200160405190810160405280929190818152602001828054600181600116156101000203166002900480156115a55780601f1061157a576101008083540402835291602001916115a5565b820191906000526020600020905b81548152906001019060200180831161158857829003601f168201915b505050505090806002018054600181600116156101000203166002900480601f0160208091040260200160405190810160405280929190818152602001828054600181600116156101000203166002900480156116435780601f1061161857610100808354040283529160200191611643565b820191906000526020600020905b81548152906001019060200180831161162657829003601f168201915b505050505090806003018054600181600116156101000203166002900480601f0160208091040260200160405190810160405280929190818152602001828054600181600116156101000203166002900480156116e15780601f106116b6576101008083540402835291602001916116e1565b820191906000526020600020905b8154815290600101906020018083116116c457829003601f168201915b505050505090806004018054600181600116156101000203166002900480601f01602080910402602001604051908101604052809291908181526020018280546001816001161561010002031660029004801561177f5780601f106117545761010080835404028352916020019161177f565b820191906000526020600020905b81548152906001019060200180831161176257829003601f168201915b505050505090806005018054600181600116156101000203166002900480601f01602080910402602001604051908101604052809291908181526020018280546001816001161561010002031660029004801561181d5780601f106117f25761010080835404028352916020019161181d565b820191906000526020600020905b81548152906001019060200180831161180057829003601f168201915b5050505050905086565b60008090505b60035481116119c45760008082815260200190815260200160002060020160405160200180828054600181600116156101000203166002900480156118a95780601f106118875761010080835404028352918201916118a9565b820191906000526020600020905b815481529060010190602001808311611895575b505091505060405160208183030381529060405280519060200120856040516020018082805190602001908083835b602083106118fb57805182526020820191506020810190506020830392506118d8565b6001836020036101000a0380198251168184511680821785525050505050509050019150506040516020818303038152906040528051906020012014156119b7576040518060400160405280600381526020017f5965730000000000000000000000000000000000000000000000000000000000815250600080838152602001908152602001600020600501908051906020019061199a9291906125c3565b506001600660016101000a81548160ff0219169083151502179055505b808060010191505061182d565b5060008090505b6004548111611b0457600260008281526020019081526020016000206001016040516020018082805460018160011615610100020316600290048015611a485780601f10611a26576101008083540402835291820191611a48565b820191906000526020600020905b815481529060010190602001808311611a34575b505091505060405160208183030381529060405280519060200120866040516020018082805190602001908083835b60208310611a9a5780518252602082019150602081019050602083039250611a77565b6001836020036101000a038019825116818451168082178552505050505050905001915050604051602081830303815290604052805190602001201415611af7576001600660026101000a81548160ff0219169083151502179055505b80806001019150506119cb565b5060011515600660019054906101000a900460ff161515148015611b3b575060011515600660029054906101000a900460ff161515145b15611c35576005600081548092919060010191905055506040518060c00160405280600554815260200186815260200185815260200184815260200183815260200182815250600160006005548152602001908152602001600020600082015181600001556020820151816001019080519060200190611bbc929190612543565b506040820151816002019080519060200190611bd9929190612543565b506060820151816003019080519060200190611bf6929190612543565b506080820151816004019080519060200190611c13929190612543565b5060a0820151816005019080519060200190611c30929190612543565b509050505b5050505050565b60045481565b6000600660036101000a81548160ff02191690831515021790555060006004541415611d3e576004600081548092919060010191905055506040518060a00160405280600454815260200185815260200184815260200183815260200182815250600260006004548152602001908152602001600020600082015181600001556020820151816001019080519060200190611cde929190612543565b506040820151816002019080519060200190611cfb929190612543565b506060820151816003019080519060200190611d18929190612543565b506080820151816004019080519060200190611d35929190612543565b50905050611f6d565b60008090505b6004548111611e7d57600260008281526020019081526020016000206001016040516020018082805460018160011615610100020316600290048015611dc15780601f10611d9f576101008083540402835291820191611dc1565b820191906000526020600020905b815481529060010190602001808311611dad575b505091505060405160208183030381529060405280519060200120856040516020018082805190602001908083835b60208310611e135780518252602082019150602081019050602083039250611df0565b6001836020036101000a038019825116818451168082178552505050505050905001915050604051602081830303815290604052805190602001201415611e70576001600660036101000a81548160ff0219169083151502179055505b8080600101915050611d44565b5060001515600660039054906101000a900460ff1615151415611f6c576004600081548092919060010191905055506040518060a00160405280600454815260200185815260200184815260200183815260200182815250600260006004548152602001908152602001600020600082015181600001556020820151816001019080519060200190611f10929190612543565b506040820151816002019080519060200190611f2d929190612543565b506060820151816003019080519060200190611f4a929190612543565b506080820151816004019080519060200190611f67929190612543565b509050505b5b50505050565b60055481565b6002602052806000526040600020600091509050806000015490806001018054600181600116156101000203166002900480601f01602080910402602001604051908101604052809291908181526020018280546001816001161561010002031660029004801561202b5780601f106120005761010080835404028352916020019161202b565b820191906000526020600020905b81548152906001019060200180831161200e57829003601f168201915b505050505090806002018054600181600116156101000203166002900480601f0160208091040260200160405190810160405280929190818152602001828054600181600116156101000203166002900480156120c95780601f1061209e576101008083540402835291602001916120c9565b820191906000526020600020905b8154815290600101906020018083116120ac57829003601f168201915b505050505090806003018054600181600116156101000203166002900480601f0160208091040260200160405190810160405280929190818152602001828054600181600116156101000203166002900480156121675780601f1061213c57610100808354040283529160200191612167565b820191906000526020600020905b81548152906001019060200180831161214a57829003601f168201915b505050505090806004018054600181600116156101000203166002900480601f0160208091040260200160405190810160405280929190818152602001828054600181600116156101000203166002900480156122055780601f106121da57610100808354040283529160200191612205565b820191906000526020600020905b8154815290600101906020018083116121e857829003601f168201915b5050505050905085565b6000602052806000526040600020600091509050806000015490806001018054600181600116156101000203166002900480601f0160208091040260200160405190810160405280929190818152602001828054600181600116156101000203166002900480156122c15780601f10612296576101008083540402835291602001916122c1565b820191906000526020600020905b8154815290600101906020018083116122a457829003601f168201915b505050505090806002018054600181600116156101000203166002900480601f01602080910402602001604051908101604052809291908181526020018280546001816001161561010002031660029004801561235f5780601f106123345761010080835404028352916020019161235f565b820191906000526020600020905b81548152906001019060200180831161234257829003601f168201915b505050505090806003018054600181600116156101000203166002900480601f0160208091040260200160405190810160405280929190818152602001828054600181600116156101000203166002900480156123fd5780601f106123d2576101008083540402835291602001916123fd565b820191906000526020600020905b8154815290600101906020018083116123e057829003601f168201915b505050505090806004018054600181600116156101000203166002900480601f01602080910402602001604051908101604052809291908181526020018280546001816001161561010002031660029004801561249b5780601f106124705761010080835404028352916020019161249b565b820191906000526020600020905b81548152906001019060200180831161247e57829003601f168201915b505050505090806005018054600181600116156101000203166002900480601f0160208091040260200160405190810160405280929190818152602001828054600181600116156101000203166002900480156125395780601f1061250e57610100808354040283529160200191612539565b820191906000526020600020905b81548152906001019060200180831161251c57829003601f168201915b5050505050905086565b828054600181600116156101000203166002900490600052602060002090601f016020900481019282601f1061258457805160ff19168380011785556125b2565b828001600101855582156125b2579182015b828111156125b1578251825591602001919060010190612596565b5b5090506125bf9190612643565b5090565b828054600181600116156101000203166002900490600052602060002090601f016020900481019282601f1061260457805160ff1916838001178555612632565b82800160010185558215612632579182015b82811115612631578251825591602001919060010190612616565b5b50905061263f9190612643565b5090565b61266591905b80821115612661576000816000905550600101612649565b5090565b9056fea165627a7a72305820e7bff47705d1e3dc39195c23b5509ff78139cd610d8e8b209d8ca0f7541f66430029",
  "source": "pragma solidity ^0.5.0;\n\ncontract Medicine {\n  struct Medicines {\n        uint id;\n        string mfg;\n        string name;\n        string expdate;\n        string date;\n        string shipped;\n  }\n  struct Shipcompany{\n        uint id;\n        string name;\n        string contact;\n        string tempcontrol;\n        string typicaldays;\n  }\n  struct Shipment{\n        uint id;\n        string companyname;\n        string medicinename;\n        string temp;\n        string senddate;\n        string expecteddeliverydate;\n  }\n  mapping(uint => Medicines) public medicines;\n  mapping(uint => Shipment) public shipments;\n  mapping(uint => Shipcompany) public shipcomps;\n\n  uint public count;\n  uint public countcomp;\n  uint public countship;\n  bool flag; bool flag1; bool flag2; bool flag3=false;\n\n  function addMedicine(string memory _mfg,string memory _name, string memory _expdate,string memory _date) public {\n        count ++;\n        for(uint i = 0;i<=count;i++){\n            flag = false;\n            for(uint j = 0;j<=count;j++){\n                if((keccak256(abi.encodePacked((_name))) == keccak256(abi.encodePacked((medicines[j].name))))){\n                medicines[count] = Medicines(count,_mfg, _name, medicines[j].expdate, medicines[j].date,'No');\n                flag = true;\n                    break;\n                }\n            }\n          }\n          if(flag==false)\n          medicines[count] = Medicines(count,_mfg, _name, _expdate, _date,'No');\n      }\n  function addShipment(string memory _companyname, string memory _medicinename,string memory _temp,string memory _senddate,string memory _expecteddeliverydate) public {\n    for(uint i = 0;i<=count;i++){\n      if((keccak256(abi.encodePacked((_medicinename))) == keccak256(abi.encodePacked((medicines[i].name))))){\n        medicines[i].shipped = 'Yes';\n        flag1 = true;\n      }\n    }\n    for(uint j = 0;j<=countcomp;j++){\n      if((keccak256(abi.encodePacked((_companyname))) == keccak256(abi.encodePacked((shipcomps[j].name))))){\n        flag2 = true;\n      }\n    }\n    if(flag1 == true && flag2 == true){\n      countship++;\n      shipments[countship] = Shipment(countship,_companyname,_medicinename,_temp,_senddate,_expecteddeliverydate);\n    }\n  }\n  function addShipcomp(string memory _name,string memory _contact, string memory _tempcontrol, string memory _typicaldays) public{\n    flag3 = false;\n    if(countcomp == 0)\n    {\n      countcomp++;\n      shipcomps[countcomp] = Shipcompany(countcomp,_name,_contact,_tempcontrol,_typicaldays);\n    }\n    else{\n      for(uint i = 0;i<=countcomp;i++)\n      {\n        if(keccak256(abi.encodePacked(_name)) == keccak256(abi.encodePacked(shipcomps[i].name))){\n          flag3 = true;\n        }\n      }\n      if(flag3 == false)\n        {\n          countcomp++;\n          shipcomps[countcomp] = Shipcompany(countcomp,_name,_contact,_tempcontrol,_typicaldays);\n        }\n    }\n  }\n  constructor() public{\n        addMedicine(\"Manufacturer1-M\",\"Medicine1-1\",\"2019-02-28\",\"2017-03-20\");\n        addMedicine(\"Manufacturer2-M\",\"Medicine2-2\",\"2020-05-04\",\"2016-02-20\");\n        addMedicine(\"Manufacturer3-M\",\"Medicine1-1\",\"2019-02-25\",\"2017-03-19\");\n        addMedicine(\"Manufacturer4-C\",\"Medicine1-1\",\"2019-02-25\",\"2017-03-19\");\n        addShipcomp(\"Company1\",\"+918140556655\",\"Yes\",\"5\");\n        addShipcomp(\"Company2\",\"+918140556666\",\"Yes\",\"6\");\n        addShipcomp(\"Company3\",\"+918142576550\",\"No\",\"5\");\n        addShipment(\"Company3\",\"Medicine2-2\",\"No\",\"2019-09-16\",\"2019-09-21\");\n        addShipment(\"Company1\",\"Medicine1-1\",\"No\",\"2019-09-16\",\"2019-09-21\");\n\n    }\n}",
  "sourcePath": "/home/vantstein/Documents/Sem 5/medicinetracking/contracts/Medicine.sol",
  "compiler": {
    "name": "solc",
    "version": "0.5.8+commit.23d335f2.Emscripten.clang"
  },
  "schemaVersion": "3.0.11",
  "updatedAt": "2019-09-18T19:13:54.982Z",
  "devdoc": {
    "methods": {}
  },
  "userdoc": {
    "methods": {}
  }
}