{
  "contractName": "Medicine",
  "abi": [
    {
      "constant": true,
      "inputs": [],
      "name": "count",
      "outputs": [
        {
          "name": "",
          "type": "uint256"
        }
      ],
      "payable": false,
      "stateMutability": "view",
      "type": "function"
    },
    {
      "constant": true,
      "inputs": [
        {
          "name": "",
          "type": "uint256"
        }
      ],
      "name": "shipments",
      "outputs": [
        {
          "name": "id",
          "type": "uint256"
        },
        {
          "name": "companyname",
          "type": "string"
        },
        {
          "name": "medicinename",
          "type": "string"
        },
        {
          "name": "temp",
          "type": "string"
        },
        {
          "name": "senddate",
          "type": "string"
        },
        {
          "name": "expecteddeliverydate",
          "type": "string"
        }
      ],
      "payable": false,
      "stateMutability": "view",
      "type": "function"
    },
    {
      "constant": true,
      "inputs": [],
      "name": "countcomp",
      "outputs": [
        {
          "name": "",
          "type": "uint256"
        }
      ],
      "payable": false,
      "stateMutability": "view",
      "type": "function"
    },
    {
      "constant": true,
      "inputs": [],
      "name": "countship",
      "outputs": [
        {
          "name": "",
          "type": "uint256"
        }
      ],
      "payable": false,
      "stateMutability": "view",
      "type": "function"
    },
    {
      "constant": true,
      "inputs": [
        {
          "name": "",
          "type": "uint256"
        }
      ],
      "name": "shipcomps",
      "outputs": [
        {
          "name": "id",
          "type": "uint256"
        },
        {
          "name": "name",
          "type": "string"
        },
        {
          "name": "contact",
          "type": "string"
        },
        {
          "name": "tempcontrol",
          "type": "string"
        },
        {
          "name": "typicaldays",
          "type": "string"
        }
      ],
      "payable": false,
      "stateMutability": "view",
      "type": "function"
    },
    {
      "constant": true,
      "inputs": [
        {
          "name": "",
          "type": "uint256"
        }
      ],
      "name": "medicines",
      "outputs": [
        {
          "name": "id",
          "type": "uint256"
        },
        {
          "name": "mfg",
          "type": "string"
        },
        {
          "name": "name",
          "type": "string"
        },
        {
          "name": "expdate",
          "type": "string"
        },
        {
          "name": "date",
          "type": "string"
        },
        {
          "name": "shipped",
          "type": "string"
        }
      ],
      "payable": false,
      "stateMutability": "view",
      "type": "function"
    },
    {
      "inputs": [],
      "payable": false,
      "stateMutability": "nonpayable",
      "type": "constructor"
    },
    {
      "constant": false,
      "inputs": [
        {
          "name": "_mfg",
          "type": "string"
        },
        {
          "name": "_name",
          "type": "string"
        },
        {
          "name": "_expdate",
          "type": "string"
        },
        {
          "name": "_date",
          "type": "string"
        }
      ],
      "name": "addMedicine",
      "outputs": [],
      "payable": false,
      "stateMutability": "nonpayable",
      "type": "function"
    },
    {
      "constant": false,
      "inputs": [
        {
          "name": "_companyname",
          "type": "string"
        },
        {
          "name": "_medicinename",
          "type": "string"
        },
        {
          "name": "_temp",
          "type": "string"
        },
        {
          "name": "_senddate",
          "type": "string"
        },
        {
          "name": "_expecteddeliverydate",
          "type": "string"
        }
      ],
      "name": "addShipment",
      "outputs": [],
      "payable": false,
      "stateMutability": "nonpayable",
      "type": "function"
    },
    {
      "constant": false,
      "inputs": [
        {
          "name": "_name",
          "type": "string"
        },
        {
          "name": "_contact",
          "type": "string"
        },
        {
          "name": "_tempcontrol",
          "type": "string"
        },
        {
          "name": "_typicaldays",
          "type": "string"
        }
      ],
      "name": "addShipcomp",
      "outputs": [],
      "payable": false,
      "stateMutability": "nonpayable",
      "type": "function"
    }
  ],
  "bytecode": "0x60806040523480156200001157600080fd5b50620000fa6040518060400160405280601081526020017f4d616e75666163747572657220312d4d000000000000000000000000000000008152506040518060400160405280600c81526020017f4d65646963696e6520312d3100000000000000000000000000000000000000008152506040518060400160405280600a81526020017f323031392d30322d3238000000000000000000000000000000000000000000008152506040518060400160405280600a81526020017f323031372d30332d323000000000000000000000000000000000000000000000815250620003b860201b60201c565b620001e26040518060400160405280601081526020017f4d616e75666163747572657220322d4d000000000000000000000000000000008152506040518060400160405280600c81526020017f4d65646963696e6520322d3200000000000000000000000000000000000000008152506040518060400160405280600a81526020017f323032302d30352d3034000000000000000000000000000000000000000000008152506040518060400160405280600a81526020017f323031362d30322d323000000000000000000000000000000000000000000000815250620003b860201b60201c565b620002ca6040518060400160405280601081526020017f4d616e75666163747572657220332d4d000000000000000000000000000000008152506040518060400160405280600c81526020017f4d65646963696e6520312d3100000000000000000000000000000000000000008152506040518060400160405280600a81526020017f323031392d30322d3235000000000000000000000000000000000000000000008152506040518060400160405280600a81526020017f323031372d30332d313900000000000000000000000000000000000000000000815250620003b860201b60201c565b620003b26040518060400160405280601081526020017f4d616e75666163747572657220342d43000000000000000000000000000000008152506040518060400160405280600c81526020017f4d65646963696e6520312d3100000000000000000000000000000000000000008152506040518060400160405280600a81526020017f323031392d30322d3235000000000000000000000000000000000000000000008152506040518060400160405280600a81526020017f323031372d30332d313900000000000000000000000000000000000000000000815250620003b860201b60201c565b620009c6565b60036000815480929190600101919050555060008090505b6003548111620007d2576000600660006101000a81548160ff02191690831515021790555060008090505b6003548111620007c35760008082815260200190815260200160002060020160405160200180828054600181600116156101000203166002900480156200047c5780601f10620004595761010080835404028352918201916200047c565b820191906000526020600020905b81548152906001019060200180831162000467575b505091505060405160208183030381529060405280519060200120856040516020018082805190602001908083835b60208310620004d05780518252602082019150602081019050602083039250620004ab565b6001836020036101000a038019825116818451168082178552505050505050905001915050604051602081830303815290604052805190602001201415620007b5576040518060c0016040528060035481526020018781526020018681526020016000808481526020019081526020016000206003018054600181600116156101000203166002900480601f016020809104026020016040519081016040528092919081815260200182805460018160011615610100020316600290048015620005de5780601f10620005b257610100808354040283529160200191620005de565b820191906000526020600020905b815481529060010190602001808311620005c057829003601f168201915b505050505081526020016000808481526020019081526020016000206004018054600181600116156101000203166002900480601f016020809104026020016040519081016040528092919081815260200182805460018160011615610100020316600290048015620006955780601f10620006695761010080835404028352916020019162000695565b820191906000526020600020905b8154815290600101906020018083116200067757829003601f168201915b505050505081526020016040518060400160405280600281526020017f4e6f00000000000000000000000000000000000000000000000000000000000081525081525060008060035481526020019081526020016000206000820151816000015560208201518160010190805190602001906200071492919062000917565b5060408201518160020190805190602001906200073392919062000917565b5060608201518160030190805190602001906200075292919062000917565b5060808201518160040190805190602001906200077192919062000917565b5060a08201518160050190805190602001906200079092919062000917565b509050506001600660006101000a81548160ff021916908315150217905550620007c3565b8080600101915050620003fb565b508080600101915050620003d0565b5060001515600660009054906101000a900460ff161515141562000911576040518060c0016040528060035481526020018581526020018481526020018381526020018281526020016040518060400160405280600281526020017f4e6f00000000000000000000000000000000000000000000000000000000000081525081525060008060035481526020019081526020016000206000820151816000015560208201518160010190805190602001906200089092919062000917565b506040820151816002019080519060200190620008af92919062000917565b506060820151816003019080519060200190620008ce92919062000917565b506080820151816004019080519060200190620008ed92919062000917565b5060a08201518160050190805190602001906200090c92919062000917565b509050505b50505050565b828054600181600116156101000203166002900490600052602060002090601f016020900481019282601f106200095a57805160ff19168380011785556200098b565b828001600101855582156200098b579182015b828111156200098a5782518255916020019190600101906200096d565b5b5090506200099a91906200099e565b5090565b620009c391905b80821115620009bf576000816000905550600101620009a5565b5090565b90565b61267a80620009d66000396000f3fe608060405234801561001057600080fd5b50600436106100935760003560e01c806360d60d2e1161006657806360d60d2e146108ab57806372f006b3146108c95780639f021bec14610b49578063bed58edb14610b67578063c85e766d14610d5957610093565b8063020d07a41461009857806306661abd146103185780632ac08a931461033657806350b09f3314610594575b600080fd5b610316600480360360808110156100ae57600080fd5b81019080803590602001906401000000008111156100cb57600080fd5b8201836020820111156100dd57600080fd5b803590602001918460018302840111640100000000831117156100ff57600080fd5b91908080601f016020809104026020016040519081016040528093929190818152602001838380828437600081840152601f19601f8201169050808301925050505050505091929192908035906020019064010000000081111561016257600080fd5b82018360208201111561017457600080fd5b8035906020019184600183028401116401000000008311171561019657600080fd5b91908080601f016020809104026020016040519081016040528093929190818152602001838380828437600081840152601f19601f820116905080830192505050505050509192919290803590602001906401000000008111156101f957600080fd5b82018360208201111561020b57600080fd5b8035906020019184600183028401116401000000008311171561022d57600080fd5b91908080601f016020809104026020016040519081016040528093929190818152602001838380828437600081840152601f19601f8201169050808301925050505050505091929192908035906020019064010000000081111561029057600080fd5b8201836020820111156102a257600080fd5b803590602001918460018302840111640100000000831117156102c457600080fd5b91908080601f016020809104026020016040519081016040528093929190818152602001838380828437600081840152601f19601f820116905080830192505050505050509192919290505050610fb7565b005b6103206114ed565b6040518082815260200191505060405180910390f35b6103626004803603602081101561034c57600080fd5b81019080803590602001909291905050506114f3565b60405180878152602001806020018060200180602001806020018060200186810386528b818151815260200191508051906020019080838360005b838110156103b857808201518184015260208101905061039d565b50505050905090810190601f1680156103e55780820380516001836020036101000a031916815260200191505b5086810385528a818151815260200191508051906020019080838360005b8381101561041e578082015181840152602081019050610403565b50505050905090810190601f16801561044b5780820380516001836020036101000a031916815260200191505b50868103845289818151815260200191508051906020019080838360005b83811015610484578082015181840152602081019050610469565b50505050905090810190601f1680156104b15780820380516001836020036101000a031916815260200191505b50868103835288818151815260200191508051906020019080838360005b838110156104ea5780820151818401526020810190506104cf565b50505050905090810190601f1680156105175780820380516001836020036101000a031916815260200191505b50868103825287818151815260200191508051906020019080838360005b83811015610550578082015181840152602081019050610535565b50505050905090810190601f16801561057d5780820380516001836020036101000a031916815260200191505b509b50505050505050505050505060405180910390f35b6108a9600480360360a08110156105aa57600080fd5b81019080803590602001906401000000008111156105c757600080fd5b8201836020820111156105d957600080fd5b803590602001918460018302840111640100000000831117156105fb57600080fd5b91908080601f016020809104026020016040519081016040528093929190818152602001838380828437600081840152601f19601f8201169050808301925050505050505091929192908035906020019064010000000081111561065e57600080fd5b82018360208201111561067057600080fd5b8035906020019184600183028401116401000000008311171561069257600080fd5b91908080601f016020809104026020016040519081016040528093929190818152602001838380828437600081840152601f19601f820116905080830192505050505050509192919290803590602001906401000000008111156106f557600080fd5b82018360208201111561070757600080fd5b8035906020019184600183028401116401000000008311171561072957600080fd5b91908080601f016020809104026020016040519081016040528093929190818152602001838380828437600081840152601f19601f8201169050808301925050505050505091929192908035906020019064010000000081111561078c57600080fd5b82018360208201111561079e57600080fd5b803590602001918460018302840111640100000000831117156107c057600080fd5b91908080601f016020809104026020016040519081016040528093929190818152602001838380828437600081840152601f19601f8201169050808301925050505050505091929192908035906020019064010000000081111561082357600080fd5b82018360208201111561083557600080fd5b8035906020019184600183028401116401000000008311171561085757600080fd5b91908080601f016020809104026020016040519081016040528093929190818152602001838380828437600081840152601f19601f820116905080830192505050505050509192919290505050611827565b005b6108b3611c3d565b6040518082815260200191505060405180910390f35b610b47600480360360808110156108df57600080fd5b81019080803590602001906401000000008111156108fc57600080fd5b82018360208201111561090e57600080fd5b8035906020019184600183028401116401000000008311171561093057600080fd5b91908080601f016020809104026020016040519081016040528093929190818152602001838380828437600081840152601f19601f8201169050808301925050505050505091929192908035906020019064010000000081111561099357600080fd5b8201836020820111156109a557600080fd5b803590602001918460018302840111640100000000831117156109c757600080fd5b91908080601f016020809104026020016040519081016040528093929190818152602001838380828437600081840152601f19601f82011690508083019250505050505050919291929080359060200190640100000000811115610a2a57600080fd5b820183602082011115610a3c57600080fd5b80359060200191846001830284011164010000000083111715610a5e57600080fd5b91908080601f016020809104026020016040519081016040528093929190818152602001838380828437600081840152601f19601f82011690508083019250505050505050919291929080359060200190640100000000811115610ac157600080fd5b820183602082011115610ad357600080fd5b80359060200191846001830284011164010000000083111715610af557600080fd5b91908080601f016020809104026020016040519081016040528093929190818152602001838380828437600081840152601f19601f820116905080830192505050505050509192919290505050611c43565b005b610b51611f59565b6040518082815260200191505060405180910390f35b610b9360048036036020811015610b7d57600080fd5b8101908080359060200190929190505050611f5f565b6040518086815260200180602001806020018060200180602001858103855289818151815260200191508051906020019080838360005b83811015610be5578082015181840152602081019050610bca565b50505050905090810190601f168015610c125780820380516001836020036101000a031916815260200191505b50858103845288818151815260200191508051906020019080838360005b83811015610c4b578082015181840152602081019050610c30565b50505050905090810190601f168015610c785780820380516001836020036101000a031916815260200191505b50858103835287818151815260200191508051906020019080838360005b83811015610cb1578082015181840152602081019050610c96565b50505050905090810190601f168015610cde5780820380516001836020036101000a031916815260200191505b50858103825286818151815260200191508051906020019080838360005b83811015610d17578082015181840152602081019050610cfc565b50505050905090810190601f168015610d445780820380516001836020036101000a031916815260200191505b50995050505050505050505060405180910390f35b610d8560048036036020811015610d6f57600080fd5b81019080803590602001909291905050506121f5565b60405180878152602001806020018060200180602001806020018060200186810386528b818151815260200191508051906020019080838360005b83811015610ddb578082015181840152602081019050610dc0565b50505050905090810190601f168015610e085780820380516001836020036101000a031916815260200191505b5086810385528a818151815260200191508051906020019080838360005b83811015610e41578082015181840152602081019050610e26565b50505050905090810190601f168015610e6e5780820380516001836020036101000a031916815260200191505b50868103845289818151815260200191508051906020019080838360005b83811015610ea7578082015181840152602081019050610e8c565b50505050905090810190601f168015610ed45780820380516001836020036101000a031916815260200191505b50868103835288818151815260200191508051906020019080838360005b83811015610f0d578082015181840152602081019050610ef2565b50505050905090810190601f168015610f3a5780820380516001836020036101000a031916815260200191505b50868103825287818151815260200191508051906020019080838360005b83811015610f73578082015181840152602081019050610f58565b50505050905090810190601f168015610fa05780820380516001836020036101000a031916815260200191505b509b50505050505050505050505060405180910390f35b60036000815480929190600101919050555060008090505b60035481116113b3576000600660006101000a81548160ff02191690831515021790555060008090505b60035481116113a55760008082815260200190815260200160002060020160405160200180828054600181600116156101000203166002900480156110755780601f10611053576101008083540402835291820191611075565b820191906000526020600020905b815481529060010190602001808311611061575b505091505060405160208183030381529060405280519060200120856040516020018082805190602001908083835b602083106110c757805182526020820191506020810190506020830392506110a4565b6001836020036101000a038019825116818451168082178552505050505050905001915050604051602081830303815290604052805190602001201415611398576040518060c0016040528060035481526020018781526020018681526020016000808481526020019081526020016000206003018054600181600116156101000203166002900480601f0160208091040260200160405190810160405280929190818152602001828054600181600116156101000203166002900480156111d05780601f106111a5576101008083540402835291602001916111d0565b820191906000526020600020905b8154815290600101906020018083116111b357829003601f168201915b505050505081526020016000808481526020019081526020016000206004018054600181600116156101000203166002900480601f0160208091040260200160405190810160405280929190818152602001828054600181600116156101000203166002900480156112835780601f1061125857610100808354040283529160200191611283565b820191906000526020600020905b81548152906001019060200180831161126657829003601f168201915b505050505081526020016040518060400160405280600281526020017f4e6f0000000000000000000000000000000000000000000000000000000000008152508152506000806003548152602001908152602001600020600082015181600001556020820151816001019080519060200190611300929190612529565b50604082015181600201908051906020019061131d929190612529565b50606082015181600301908051906020019061133a929190612529565b506080820151816004019080519060200190611357929190612529565b5060a0820151816005019080519060200190611374929190612529565b509050506001600660006101000a81548160ff0219169083151502179055506113a5565b8080600101915050610ff9565b508080600101915050610fcf565b5060001515600660009054906101000a900460ff16151514156114e7576040518060c0016040528060035481526020018581526020018481526020018381526020018281526020016040518060400160405280600281526020017f4e6f000000000000000000000000000000000000000000000000000000000000815250815250600080600354815260200190815260200160002060008201518160000155602082015181600101908051906020019061146e929190612529565b50604082015181600201908051906020019061148b929190612529565b5060608201518160030190805190602001906114a8929190612529565b5060808201518160040190805190602001906114c5929190612529565b5060a08201518160050190805190602001906114e2929190612529565b509050505b50505050565b60035481565b6001602052806000526040600020600091509050806000015490806001018054600181600116156101000203166002900480601f0160208091040260200160405190810160405280929190818152602001828054600181600116156101000203166002900480156115a55780601f1061157a576101008083540402835291602001916115a5565b820191906000526020600020905b81548152906001019060200180831161158857829003601f168201915b505050505090806002018054600181600116156101000203166002900480601f0160208091040260200160405190810160405280929190818152602001828054600181600116156101000203166002900480156116435780601f1061161857610100808354040283529160200191611643565b820191906000526020600020905b81548152906001019060200180831161162657829003601f168201915b505050505090806003018054600181600116156101000203166002900480601f0160208091040260200160405190810160405280929190818152602001828054600181600116156101000203166002900480156116e15780601f106116b6576101008083540402835291602001916116e1565b820191906000526020600020905b8154815290600101906020018083116116c457829003601f168201915b505050505090806004018054600181600116156101000203166002900480601f01602080910402602001604051908101604052809291908181526020018280546001816001161561010002031660029004801561177f5780601f106117545761010080835404028352916020019161177f565b820191906000526020600020905b81548152906001019060200180831161176257829003601f168201915b505050505090806005018054600181600116156101000203166002900480601f01602080910402602001604051908101604052809291908181526020018280546001816001161561010002031660029004801561181d5780601f106117f25761010080835404028352916020019161181d565b820191906000526020600020905b81548152906001019060200180831161180057829003601f168201915b5050505050905086565b60008090505b6003548110156119c55760008082815260200190815260200160002060020160405160200180828054600181600116156101000203166002900480156118aa5780601f106118885761010080835404028352918201916118aa565b820191906000526020600020905b815481529060010190602001808311611896575b505091505060405160208183030381529060405280519060200120856040516020018082805190602001908083835b602083106118fc57805182526020820191506020810190506020830392506118d9565b6001836020036101000a0380198251168184511680821785525050505050509050019150506040516020818303038152906040528051906020012014156119b8576040518060400160405280600381526020017f5965730000000000000000000000000000000000000000000000000000000000815250600080838152602001908152602001600020600501908051906020019061199b9291906125a9565b506001600660016101000a81548160ff0219169083151502179055505b808060010191505061182d565b5060008090505b6004548111611b0557600260008281526020019081526020016000206001016040516020018082805460018160011615610100020316600290048015611a495780601f10611a27576101008083540402835291820191611a49565b820191906000526020600020905b815481529060010190602001808311611a35575b505091505060405160208183030381529060405280519060200120866040516020018082805190602001908083835b60208310611a9b5780518252602082019150602081019050602083039250611a78565b6001836020036101000a038019825116818451168082178552505050505050905001915050604051602081830303815290604052805190602001201415611af8576001600660026101000a81548160ff0219169083151502179055505b80806001019150506119cc565b5060011515600660019054906101000a900460ff161515148015611b3c575060011515600660029054906101000a900460ff161515145b15611c36576005600081548092919060010191905055506040518060c00160405280600554815260200186815260200185815260200184815260200183815260200182815250600160006005548152602001908152602001600020600082015181600001556020820151816001019080519060200190611bbd929190612529565b506040820151816002019080519060200190611bda929190612529565b506060820151816003019080519060200190611bf7929190612529565b506080820151816004019080519060200190611c14929190612529565b5060a0820151816005019080519060200190611c31929190612529565b509050505b5050505050565b60045481565b60006004541415611d24576004600081548092919060010191905055506040518060a00160405280600454815260200185815260200184815260200183815260200182815250600260006004548152602001908152602001600020600082015181600001556020820151816001019080519060200190611cc4929190612529565b506040820151816002019080519060200190611ce1929190612529565b506060820151816003019080519060200190611cfe929190612529565b506080820151816004019080519060200190611d1b929190612529565b50905050611f53565b60008090505b6004548111611f5157600260008281526020019081526020016000206001016040516020018082805460018160011615610100020316600290048015611da75780601f10611d85576101008083540402835291820191611da7565b820191906000526020600020905b815481529060010190602001808311611d93575b505091505060405160208183030381529060405280519060200120856040516020018082805190602001908083835b60208310611df95780518252602082019150602081019050602083039250611dd6565b6001836020036101000a038019825116818451168082178552505050505050905001915050604051602081830303815290604052805190602001201415611e56576001600660036101000a81548160ff0219169083151502179055505b60001515600660039054906101000a900460ff1615151415611f44576004600081548092919060010191905055506040518060a00160405280600454815260200186815260200185815260200184815260200183815250600260006004548152602001908152602001600020600082015181600001556020820151816001019080519060200190611ee8929190612529565b506040820151816002019080519060200190611f05929190612529565b506060820151816003019080519060200190611f22929190612529565b506080820151816004019080519060200190611f3f929190612529565b509050505b8080600101915050611d2a565b505b50505050565b60055481565b6002602052806000526040600020600091509050806000015490806001018054600181600116156101000203166002900480601f0160208091040260200160405190810160405280929190818152602001828054600181600116156101000203166002900480156120115780601f10611fe657610100808354040283529160200191612011565b820191906000526020600020905b815481529060010190602001808311611ff457829003601f168201915b505050505090806002018054600181600116156101000203166002900480601f0160208091040260200160405190810160405280929190818152602001828054600181600116156101000203166002900480156120af5780601f10612084576101008083540402835291602001916120af565b820191906000526020600020905b81548152906001019060200180831161209257829003601f168201915b505050505090806003018054600181600116156101000203166002900480601f01602080910402602001604051908101604052809291908181526020018280546001816001161561010002031660029004801561214d5780601f106121225761010080835404028352916020019161214d565b820191906000526020600020905b81548152906001019060200180831161213057829003601f168201915b505050505090806004018054600181600116156101000203166002900480601f0160208091040260200160405190810160405280929190818152602001828054600181600116156101000203166002900480156121eb5780601f106121c0576101008083540402835291602001916121eb565b820191906000526020600020905b8154815290600101906020018083116121ce57829003601f168201915b5050505050905085565b6000602052806000526040600020600091509050806000015490806001018054600181600116156101000203166002900480601f0160208091040260200160405190810160405280929190818152602001828054600181600116156101000203166002900480156122a75780601f1061227c576101008083540402835291602001916122a7565b820191906000526020600020905b81548152906001019060200180831161228a57829003601f168201915b505050505090806002018054600181600116156101000203166002900480601f0160208091040260200160405190810160405280929190818152602001828054600181600116156101000203166002900480156123455780601f1061231a57610100808354040283529160200191612345565b820191906000526020600020905b81548152906001019060200180831161232857829003601f168201915b505050505090806003018054600181600116156101000203166002900480601f0160208091040260200160405190810160405280929190818152602001828054600181600116156101000203166002900480156123e35780601f106123b8576101008083540402835291602001916123e3565b820191906000526020600020905b8154815290600101906020018083116123c657829003601f168201915b505050505090806004018054600181600116156101000203166002900480601f0160208091040260200160405190810160405280929190818152602001828054600181600116156101000203166002900480156124815780601f1061245657610100808354040283529160200191612481565b820191906000526020600020905b81548152906001019060200180831161246457829003601f168201915b505050505090806005018054600181600116156101000203166002900480601f01602080910402602001604051908101604052809291908181526020018280546001816001161561010002031660029004801561251f5780601f106124f45761010080835404028352916020019161251f565b820191906000526020600020905b81548152906001019060200180831161250257829003601f168201915b5050505050905086565b828054600181600116156101000203166002900490600052602060002090601f016020900481019282601f1061256a57805160ff1916838001178555612598565b82800160010185558215612598579182015b8281111561259757825182559160200191906001019061257c565b5b5090506125a59190612629565b5090565b828054600181600116156101000203166002900490600052602060002090601f016020900481019282601f106125ea57805160ff1916838001178555612618565b82800160010185558215612618579182015b828111156126175782518255916020019190600101906125fc565b5b5090506126259190612629565b5090565b61264b91905b8082111561264757600081600090555060010161262f565b5090565b9056fea165627a7a7230582010b4bce70122a8fad7133cadd7fd923e167e2cc368423a51d9d48b5a26f58dca0029",
  "source": "pragma solidity ^0.5.0;\n\ncontract Medicine {\n  struct Medicines {\n        uint id;\n        string mfg;\n        string name;\n        string expdate;\n        string date;\n        string shipped;\n  }\n  struct Shipcompany{\n        uint id;\n        string name;\n        string contact;\n        string tempcontrol;\n        string typicaldays;\n  }\n  struct Shipment{\n        uint id;\n        string companyname;\n        string medicinename;\n        string temp;\n        string senddate;\n        string expecteddeliverydate;\n  }\n  mapping(uint => Medicines) public medicines;\n  mapping(uint => Shipment) public shipments;\n  mapping(uint => Shipcompany) public shipcomps;\n\n  uint public count;\n  uint public countcomp;\n  uint public countship;\n  bool flag; bool flag1; bool flag2; bool flag3;\n\n  function addMedicine(string memory _mfg,string memory _name, string memory _expdate,string memory _date) public {\n        count ++;\n        for(uint i = 0;i<=count;i++){\n            flag = false;\n            for(uint j = 0;j<=count;j++){\n                if((keccak256(abi.encodePacked((_name))) == keccak256(abi.encodePacked((medicines[j].name))))){\n                medicines[count] = Medicines(count,_mfg, _name, medicines[j].expdate, medicines[j].date,'No');\n                flag = true;\n                    break;\n                }\n            }\n          }\n          if(flag==false)\n          medicines[count] = Medicines(count,_mfg, _name, _expdate, _date,'No');\n      }\n  function addShipment(string memory _companyname, string memory _medicinename,string memory _temp,string memory _senddate,string memory _expecteddeliverydate) public {\n    for(uint i = 0;i<count;i++){\n      if((keccak256(abi.encodePacked((_medicinename))) == keccak256(abi.encodePacked((medicines[i].name))))){\n        medicines[i].shipped = 'Yes';\n        flag1 = true;\n      }\n    }\n    for(uint j = 0;j<=countcomp;j++){\n      if((keccak256(abi.encodePacked((_companyname))) == keccak256(abi.encodePacked((shipcomps[j].name))))){\n        flag2 = true;\n      }\n    }\n    if(flag1 == true && flag2 == true){\n      countship++;\n      shipments[countship] = Shipment(countship,_companyname,_medicinename,_temp,_senddate,_expecteddeliverydate);\n    }\n  }\n  function addShipcomp(string memory _name,string memory _contact, string memory _tempcontrol, string memory _typicaldays) public{\n    if(countcomp == 0)\n    {\n      countcomp++;\n      shipcomps[countcomp] = Shipcompany(countcomp,_name,_contact,_tempcontrol,_typicaldays);\n    }\n    else{\n      for(uint i = 0;i<=countcomp;i++)\n      {\n        if(keccak256(abi.encodePacked(_name)) == keccak256(abi.encodePacked(shipcomps[i].name))){\n          flag3 = true;\n        }\n        if(flag3 == false)\n        {\n          countcomp++;\n          shipcomps[countcomp] = Shipcompany(countcomp,_name,_contact,_tempcontrol,_typicaldays);\n        }\n      }\n    }\n  }\n  constructor() public{\n        addMedicine(\"Manufacturer 1-M\",\"Medicine 1-1\",\"2019-02-28\",\"2017-03-20\");\n        addMedicine(\"Manufacturer 2-M\",\"Medicine 2-2\",\"2020-05-04\",\"2016-02-20\");\n        addMedicine(\"Manufacturer 3-M\",\"Medicine 1-1\",\"2019-02-25\",\"2017-03-19\");\n        addMedicine(\"Manufacturer 4-C\",\"Medicine 1-1\",\"2019-02-25\",\"2017-03-19\");\n\n    }\n}\n",
  "sourcePath": "/home/vantstein/Documents/Sem 5/medicinetracking/contracts/Medicine.sol",
  "compiler": {
    "name": "solc",
    "version": "0.5.8+commit.23d335f2.Emscripten.clang"
  },
  "schemaVersion": "3.0.11",
  "updatedAt": "2019-09-16T16:28:03.452Z",
  "devdoc": {
    "methods": {}
  },
  "userdoc": {
    "methods": {}
  }
}