{
  "contractName": "Medicine",
  "abi": [
    {
      "constant": true,
      "inputs": [],
      "name": "count",
      "outputs": [
        {
          "name": "",
          "type": "uint256"
        }
      ],
      "payable": false,
      "stateMutability": "view",
      "type": "function"
    },
    {
      "constant": true,
      "inputs": [
        {
          "name": "",
          "type": "uint256"
        }
      ],
      "name": "medicines",
      "outputs": [
        {
          "name": "id",
          "type": "uint256"
        },
        {
          "name": "name",
          "type": "string"
        },
        {
          "name": "expdate",
          "type": "string"
        },
        {
          "name": "date",
          "type": "string"
        }
      ],
      "payable": false,
      "stateMutability": "view",
      "type": "function"
    },
    {
      "inputs": [],
      "payable": false,
      "stateMutability": "nonpayable",
      "type": "constructor"
    },
    {
      "constant": false,
      "inputs": [
        {
          "name": "_name",
          "type": "string"
        },
        {
          "name": "_expdate",
          "type": "string"
        },
        {
          "name": "_date",
          "type": "string"
        }
      ],
      "name": "addMedicine",
      "outputs": [],
      "payable": false,
      "stateMutability": "nonpayable",
      "type": "function"
    },
    {
      "constant": true,
      "inputs": [
        {
          "name": "i",
          "type": "uint256"
        }
      ],
      "name": "getname",
      "outputs": [
        {
          "name": "",
          "type": "string"
        }
      ],
      "payable": false,
      "stateMutability": "view",
      "type": "function"
    },
    {
      "constant": true,
      "inputs": [
        {
          "name": "i",
          "type": "uint256"
        }
      ],
      "name": "getdate",
      "outputs": [
        {
          "name": "",
          "type": "string"
        }
      ],
      "payable": false,
      "stateMutability": "view",
      "type": "function"
    },
    {
      "constant": true,
      "inputs": [
        {
          "name": "data",
          "type": "bytes32"
        }
      ],
      "name": "bytes32ToString",
      "outputs": [
        {
          "name": "",
          "type": "string"
        }
      ],
      "payable": false,
      "stateMutability": "pure",
      "type": "function"
    },
    {
      "constant": true,
      "inputs": [
        {
          "name": "i",
          "type": "uint256"
        }
      ],
      "name": "getexpdate",
      "outputs": [
        {
          "name": "",
          "type": "string"
        }
      ],
      "payable": false,
      "stateMutability": "view",
      "type": "function"
    },
    {
      "constant": true,
      "inputs": [
        {
          "name": "_name",
          "type": "string"
        }
      ],
      "name": "searchexpdate",
      "outputs": [
        {
          "name": "",
          "type": "string"
        }
      ],
      "payable": false,
      "stateMutability": "view",
      "type": "function"
    },
    {
      "constant": true,
      "inputs": [
        {
          "name": "_name",
          "type": "string"
        }
      ],
      "name": "searchdate",
      "outputs": [
        {
          "name": "",
          "type": "string"
        }
      ],
      "payable": false,
      "stateMutability": "view",
      "type": "function"
    }
  ],
  "bytecode": "0x60806040523480156200001157600080fd5b50620000c46040518060400160405280600a81526020017f4d65646963696e652031000000000000000000000000000000000000000000008152506040518060400160405280600a81526020017f323031392d30322d3238000000000000000000000000000000000000000000008152506040518060400160405280600a81526020017f323031372d30332d3230000000000000000000000000000000000000000000008152506200017c60201b60201c565b620001766040518060400160405280600a81526020017f4d65646963696e652032000000000000000000000000000000000000000000008152506040518060400160405280600a81526020017f30342d30352d32303230000000000000000000000000000000000000000000008152506040518060400160405280600a81526020017f32302d30322d32303136000000000000000000000000000000000000000000008152506200017c60201b60201c565b620002e3565b60016000815480929190600101919050555060405180608001604052806001548152602001848152602001838152602001828152506000806001548152602001908152602001600020600082015181600001556020820151816001019080519060200190620001ed92919062000234565b5060408201518160020190805190602001906200020c92919062000234565b5060608201518160030190805190602001906200022b92919062000234565b50905050505050565b828054600181600116156101000203166002900490600052602060002090601f016020900481019282601f106200027757805160ff1916838001178555620002a8565b82800160010185558215620002a8579182015b82811115620002a75782518255916020019190600101906200028a565b5b509050620002b79190620002bb565b5090565b620002e091905b80821115620002dc576000816000905550600101620002c2565b5090565b90565b61137180620002f36000396000f3fe608060405234801561001057600080fd5b50600436106100935760003560e01c806321c92bdf1161006657806321c92bdf146103ed578063360e2ba3146104945780639201de55146105c8578063c85e766d1461066f578063eb946a33146107f557610093565b80630202ace114610098578063030c790f1461013f57806306661abd14610328578063152604b814610346575b600080fd5b6100c4600480360360208110156100ae57600080fd5b8101908080359060200190929190505050610929565b6040518080602001828103825283818151815260200191508051906020019080838360005b838110156101045780820151818401526020810190506100e9565b50505050905090810190601f1680156101315780820380516001836020036101000a031916815260200191505b509250505060405180910390f35b6103266004803603606081101561015557600080fd5b810190808035906020019064010000000081111561017257600080fd5b82018360208201111561018457600080fd5b803590602001918460018302840111640100000000831117156101a657600080fd5b91908080601f016020809104026020016040519081016040528093929190818152602001838380828437600081840152601f19601f8201169050808301925050505050505091929192908035906020019064010000000081111561020957600080fd5b82018360208201111561021b57600080fd5b8035906020019184600183028401116401000000008311171561023d57600080fd5b91908080601f016020809104026020016040519081016040528093929190818152602001838380828437600081840152601f19601f820116905080830192505050505050509192919290803590602001906401000000008111156102a057600080fd5b8201836020820111156102b257600080fd5b803590602001918460018302840111640100000000831117156102d457600080fd5b91908080601f016020809104026020016040519081016040528093929190818152602001838380828437600081840152601f19601f8201169050808301925050505050505091929192905050506109e0565b005b610330610a92565b6040518082815260200191505060405180910390f35b6103726004803603602081101561035c57600080fd5b8101908080359060200190929190505050610a98565b6040518080602001828103825283818151815260200191508051906020019080838360005b838110156103b2578082015181840152602081019050610397565b50505050905090810190601f1680156103df5780820380516001836020036101000a031916815260200191505b509250505060405180910390f35b6104196004803603602081101561040357600080fd5b8101908080359060200190929190505050610b4f565b6040518080602001828103825283818151815260200191508051906020019080838360005b8381101561045957808201518184015260208101905061043e565b50505050905090810190601f1680156104865780820380516001836020036101000a031916815260200191505b509250505060405180910390f35b61054d600480360360208110156104aa57600080fd5b81019080803590602001906401000000008111156104c757600080fd5b8201836020820111156104d957600080fd5b803590602001918460018302840111640100000000831117156104fb57600080fd5b91908080601f016020809104026020016040519081016040528093929190818152602001838380828437600081840152601f19601f820116905080830192505050505050509192919290505050610c06565b6040518080602001828103825283818151815260200191508051906020019080838360005b8381101561058d578082015181840152602081019050610572565b50505050905090810190601f1680156105ba5780820380516001836020036101000a031916815260200191505b509250505060405180910390f35b6105f4600480360360208110156105de57600080fd5b8101908080359060200190929190505050610de8565b6040518080602001828103825283818151815260200191508051906020019080838360005b83811015610634578082015181840152602081019050610619565b50505050905090810190601f1680156106615780820380516001836020036101000a031916815260200191505b509250505060405180910390f35b61069b6004803603602081101561068557600080fd5b8101908080359060200190929190505050610ec6565b60405180858152602001806020018060200180602001848103845287818151815260200191508051906020019080838360005b838110156106e95780820151818401526020810190506106ce565b50505050905090810190601f1680156107165780820380516001836020036101000a031916815260200191505b50848103835286818151815260200191508051906020019080838360005b8381101561074f578082015181840152602081019050610734565b50505050905090810190601f16801561077c5780820380516001836020036101000a031916815260200191505b50848103825285818151815260200191508051906020019080838360005b838110156107b557808201518184015260208101905061079a565b50505050905090810190601f1680156107e25780820380516001836020036101000a031916815260200191505b5097505050505050505060405180910390f35b6108ae6004803603602081101561080b57600080fd5b810190808035906020019064010000000081111561082857600080fd5b82018360208201111561083a57600080fd5b8035906020019184600183028401116401000000008311171561085c57600080fd5b91908080601f016020809104026020016040519081016040528093929190818152602001838380828437600081840152601f19601f8201169050808301925050505050505091929192905050506110be565b6040518080602001828103825283818151815260200191508051906020019080838360005b838110156108ee5780820151818401526020810190506108d3565b50505050905090810190601f16801561091b5780820380516001836020036101000a031916815260200191505b509250505060405180910390f35b60606000808381526020019081526020016000206001018054600181600116156101000203166002900480601f0160208091040260200160405190810160405280929190818152602001828054600181600116156101000203166002900480156109d45780601f106109a9576101008083540402835291602001916109d4565b820191906000526020600020905b8154815290600101906020018083116109b757829003601f168201915b50505050509050919050565b60016000815480929190600101919050555060405180608001604052806001548152602001848152602001838152602001828152506000806001548152602001908152602001600020600082015181600001556020820151816001019080519060200190610a4f9291906112a0565b506040820151816002019080519060200190610a6c9291906112a0565b506060820151816003019080519060200190610a899291906112a0565b50905050505050565b60015481565b60606000808381526020019081526020016000206002018054600181600116156101000203166002900480601f016020809104026020016040519081016040528092919081815260200182805460018160011615610100020316600290048015610b435780601f10610b1857610100808354040283529160200191610b43565b820191906000526020600020905b815481529060010190602001808311610b2657829003601f168201915b50505050509050919050565b60606000808381526020019081526020016000206003018054600181600116156101000203166002900480601f016020809104026020016040519081016040528092919081815260200182805460018160011615610100020316600290048015610bfa5780601f10610bcf57610100808354040283529160200191610bfa565b820191906000526020600020905b815481529060010190602001808311610bdd57829003601f168201915b50505050509050919050565b60606000600190505b6001548111610de157826040516020018082805190602001908083835b60208310610c4f5780518252602082019150602081019050602083039250610c2c565b6001836020036101000a038019825116818451168082178552505050505050905001915050604051602081830303815290604052805190602001206000808381526020019081526020016000206001016040516020018082805460018160011615610100020316600290048015610cfd5780601f10610cdb576101008083540402835291820191610cfd565b820191906000526020600020905b815481529060010190602001808311610ce9575b5050915050604051602081830303815290604052805190602001201415610dd4576000808281526020019081526020016000206003018054600181600116156101000203166002900480601f016020809104026020016040519081016040528092919081815260200182805460018160011615610100020316600290048015610dc75780601f10610d9c57610100808354040283529160200191610dc7565b820191906000526020600020905b815481529060010190602001808311610daa57829003601f168201915b5050505050915050610de3565b8080600101915050610c0f565b505b919050565b60608060206040519080825280601f01601f191660200182016040528015610e1f5781602001600182028038833980820191505090505b50905060008090505b6020811015610ebc5760008160080260020a8560001c0260001b9050600060f81b817effffffffffffffffffffffffffffffffffffffffffffffffffffffffffffff191614610eae5780838381518110610e7e57fe5b60200101907effffffffffffffffffffffffffffffffffffffffffffffffffffffffffffff1916908160001a9053505b508080600101915050610e28565b5080915050919050565b6000602052806000526040600020600091509050806000015490806001018054600181600116156101000203166002900480601f016020809104026020016040519081016040528092919081815260200182805460018160011615610100020316600290048015610f785780601f10610f4d57610100808354040283529160200191610f78565b820191906000526020600020905b815481529060010190602001808311610f5b57829003601f168201915b505050505090806002018054600181600116156101000203166002900480601f0160208091040260200160405190810160405280929190818152602001828054600181600116156101000203166002900480156110165780601f10610feb57610100808354040283529160200191611016565b820191906000526020600020905b815481529060010190602001808311610ff957829003601f168201915b505050505090806003018054600181600116156101000203166002900480601f0160208091040260200160405190810160405280929190818152602001828054600181600116156101000203166002900480156110b45780601f10611089576101008083540402835291602001916110b4565b820191906000526020600020905b81548152906001019060200180831161109757829003601f168201915b5050505050905084565b60606000600190505b600154811161129957826040516020018082805190602001908083835b6020831061110757805182526020820191506020810190506020830392506110e4565b6001836020036101000a0380198251168184511680821785525050505050509050019150506040516020818303038152906040528051906020012060008083815260200190815260200160002060010160405160200180828054600181600116156101000203166002900480156111b55780601f106111935761010080835404028352918201916111b5565b820191906000526020600020905b8154815290600101906020018083116111a1575b505091505060405160208183030381529060405280519060200120141561128c576000808281526020019081526020016000206002018054600181600116156101000203166002900480601f01602080910402602001604051908101604052809291908181526020018280546001816001161561010002031660029004801561127f5780601f106112545761010080835404028352916020019161127f565b820191906000526020600020905b81548152906001019060200180831161126257829003601f168201915b505050505091505061129b565b80806001019150506110c7565b505b919050565b828054600181600116156101000203166002900490600052602060002090601f016020900481019282601f106112e157805160ff191683800117855561130f565b8280016001018555821561130f579182015b8281111561130e5782518255916020019190600101906112f3565b5b50905061131c9190611320565b5090565b61134291905b8082111561133e576000816000905550600101611326565b5090565b9056fea165627a7a723058200a87224037d08e476d0ede7499a1c02f341885dacc4868b030881b479d5bf4700029",
  "source": "pragma solidity ^0.5.0;\n\n\ncontract Medicine {\n  //string h; string date; uint count = 0;\n  struct Medicines {\n        uint id;\n        string name;\n        string expdate;\n        string date;\n    }\n  mapping(uint => Medicines) public medicines;\n  //mapping(address=>bool) public medicalorg;\n  uint public count;\n  function addMedicine(string memory _name, string memory _expdate,string memory _date) public {\n        count ++;\n        medicines[count] = Medicines(count, _name, _expdate, _date);\n    }\n    constructor () public {\n        addMedicine(\"Medicine 1\",\"2019-02-28\",\"2017-03-20\");\n        addMedicine(\"Medicine 2\",\"04-05-2020\",\"20-02-2016\");\n    }\n  /*function set(string memory _h,string memory _date) public{\n    h = _h;\n    date = _date;\n  }*/\n  function getname(uint i) public view returns(string memory){\n    return medicines[i].name;\n  }\n  function getdate(uint i) public view returns(string memory){\n    return medicines[i].date;\n  }\n  function bytes32ToString (bytes32 data) public pure returns (string memory) {\n    bytes memory bytesString = new bytes(32);\n    for (uint j = 0;j < 32;j++) {\n        byte char = byte(bytes32(uint(data) * 2 ** (8 * j)));\n        if (char != 0) {\n            bytesString[j] = char;\n        }\n    }\n    return string(bytesString);\n}\n  function getexpdate(uint i) public view returns(string memory){\n    return medicines[i].expdate;\n  }\n  function searchexpdate(string memory _name) public view returns(string memory){\n    for(uint i = 1; i <= count; i++)\n    {\n      if(keccak256(abi.encodePacked((medicines[i].name))) == keccak256(abi.encodePacked((_name)))){\n        return medicines[i].expdate;\n\n      }\n    }\n  }\n  function searchdate(string memory _name) public view returns(string memory){\n    for(uint i = 1; i <= count; i++)\n    {\n      if(keccak256(abi.encodePacked((medicines[i].name))) == keccak256(abi.encodePacked((_name)))){\n        return medicines[i].date;\n      }\n    }\n  }\n}\n",
  "sourcePath": "/home/vantstein/Documents/Sem 5/medicinetracking/contracts/Medicine.sol",
  "compiler": {
    "name": "solc",
    "version": "0.5.8+commit.23d335f2.Emscripten.clang"
  },
  "schemaVersion": "3.0.11",
  "updatedAt": "2019-09-14T19:03:21.867Z",
  "devdoc": {
    "methods": {}
  },
  "userdoc": {
    "methods": {}
  }
}